{"abi":[{"type":"constructor","inputs":[],"stateMutability":"nonpayable"},{"type":"function","name":"UPGRADE_INTERFACE_VERSION","inputs":[],"outputs":[{"name":"","type":"string","internalType":"string"}],"stateMutability":"view"},{"type":"function","name":"addWhitelistedDepositor","inputs":[{"name":"depositor","type":"address","internalType":"address"}],"outputs":[],"stateMutability":"nonpayable"},{"type":"function","name":"addWhitelistedLP","inputs":[{"name":"lp","type":"address","internalType":"address"}],"outputs":[],"stateMutability":"nonpayable"},{"type":"function","name":"addWhitelistedLPToken","inputs":[{"name":"lpToken","type":"address","internalType":"address"}],"outputs":[],"stateMutability":"nonpayable"},{"type":"function","name":"admin","inputs":[],"outputs":[{"name":"","type":"address","internalType":"address"}],"stateMutability":"view"},{"type":"function","name":"adminBurn","inputs":[{"name":"account","type":"address","internalType":"address"},{"name":"amount","type":"uint256","internalType":"uint256"}],"outputs":[],"stateMutability":"nonpayable"},{"type":"function","name":"allowance","inputs":[{"name":"owner","type":"address","internalType":"address"},{"name":"spender","type":"address","internalType":"address"}],"outputs":[{"name":"","type":"uint256","internalType":"uint256"}],"stateMutability":"view"},{"type":"function","name":"approve","inputs":[{"name":"spender","type":"address","internalType":"address"},{"name":"value","type":"uint256","internalType":"uint256"}],"outputs":[{"name":"","type":"bool","internalType":"bool"}],"stateMutability":"nonpayable"},{"type":"function","name":"asset","inputs":[],"outputs":[{"name":"","type":"address","internalType":"address"}],"stateMutability":"view"},{"type":"function","name":"backstopCapacity","inputs":[],"outputs":[{"name":"","type":"uint256","internalType":"uint256"}],"stateMutability":"view"},{"type":"function","name":"balanceOf","inputs":[{"name":"account","type":"address","internalType":"address"}],"outputs":[{"name":"","type":"uint256","internalType":"uint256"}],"stateMutability":"view"},{"type":"function","name":"burn","inputs":[{"name":"amount","type":"uint256","internalType":"uint256"}],"outputs":[],"stateMutability":"nonpayable"},{"type":"function","name":"burnFrom","inputs":[{"name":"account","type":"address","internalType":"address"},{"name":"amount","type":"uint256","internalType":"uint256"}],"outputs":[],"stateMutability":"nonpayable"},{"type":"function","name":"canProvideBackstop","inputs":[{"name":"amount","type":"uint256","internalType":"uint256"}],"outputs":[{"name":"","type":"bool","internalType":"bool"}],"stateMutability":"view"},{"type":"function","name":"convertToAssets","inputs":[{"name":"shares","type":"uint256","internalType":"uint256"}],"outputs":[{"name":"","type":"uint256","internalType":"uint256"}],"stateMutability":"view"},{"type":"function","name":"convertToShares","inputs":[{"name":"assets","type":"uint256","internalType":"uint256"}],"outputs":[{"name":"","type":"uint256","internalType":"uint256"}],"stateMutability":"view"},{"type":"function","name":"currentAPY","inputs":[],"outputs":[{"name":"","type":"int256","internalType":"int256"}],"stateMutability":"view"},{"type":"function","name":"decimals","inputs":[],"outputs":[{"name":"","type":"uint8","internalType":"uint8"}],"stateMutability":"view"},{"type":"function","name":"deployToKodiak","inputs":[{"name":"amount","type":"uint256","internalType":"uint256"},{"name":"minLPTokens","type":"uint256","internalType":"uint256"},{"name":"swapToToken0Aggregator","type":"address","internalType":"address"},{"name":"swapToToken0Data","type":"bytes","internalType":"bytes"},{"name":"swapToToken1Aggregator","type":"address","internalType":"address"},{"name":"swapToToken1Data","type":"bytes","internalType":"bytes"}],"outputs":[],"stateMutability":"nonpayable"},{"type":"function","name":"deployer","inputs":[],"outputs":[{"name":"","type":"address","internalType":"address"}],"stateMutability":"view"},{"type":"function","name":"deposit","inputs":[{"name":"assets","type":"uint256","internalType":"uint256"},{"name":"receiver","type":"address","internalType":"address"}],"outputs":[{"name":"shares","type":"uint256","internalType":"uint256"}],"stateMutability":"nonpayable"},{"type":"function","name":"depositToken","inputs":[],"outputs":[{"name":"","type":"address","internalType":"contract IERC20"}],"stateMutability":"view"},{"type":"function","name":"effectiveMonthlyReturn","inputs":[],"outputs":[{"name":"","type":"int256","internalType":"int256"}],"stateMutability":"view"},{"type":"function","name":"getLPBalance","inputs":[{"name":"lpToken","type":"address","internalType":"address"}],"outputs":[{"name":"","type":"uint256","internalType":"uint256"}],"stateMutability":"view"},{"type":"function","name":"getLPHoldings","inputs":[],"outputs":[{"name":"holdings","type":"tuple[]","internalType":"struct BaseVault.LPHolding[]","components":[{"name":"lpToken","type":"address","internalType":"address"},{"name":"amount","type":"uint256","internalType":"uint256"}]}],"stateMutability":"view"},{"type":"function","name":"getWhitelistedLPTokens","inputs":[],"outputs":[{"name":"","type":"address[]","internalType":"address[]"}],"stateMutability":"view"},{"type":"function","name":"getWhitelistedLPs","inputs":[],"outputs":[{"name":"","type":"address[]","internalType":"address[]"}],"stateMutability":"view"},{"type":"function","name":"initialize","inputs":[{"name":"stablecoin_","type":"address","internalType":"address"},{"name":"seniorVault_","type":"address","internalType":"address"},{"name":"initialValue_","type":"uint256","internalType":"uint256"}],"outputs":[],"stateMutability":"nonpayable"},{"type":"function","name":"investInLP","inputs":[{"name":"lp","type":"address","internalType":"address"},{"name":"amount","type":"uint256","internalType":"uint256"}],"outputs":[],"stateMutability":"nonpayable"},{"type":"function","name":"isAdmin","inputs":[{"name":"account","type":"address","internalType":"address"}],"outputs":[{"name":"","type":"bool","internalType":"bool"}],"stateMutability":"view"},{"type":"function","name":"isWhitelistedDepositor","inputs":[{"name":"depositor","type":"address","internalType":"address"}],"outputs":[{"name":"","type":"bool","internalType":"bool"}],"stateMutability":"view"},{"type":"function","name":"isWhitelistedLP","inputs":[{"name":"lp","type":"address","internalType":"address"}],"outputs":[{"name":"","type":"bool","internalType":"bool"}],"stateMutability":"view"},{"type":"function","name":"isWhitelistedLPToken","inputs":[{"name":"lpToken","type":"address","internalType":"address"}],"outputs":[{"name":"","type":"bool","internalType":"bool"}],"stateMutability":"view"},{"type":"function","name":"kodiakHook","inputs":[],"outputs":[{"name":"","type":"address","internalType":"contract IKodiakVaultHook"}],"stateMutability":"view"},{"type":"function","name":"lastUpdateTime","inputs":[],"outputs":[{"name":"","type":"uint256","internalType":"uint256"}],"stateMutability":"view"},{"type":"function","name":"maxDeposit","inputs":[{"name":"","type":"address","internalType":"address"}],"outputs":[{"name":"","type":"uint256","internalType":"uint256"}],"stateMutability":"view"},{"type":"function","name":"maxMint","inputs":[{"name":"","type":"address","internalType":"address"}],"outputs":[{"name":"","type":"uint256","internalType":"uint256"}],"stateMutability":"view"},{"type":"function","name":"maxRedeem","inputs":[{"name":"owner","type":"address","internalType":"address"}],"outputs":[{"name":"","type":"uint256","internalType":"uint256"}],"stateMutability":"view"},{"type":"function","name":"maxWithdraw","inputs":[{"name":"owner","type":"address","internalType":"address"}],"outputs":[{"name":"","type":"uint256","internalType":"uint256"}],"stateMutability":"view"},{"type":"function","name":"mint","inputs":[{"name":"shares","type":"uint256","internalType":"uint256"},{"name":"receiver","type":"address","internalType":"address"}],"outputs":[{"name":"assets","type":"uint256","internalType":"uint256"}],"stateMutability":"nonpayable"},{"type":"function","name":"name","inputs":[],"outputs":[{"name":"","type":"string","internalType":"string"}],"stateMutability":"view"},{"type":"function","name":"previewDeposit","inputs":[{"name":"assets","type":"uint256","internalType":"uint256"}],"outputs":[{"name":"","type":"uint256","internalType":"uint256"}],"stateMutability":"view"},{"type":"function","name":"previewMint","inputs":[{"name":"shares","type":"uint256","internalType":"uint256"}],"outputs":[{"name":"","type":"uint256","internalType":"uint256"}],"stateMutability":"view"},{"type":"function","name":"previewRedeem","inputs":[{"name":"shares","type":"uint256","internalType":"uint256"}],"outputs":[{"name":"","type":"uint256","internalType":"uint256"}],"stateMutability":"view"},{"type":"function","name":"previewWithdraw","inputs":[{"name":"assets","type":"uint256","internalType":"uint256"}],"outputs":[{"name":"","type":"uint256","internalType":"uint256"}],"stateMutability":"view"},{"type":"function","name":"provideBackstop","inputs":[{"name":"amountUSD","type":"uint256","internalType":"uint256"},{"name":"lpPrice","type":"uint256","internalType":"uint256"}],"outputs":[{"name":"actualAmount","type":"uint256","internalType":"uint256"}],"stateMutability":"nonpayable"},{"type":"function","name":"proxiableUUID","inputs":[],"outputs":[{"name":"","type":"bytes32","internalType":"bytes32"}],"stateMutability":"view"},{"type":"function","name":"receiveSpillover","inputs":[{"name":"amount","type":"uint256","internalType":"uint256"}],"outputs":[],"stateMutability":"nonpayable"},{"type":"function","name":"redeem","inputs":[{"name":"shares","type":"uint256","internalType":"uint256"},{"name":"receiver","type":"address","internalType":"address"},{"name":"owner","type":"address","internalType":"address"}],"outputs":[{"name":"","type":"uint256","internalType":"uint256"}],"stateMutability":"nonpayable"},{"type":"function","name":"removeWhitelistedDepositor","inputs":[{"name":"depositor","type":"address","internalType":"address"}],"outputs":[],"stateMutability":"nonpayable"},{"type":"function","name":"removeWhitelistedLP","inputs":[{"name":"lp","type":"address","internalType":"address"}],"outputs":[],"stateMutability":"nonpayable"},{"type":"function","name":"removeWhitelistedLPToken","inputs":[{"name":"lpToken","type":"address","internalType":"address"}],"outputs":[],"stateMutability":"nonpayable"},{"type":"function","name":"seniorVault","inputs":[],"outputs":[{"name":"","type":"address","internalType":"address"}],"stateMutability":"view"},{"type":"function","name":"setAdmin","inputs":[{"name":"admin_","type":"address","internalType":"address"}],"outputs":[],"stateMutability":"nonpayable"},{"type":"function","name":"setKodiakHook","inputs":[{"name":"hook","type":"address","internalType":"address"}],"outputs":[],"stateMutability":"nonpayable"},{"type":"function","name":"setSeniorVault","inputs":[{"name":"seniorVault_","type":"address","internalType":"address"}],"outputs":[],"stateMutability":"nonpayable"},{"type":"function","name":"setVaultValue","inputs":[{"name":"newValue","type":"uint256","internalType":"uint256"}],"outputs":[],"stateMutability":"nonpayable"},{"type":"function","name":"stablecoin","inputs":[],"outputs":[{"name":"","type":"address","internalType":"contract IERC20"}],"stateMutability":"view"},{"type":"function","name":"sweepToKodiak","inputs":[{"name":"minLPTokens","type":"uint256","internalType":"uint256"},{"name":"swapToToken0Aggregator","type":"address","internalType":"address"},{"name":"swapToToken0Data","type":"bytes","internalType":"bytes"},{"name":"swapToToken1Aggregator","type":"address","internalType":"address"},{"name":"swapToToken1Data","type":"bytes","internalType":"bytes"}],"outputs":[],"stateMutability":"nonpayable"},{"type":"function","name":"symbol","inputs":[],"outputs":[{"name":"","type":"string","internalType":"string"}],"stateMutability":"view"},{"type":"function","name":"totalAssets","inputs":[],"outputs":[{"name":"","type":"uint256","internalType":"uint256"}],"stateMutability":"view"},{"type":"function","name":"totalBackstopProvided","inputs":[],"outputs":[{"name":"","type":"uint256","internalType":"uint256"}],"stateMutability":"view"},{"type":"function","name":"totalSpilloverReceived","inputs":[],"outputs":[{"name":"","type":"uint256","internalType":"uint256"}],"stateMutability":"view"},{"type":"function","name":"totalSupply","inputs":[],"outputs":[{"name":"","type":"uint256","internalType":"uint256"}],"stateMutability":"view"},{"type":"function","name":"transfer","inputs":[{"name":"to","type":"address","internalType":"address"},{"name":"value","type":"uint256","internalType":"uint256"}],"outputs":[{"name":"","type":"bool","internalType":"bool"}],"stateMutability":"nonpayable"},{"type":"function","name":"transferAdmin","inputs":[{"name":"newAdmin","type":"address","internalType":"address"}],"outputs":[],"stateMutability":"nonpayable"},{"type":"function","name":"transferFrom","inputs":[{"name":"from","type":"address","internalType":"address"},{"name":"to","type":"address","internalType":"address"},{"name":"value","type":"uint256","internalType":"uint256"}],"outputs":[{"name":"","type":"bool","internalType":"bool"}],"stateMutability":"nonpayable"},{"type":"function","name":"transferToSenior","inputs":[{"name":"amount","type":"uint256","internalType":"uint256"}],"outputs":[],"stateMutability":"nonpayable"},{"type":"function","name":"updateSeniorVault","inputs":[{"name":"seniorVault_","type":"address","internalType":"address"}],"outputs":[],"stateMutability":"nonpayable"},{"type":"function","name":"updateVaultValue","inputs":[{"name":"profitBps","type":"int256","internalType":"int256"}],"outputs":[],"stateMutability":"nonpayable"},{"type":"function","name":"upgradeToAndCall","inputs":[{"name":"newImplementation","type":"address","internalType":"address"},{"name":"data","type":"bytes","internalType":"bytes"}],"outputs":[],"stateMutability":"payable"},{"type":"function","name":"vaultValue","inputs":[],"outputs":[{"name":"value","type":"uint256","internalType":"uint256"}],"stateMutability":"view"},{"type":"function","name":"withdraw","inputs":[{"name":"assets","type":"uint256","internalType":"uint256"},{"name":"receiver","type":"address","internalType":"address"},{"name":"owner","type":"address","internalType":"address"}],"outputs":[{"name":"","type":"uint256","internalType":"uint256"}],"stateMutability":"nonpayable"},{"type":"function","name":"withdrawLPTokens","inputs":[{"name":"lpToken","type":"address","internalType":"address"},{"name":"lp","type":"address","internalType":"address"},{"name":"amount","type":"uint256","internalType":"uint256"}],"outputs":[],"stateMutability":"nonpayable"},{"type":"event","name":"AdminSet","inputs":[{"name":"previousAdmin","type":"address","indexed":true,"internalType":"address"},{"name":"newAdmin","type":"address","indexed":true,"internalType":"address"}],"anonymous":false},{"type":"event","name":"AdminTransferred","inputs":[{"name":"previousAdmin","type":"address","indexed":true,"internalType":"address"},{"name":"newAdmin","type":"address","indexed":true,"internalType":"address"}],"anonymous":false},{"type":"event","name":"Approval","inputs":[{"name":"owner","type":"address","indexed":true,"internalType":"address"},{"name":"spender","type":"address","indexed":true,"internalType":"address"},{"name":"value","type":"uint256","indexed":false,"internalType":"uint256"}],"anonymous":false},{"type":"event","name":"BackstopProvided","inputs":[{"name":"amount","type":"uint256","indexed":false,"internalType":"uint256"},{"name":"toSenior","type":"address","indexed":false,"internalType":"address"}],"anonymous":false},{"type":"event","name":"Deposit","inputs":[{"name":"sender","type":"address","indexed":true,"internalType":"address"},{"name":"owner","type":"address","indexed":true,"internalType":"address"},{"name":"assets","type":"uint256","indexed":false,"internalType":"uint256"},{"name":"shares","type":"uint256","indexed":false,"internalType":"uint256"}],"anonymous":false},{"type":"event","name":"Deposit","inputs":[{"name":"user","type":"address","indexed":true,"internalType":"address"},{"name":"assets","type":"uint256","indexed":false,"internalType":"uint256"},{"name":"shares","type":"uint256","indexed":false,"internalType":"uint256"}],"anonymous":false},{"type":"event","name":"DepositorRemoved","inputs":[{"name":"depositor","type":"address","indexed":true,"internalType":"address"}],"anonymous":false},{"type":"event","name":"DepositorWhitelisted","inputs":[{"name":"depositor","type":"address","indexed":true,"internalType":"address"}],"anonymous":false},{"type":"event","name":"FeesCollected","inputs":[{"name":"managementFee","type":"uint256","indexed":false,"internalType":"uint256"},{"name":"performanceFee","type":"uint256","indexed":false,"internalType":"uint256"}],"anonymous":false},{"type":"event","name":"Initialized","inputs":[{"name":"version","type":"uint64","indexed":false,"internalType":"uint64"}],"anonymous":false},{"type":"event","name":"JuniorRebaseExecuted","inputs":[{"name":"newValue","type":"uint256","indexed":false,"internalType":"uint256"},{"name":"effectiveReturn","type":"int256","indexed":false,"internalType":"int256"}],"anonymous":false},{"type":"event","name":"KodiakDeployment","inputs":[{"name":"amount","type":"uint256","indexed":false,"internalType":"uint256"},{"name":"lpReceived","type":"uint256","indexed":false,"internalType":"uint256"},{"name":"timestamp","type":"uint256","indexed":false,"internalType":"uint256"}],"anonymous":false},{"type":"event","name":"LPInvestment","inputs":[{"name":"lp","type":"address","indexed":true,"internalType":"address"},{"name":"amount","type":"uint256","indexed":false,"internalType":"uint256"}],"anonymous":false},{"type":"event","name":"LPTokensWithdrawn","inputs":[{"name":"lpToken","type":"address","indexed":true,"internalType":"address"},{"name":"lp","type":"address","indexed":true,"internalType":"address"},{"name":"amount","type":"uint256","indexed":false,"internalType":"uint256"}],"anonymous":false},{"type":"event","name":"SpilloverReceived","inputs":[{"name":"amount","type":"uint256","indexed":false,"internalType":"uint256"},{"name":"fromSenior","type":"address","indexed":false,"internalType":"address"}],"anonymous":false},{"type":"event","name":"Transfer","inputs":[{"name":"from","type":"address","indexed":true,"internalType":"address"},{"name":"to","type":"address","indexed":true,"internalType":"address"},{"name":"value","type":"uint256","indexed":false,"internalType":"uint256"}],"anonymous":false},{"type":"event","name":"Upgraded","inputs":[{"name":"implementation","type":"address","indexed":true,"internalType":"address"}],"anonymous":false},{"type":"event","name":"VaultValueUpdated","inputs":[{"name":"oldValue","type":"uint256","indexed":false,"internalType":"uint256"},{"name":"newValue","type":"uint256","indexed":false,"internalType":"uint256"},{"name":"profitBps","type":"int256","indexed":false,"internalType":"int256"}],"anonymous":false},{"type":"event","name":"WhitelistedLPAdded","inputs":[{"name":"lp","type":"address","indexed":true,"internalType":"address"}],"anonymous":false},{"type":"event","name":"WhitelistedLPRemoved","inputs":[{"name":"lp","type":"address","indexed":true,"internalType":"address"}],"anonymous":false},{"type":"event","name":"WhitelistedLPTokenAdded","inputs":[{"name":"lpToken","type":"address","indexed":true,"internalType":"address"}],"anonymous":false},{"type":"event","name":"WhitelistedLPTokenRemoved","inputs":[{"name":"lpToken","type":"address","indexed":true,"internalType":"address"}],"anonymous":false},{"type":"event","name":"Withdraw","inputs":[{"name":"sender","type":"address","indexed":true,"internalType":"address"},{"name":"receiver","type":"address","indexed":true,"internalType":"address"},{"name":"owner","type":"address","indexed":true,"internalType":"address"},{"name":"assets","type":"uint256","indexed":false,"internalType":"uint256"},{"name":"shares","type":"uint256","indexed":false,"internalType":"uint256"}],"anonymous":false},{"type":"event","name":"Withdraw","inputs":[{"name":"user","type":"address","indexed":true,"internalType":"address"},{"name":"assets","type":"uint256","indexed":false,"internalType":"uint256"},{"name":"shares","type":"uint256","indexed":false,"internalType":"uint256"}],"anonymous":false},{"type":"error","name":"AddressEmptyCode","inputs":[{"name":"target","type":"address","internalType":"address"}]},{"type":"error","name":"AddressInsufficientBalance","inputs":[{"name":"account","type":"address","internalType":"address"}]},{"type":"error","name":"AdminAlreadySet","inputs":[]},{"type":"error","name":"DepositCapExceeded","inputs":[]},{"type":"error","name":"ERC1967InvalidImplementation","inputs":[{"name":"implementation","type":"address","internalType":"address"}]},{"type":"error","name":"ERC1967NonPayable","inputs":[]},{"type":"error","name":"ERC20InsufficientAllowance","inputs":[{"name":"spender","type":"address","internalType":"address"},{"name":"allowance","type":"uint256","internalType":"uint256"},{"name":"needed","type":"uint256","internalType":"uint256"}]},{"type":"error","name":"ERC20InsufficientBalance","inputs":[{"name":"sender","type":"address","internalType":"address"},{"name":"balance","type":"uint256","internalType":"uint256"},{"name":"needed","type":"uint256","internalType":"uint256"}]},{"type":"error","name":"ERC20InvalidApprover","inputs":[{"name":"approver","type":"address","internalType":"address"}]},{"type":"error","name":"ERC20InvalidReceiver","inputs":[{"name":"receiver","type":"address","internalType":"address"}]},{"type":"error","name":"ERC20InvalidSender","inputs":[{"name":"sender","type":"address","internalType":"address"}]},{"type":"error","name":"ERC20InvalidSpender","inputs":[{"name":"spender","type":"address","internalType":"address"}]},{"type":"error","name":"ERC4626ExceededMaxDeposit","inputs":[{"name":"receiver","type":"address","internalType":"address"},{"name":"assets","type":"uint256","internalType":"uint256"},{"name":"max","type":"uint256","internalType":"uint256"}]},{"type":"error","name":"ERC4626ExceededMaxMint","inputs":[{"name":"receiver","type":"address","internalType":"address"},{"name":"shares","type":"uint256","internalType":"uint256"},{"name":"max","type":"uint256","internalType":"uint256"}]},{"type":"error","name":"ERC4626ExceededMaxRedeem","inputs":[{"name":"owner","type":"address","internalType":"address"},{"name":"shares","type":"uint256","internalType":"uint256"},{"name":"max","type":"uint256","internalType":"uint256"}]},{"type":"error","name":"ERC4626ExceededMaxWithdraw","inputs":[{"name":"owner","type":"address","internalType":"address"},{"name":"assets","type":"uint256","internalType":"uint256"},{"name":"max","type":"uint256","internalType":"uint256"}]},{"type":"error","name":"FailedInnerCall","inputs":[]},{"type":"error","name":"InsufficientBackstopFunds","inputs":[]},{"type":"error","name":"InsufficientBalance","inputs":[]},{"type":"error","name":"InvalidAmount","inputs":[]},{"type":"error","name":"InvalidInitialization","inputs":[]},{"type":"error","name":"InvalidProfitRange","inputs":[]},{"type":"error","name":"KodiakHookNotSet","inputs":[]},{"type":"error","name":"LPAlreadyWhitelisted","inputs":[]},{"type":"error","name":"MathOverflowedMulDiv","inputs":[]},{"type":"error","name":"NotInitializing","inputs":[]},{"type":"error","name":"OnlyAdmin","inputs":[]},{"type":"error","name":"OnlyDeployer","inputs":[]},{"type":"error","name":"OnlySeniorVault","inputs":[]},{"type":"error","name":"OnlyWhitelistedDepositor","inputs":[]},{"type":"error","name":"Overflow","inputs":[]},{"type":"error","name":"SafeERC20FailedOperation","inputs":[{"name":"token","type":"address","internalType":"address"}]},{"type":"error","name":"SeniorVaultAlreadySet","inputs":[]},{"type":"error","name":"SlippageTooHigh","inputs":[]},{"type":"error","name":"UUPSUnauthorizedCallContext","inputs":[]},{"type":"error","name":"UUPSUnsupportedProxiableUUID","inputs":[{"name":"slot","type":"bytes32","internalType":"bytes32"}]},{"type":"error","name":"Unauthorized","inputs":[]},{"type":"error","name":"WhitelistedLPNotFound","inputs":[]},{"type":"error","name":"WrongVault","inputs":[]},{"type":"error","name":"ZeroAddress","inputs":[]}],"bytecode":{"object":"0x60a080604052346100c257306080525f516020613ece5f395f51905f525460ff8160401c166100b3576002600160401b03196001600160401b03821601610060575b604051613e0790816100c78239608051818181611d3c0152611e0b0152f35b6001600160401b0319166001600160401b039081175f516020613ece5f395f51905f525581527fc7f505b2f371ae2175ee4913f4499e1f2633a7b5936321eed1cdaeb6115181d290602090a15f80610041565b63f92ee8a960e01b5f5260045ffd5b5f80fdfe60806040526004361015610011575f80fd5b5f5f3560e01c806301e1d11414612ca9578063049a424014612bfa57806306dd041914612bc257806306fdde0314612ae057806307a2d13a14611fa3578063095ea7b314612a3b5780630a28a47714612a1d578063113ba777146128b35780631259ada21461288b5780631794bb3c1461233d57806318160ddd14612314578063226ac791146122d757806323b872dd146122b557806324d7806c146122805780632727c94d146122435780632fe2388a146120cf578063313ce5671461209757806332f92acd1461206457806338c737381461203657806338d52e0f14612002578063402d267d1461097b57806342966c6814611fe557806345c0547714611fa85780634cdad50614611fa35780634f1ef28614611d9057806352d1902d14611d2a5780636276610814611d075780636cfa3bd414611bf95780636e553f6514611bc6578063704b6c0214611b2657806370a0823114611b0857806373884aee14611ae057806375829def14611a5c57806379cc679014611a2a5780637f40132814611a105780638c21c9e11461049e57806392f2ed1f1461174857806394bf804d1461171457806395d89b411461162157806398c1b7001461142d5780639a79d32b146113e15780639afd98d2146113c35780639d33919b14611345578063a58e3389146111dc578063a9059cbb146111aa578063ad3cb1cc14611169578063ae90fa57146110db578063b3d7f6b9146110bc578063b460af941461105f578063ba08765214611002578063beec98c014610cc0578063c07056bc146109bf578063c2d4f8c014610980578063c63d75b61461097b578063c6e6f59214610494578063c7aa720114610902578063c7d1e7ef14610892578063c89039c514610499578063c8f33c9114610874578063cba04a6814610791578063ce96cb771461076d578063cfe8b3e3146106d5578063d2258beb14610639578063d5f3948814610612578063d905777e146105e6578063dd62ed3e1461059e578063dd95a14d146104a3578063e7d5a1ed1461049e578063e9cbd82214610499578063ef8b30f714610494578063f51a747c14610476578063f7211f0714610416578063f851a440146103ed5763fd62562114610348575f80fd5b346103ea5760203660031901126103ea57610361612cc6565b6001546001600160a01b031633036103db57600954906001600160a01b03821680151590816103cf575b506103c0576001600160a01b03169081156103b1576001600160a01b0319161760095580f35b63d92e233d60e01b8352600483fd5b63fce1946760e01b8352600483fd5b6001915014155f61038b565b634755657960e01b8252600482fd5b80fd5b50346103ea57806003193601126103ea576001546040516001600160a01b039091168152602090f35b50346103ea5760203660031901126103ea57610430612cc6565b6001546001600160a01b031633036103db576001600160a01b03168015610467576001600160601b0360a01b600954161760095580f35b63d92e233d60e01b8252600482fd5b50346103ea57806003193601126103ea576020600c54604051908152f35b612e99565b612eb7565b612ca9565b50346103ea5760203660031901126103ea576104bd612cc6565b6001546001600160a01b031633036103db576001600160a01b0381169081156103b157818352600860205260ff60408420541661058f57600754600160401b81101561057b579061051982600161053d94016007556007612fc2565b81546001600160a01b0393841660039290921b91821b9390911b1916919091179055565b808252600860205260408220805460ff191660011790557fc4139bbefb6535b647b0a81e17477c9d9796c9e5a8767a452f308f8d2c960af08280a280f35b634e487b7160e01b84526041600452602484fd5b6308d38e4960e01b8352600483fd5b50346103ea5760403660031901126103ea576105b8612cc6565b6105c96105c3612cdc565b91612f17565b9060018060a01b03165f52602052602060405f2054604051908152f35b50346103ea5760203660031901126103ea57602061060a610605612cc6565b613384565b604051908152f35b50346103ea57806003193601126103ea57546040516001600160a01b039091168152602090f35b50346103ea5760203660031901126103ea5760249060206001600160a01b03610660612cc6565b16604051938480926370a0823160e01b82523060048301525afa9081156106c95790610692575b602090604051908152f35b506020813d6020116106c1575b816106ac60209383612db4565b810103126106bd5760209051610687565b5f80fd5b3d915061069f565b604051903d90823e3d90fd5b50346103ea5760203660031901126103ea576106ef612cc6565b6001546001600160a01b031633036103db576001600160a01b0381169081156103b157818352600660205260ff60408420541661058f5761072f906134a6565b808252600660205260408220805460ff191660011790557f3ad5f8ec9161a9090daf2327ae998fbee12617c140eacfb348ea916394ab6d0e8280a280f35b50346103ea5760203660031901126103ea57602061060a61078c612cc6565b6134cd565b50346103ea5760203660031901126103ea5760015460043591906001600160a01b0316330361086557600254918060025542600355818361081b575b6040805185815260208101849052908101919091529192610818927f08e292119eb5d6f28b841651e90566220242a29a2941ab33e2fc73a859e443c49080606081015b0390a1613561565b80f35b5061271081028181046127101482151715610851578361083a91612ffe565b9261270f19840193841360011661085157926107cd565b634e487b7160e01b83526011600452602483fd5b634755657960e01b8152600490fd5b50346103ea57806003193601126103ea576020600354604051908152f35b50346103ea5760203660031901126103ea576108ac612cc6565b6001546001600160a01b031633036103db576001600160a01b0316808252600a60205260408220805460ff191690557fbc12c224e0d437ba41f0b1d746dea5cb82c6d3808b990d3780eacbd3adcad0eb8280a280f35b50346103ea5760203660031901126103ea5761091c612cc6565b6001546001600160a01b031633036103db576001600160a01b0316801561046757808252600a60205260408220805460ff191660011790557f4a31ecf511a8ac8191b59288666a641edc513f28ae651a4eaf1886d980dc02778280a280f35b612d74565b50346103ea5760203660031901126103ea5760209060ff906040906001600160a01b036109ab612cc6565b168152600684522054166040519015158152f35b50346103ea5760203660031901126103ea576109d9612cc6565b6001546001600160a01b031633036103db57600b546001600160a01b031680610b15575b506001600160a01b0381169081610a26575b506001600160601b0360a01b600b541617600b5580f35b8280604051602081019063fbfa77cf60e01b825260048152610a49602482612db4565b5190845afa610a56613477565b81610b07575b81610ad6575b5015610ac757818352600660205260ff604084205416610a0f57610a85906134a6565b808252600660205260408220805460ff19166001179055807f3ad5f8ec9161a9090daf2327ae998fbee12617c140eacfb348ea916394ab6d0e8380a25f610a0f565b637112706560e11b8352600483fd5b9050602081805181010312610b0357602001516001600160a01b03811690819003610b035730145f610a62565b8380fd5b905060208151101590610a5c565b60018060a01b03600454166040519084806020840163095ea7b360e01b815285602486015281604486015260448552610b4f606486612db4565b84519082855af1610b5e613477565b81610c91575b5080610c87575b15610c42575b5050600b546001600160a01b03168084526006602052604084205490915060ff16156109fd5790825b60055480821015610c3a5783610baf83612faa565b905460039190911b1c6001600160a01b031614610bcf5750600101610b9a565b9192915f198101908111610c265790610519610bed610c0593612faa565b905460039190911b1c6001600160a01b031691612faa565b610c0d613351565b8252600660205260408220805460ff191690555f6109fd565b634e487b7160e01b85526011600452602485fd5b505090610c0d565b610c7a610c7f936040519063095ea7b360e01b6020830152602482015286604482015260448152610c74606482612db4565b82613b15565b613b15565b5f8080610b71565b50803b1515610b6b565b8051801592508215610ca6575b50505f610b64565b610cb99250602080918301019101612f4f565b5f80610c9e565b50346103ea5760c03660031901126103ea57604435906004356001600160a01b0383168303610ffe576064356001600160401b038111610f1e57610d08903690600401612df0565b6084356001600160a01b0381168103610ffa5760a4356001600160401b038111610ff657610d3a903690600401612df0565b600154909491906001600160a01b03163303610fe7578515610fd857600b546001600160a01b0316978815610fc957600480546040516370a0823160e01b815230928101929092526001600160a01b031696906020816024818b5afa908115610fbe579089918b91610f89575b5010610f7a5788996040999798995190635a57d31b60e01b8252602082600481845afa998a15610f6f578b928a9b610f31575b5090610de692916138a8565b600b546001600160a01b031692833b15610f2d57610e218896928b9288946040519a8b998a988997631aa4f11760e31b895260048901613428565b03925af18015610f2257610f09575b5050600b54604051635a57d31b60e01b81529190602090839060049082906001600160a01b03165afa8015610efe578490610eca575b610e70925061301c565b6024358110610ebb5760408051928352602083019190915242908201527f2d9c6fa4e1874b30ead551271f1da95d557b36bb806722d35c3ec6c191b141dd9080606081015b0390a180f35b63428637bb60e11b8352600483fd5b506020823d602011610ef6575b81610ee460209383612db4565b810103126106bd57610e709151610e66565b3d9150610ed7565b6040513d86823e3d90fd5b81610f1391612db4565b610f1e57825f610e30565b8280fd5b6040513d84823e3d90fd5b8780fd5b9950995090506020883d602011610f67575b81610f5060209383612db4565b810103126106bd579651978a978a91610de6610dda565b3d9150610f43565b6040513d8b823e3d90fd5b631e9acf1760e31b8952600489fd5b9150506020813d602011610fb6575b81610fa560209383612db4565b810103126106bd578890515f610da7565b3d9150610f98565b6040513d8c823e3d90fd5b63855a7f7d60e01b8852600488fd5b63162908e360e11b8752600487fd5b634755657960e01b8752600487fd5b8580fd5b8480fd5b5080fd5b50346103ea5761101136612e5f565b9261101b84613384565b80841161103c5760208561060a86866110338261369c565b938491336138e4565b915091606493632e52afbb60e21b845260018060a01b0316600452602452604452fd5b50346103ea5761106e36612e5f565b91909261107a836134cd565b80831161109b5760208461060a8786611092816136d0565b938492336138e4565b60649284633fa733bb60e21b845260018060a01b0316600452602452604452fd5b50346103ea5760203660031901126103ea57602061060a600435613667565b50346103ea57806003193601126103ea5760405180916020600754928381520191600782527fa66cc928b5edb82af9bd49922954155ab7b0942694bea4ce44661d9a8736c688915b81811061114a576111468561113a81870382612db4565b60405191829182612e1d565b0390f35b82546001600160a01b0316845260209093019260019283019201611123565b50346103ea57806003193601126103ea575061114660405161118c604082612db4565b60058152640352e302e360dc1b602082015260405191829182612cf2565b50346103ea5760403660031901126103ea576111d16111c7612cc6565b60243590336137d7565b602060405160018152f35b50346103ea5760203660031901126103ea576111f6612cc6565b6001546001600160a01b031633036103db576001600160a01b0316801561046757808252600860205260ff6040832054161561133357815b6007548082101561132c578261124383612f7e565b905460039190911b1c6001600160a01b031614611263575060010161122e565b5f198101908111611318579061051961127e61129693612f7e565b905460039190911b1c6001600160a01b031691612f7e565b6007548015611304575f19016112c56112b0826007612fc2565b81549060018060a01b039060031b1b19169055565b6007555b808252600860205260408220805460ff191690557f8ee45cb2ea16171b2772d093cb422c4ab6bb58aa86d7ea099ea5bc6486123fa48280a280f35b634e487b7160e01b83526031600452602483fd5b634e487b7160e01b84526011600452602484fd5b50506112c9565b6001626138a560e11b03198252600482fd5b50346103ea57806003193601126103ea5760405180916020600554928381520191600582527f036b6384b5eca791c62761152d0c79bb0604c104a5fb6f4eb0703f3154bb3db0915b8181106113a4576111468561113a81870382612db4565b82546001600160a01b031684526020909301926001928301920161138d565b50346103ea57806003193601126103ea576020600d54604051908152f35b50346103ea57806003193601126103ea576113fa6133aa565b90600c820291808305600c149015171561141957602082604051908152f35b634e487b7160e01b81526011600452602490fd5b50346103ea5761143c36612d3a565b600154919290916001600160a01b03163303611612576001600160a01b0316908115611603576001600160a01b0383169283156115f457838552600660205260ff604086205416156115e257828552600860205260ff604086205416156115e2576040516370a0823160e01b815230600482015291602083602481875afa9283156115d75786936115a3575b508061159d5750815b821561158e57821161157f5760405163a9059cbb60e01b81526001600160a01b03919091166004820152602481018290529060208260448188875af1908115611574577f10534662cd48e65ea88bdaf07a9c3acfb5d04cd46ee5631480c43d32c6bd629492602092611549575b50604051908152a380f35b61156890833d851161156d575b6115608183612db4565b810190612f4f565b61153e565b503d611556565b6040513d87823e3d90fd5b631e9acf1760e31b8552600485fd5b63162908e360e11b8652600486fd5b916114d1565b9092506020813d6020116115cf575b816115bf60209383612db4565b810103126106bd5751915f6114c8565b3d91506115b2565b6040513d88823e3d90fd5b6001626138a560e11b03198552600485fd5b63d92e233d60e01b8552600485fd5b63d92e233d60e01b8452600484fd5b634755657960e01b8452600484fd5b50346103ea57806003193601126103ea5760405190805f516020613d325f395f51905f52549061165082612edf565b80855291600181169081156116ed5750600114611684575b6111468461167881860382612db4565b60405191829182612cf2565b5f516020613d325f395f51905f5281527f46a2803e59a4de4e7a4c574b1243f25977ac4c77d5a1a4a609b5394cebb4a2aa939250905b8082106116d35750909150810160200161167882611668565b9192600181602092548385880101520191019092916116ba565b60ff191660208087019190915292151560051b850190920192506116789150839050611668565b50346103ea5760403660031901126103ea57602060043561060a611736612cdc565b9161174081613667565b809333613a10565b50346106bd5760a03660031901126106bd57611762612cdc565b6044356001600160401b0381116106bd57611781903690600401612df0565b6064356001600160a01b03811681036106bd576084356001600160401b0381116106bd576117b3903690600401612df0565b600154909491906001600160a01b03163303611a0157600b546001600160a01b03169586156119f25760018060a01b036004541695604051976370a0823160e01b89523060048a01526020896024818b5afa988915611969575f996119be575b5088156119af57604051635a57d31b60e01b815290602082600481845afa988915611969578a925f9a611974575b509061184d92916138a8565b600b546001600160a01b031692833b156106bd576118885f96928a9288946040519a8b998a988997631aa4f11760e31b895260048901613428565b03925af1801561196957611953575b50600b54604051635a57d31b60e01b81529190602090839060049082906001600160a01b03165afa8015610efe57849061191f575b6118d6925061301c565b6004358110610ebb5760408051928352602083019190915242908201527f2d9c6fa4e1874b30ead551271f1da95d557b36bb806722d35c3ec6c191b141dd908060608101610eb5565b506020823d60201161194b575b8161193960209383612db4565b810103126106bd576118d691516118cc565b3d915061192c565b6119609193505f90612db4565b5f916004611897565b6040513d5f823e3d90fd5b91925098506020813d6020116119a7575b8161199260209383612db4565b810103126106bd57519789919061184d611841565b3d9150611985565b63162908e360e11b5f5260045ffd5b9098506020813d6020116119ea575b816119da60209383612db4565b810103126106bd5751975f611813565b3d91506119cd565b63855a7f7d60e01b5f5260045ffd5b634755657960e01b5f5260045ffd5b346106bd575f3660031901126106bd57602061060a6133aa565b346106bd5760403660031901126106bd57611a5a611a46612cc6565b60243590611a55823383613739565b61359e565b005b346106bd5760203660031901126106bd57611a75612cc6565b6001546001600160a01b0381169133839003611a01576001600160a01b0316918215611ad15782907ff8ccb027dfcd135e000e9d45e6cc2d662578a8825d4c45b5e32e0adf67e79ec65f80a36001600160a01b03191617600155005b63d92e233d60e01b5f5260045ffd5b346106bd575f3660031901126106bd576009546040516001600160a01b039091168152602090f35b346106bd5760203660031901126106bd57602061060a610605612cc6565b346106bd5760203660031901126106bd57611b3f612cc6565b5f546001600160a01b03163303611bb757600154906001600160a01b038216611ba8576001600160a01b0316908115611ad157815f7fbf265e8326285a2747e33e54d5945f7111f2b5edb826eb8c08d4677779b3ff978180a36001600160a01b03191617600155005b63130160e560e31b5f5260045ffd5b63618bbdd560e01b5f5260045ffd5b346106bd5760403660031901126106bd57602060043561060a611be7612cdc565b611bf083613705565b92839133613a10565b346106bd5760203660031901126106bd57611c12612cc6565b6001546001600160a01b03163303611a01576001600160a01b03168015611ad157805f52600660205260ff60405f20541615611cf8575f5b6005549081811015611cf15782611c6082612faa565b905460039190911b1c6001600160a01b031614611c81576001915001611c4a565b5f198201918211611cdd57610519610bed611c9b93612faa565b611ca3613351565b805f52600660205260405f2060ff1981541690557f3bedd7d89ef686cca15b860943a8d8902b2a5396f8dcf1ff5cfbbdb610a420715f80a2005b634e487b7160e01b5f52601160045260245ffd5b5050611ca3565b637f9ec75b60e11b5f5260045ffd5b346106bd5760203660031901126106bd5760206004356002541015604051908152f35b346106bd575f3660031901126106bd577f00000000000000000000000000000000000000000000000000000000000000006001600160a01b03163003611d815760206040515f516020613d725f395f51905f528152f35b63703e46dd60e11b5f5260045ffd5b60403660031901126106bd57611da4612cc6565b602435906001600160401b0382116106bd57366023830112156106bd57816004013590611dd082612dd5565b91611dde6040519384612db4565b808352602083019336602483830101116106bd57815f926024602093018737840101526001600160a01b037f000000000000000000000000000000000000000000000000000000000000000016308114908115611f81575b50611d81576001546001600160a01b03163303611a01576040516352d1902d60e01b81526001600160a01b0382169390602081600481885afa5f9181611f4d575b50611e8f5784634c9c8ce360e01b5f5260045260245ffd5b805f516020613d725f395f51905f52869203611f3b5750823b15611f29575f516020613d725f395f51905f5280546001600160a01b031916821790557fbc7cd75a20ee27fd9adebab32041f755214dbc6bffa90cc0225b39da2e5c2d3b5f80a2825115611f10575f8091611a5a945190845af4611f0a613477565b91613c14565b50505034611f1a57005b63b398979f60e01b5f5260045ffd5b634c9c8ce360e01b5f5260045260245ffd5b632a87526960e21b5f5260045260245ffd5b9091506020813d602011611f79575b81611f6960209383612db4565b810103126106bd57519086611e77565b3d9150611f5c565b5f516020613d725f395f51905f52546001600160a01b03161415905084611e36565b612d1c565b346106bd5760203660031901126106bd576009546001600160a01b03163303611fd657611a5a6004356132ed565b63399d87b560e11b5f5260045ffd5b346106bd5760203660031901126106bd57611a5a6004353361359e565b346106bd575f3660031901126106bd575f516020613d925f395f51905f52546040516001600160a01b039091168152602090f35b346106bd5760203660031901126106bd576009546001600160a01b03163303611fd657611a5a600435613280565b346106bd5760403660031901126106bd576009546001600160a01b03163303611fd657602061060a602435600435613036565b346106bd575f3660031901126106bd5760ff5f516020613d925f395f51905f525460a01c1660ff8111611cdd57602090604051908152f35b346106bd575f3660031901126106bd576007546120eb81612f67565b906120f96040519283612db4565b808252601f1961210882612f67565b015f5b8181106122205750505f5b81811061217757826040518091602082016020835281518091526020604084019201905f5b818110612149575050500390f35b825180516001600160a01b03168552602090810151818601528695506040909401939092019160010161213b565b61218081612f7e565b90546040516370a0823160e01b8152306004820152929160031b1c6001600160a01b0316602083602481845afa8015611969575f906121ee575b60019350604051916121cb83612d99565b825260208201526121dc8286612fd7565b526121e78185612fd7565b5001612116565b506020833d8211612218575b8161220760209383612db4565b810103126106bd57600192516121ba565b3d91506121fa565b60209060405161222f81612d99565b5f81525f838201528282870101520161210b565b346106bd5760203660031901126106bd576001600160a01b03612264612cc6565b165f526008602052602060ff60405f2054166040519015158152f35b346106bd5760203660031901126106bd57602061229b612cc6565b6001546040516001600160a01b0392831691909216148152f35b346106bd576111d16122c636612d3a565b916122d2833383613739565b6137d7565b346106bd5760203660031901126106bd576001600160a01b036122f8612cc6565b165f52600a602052602060ff60405f2054166040519015158152f35b346106bd575f3660031901126106bd5760205f516020613d525f395f51905f5254604051908152f35b346106bd5761234b36612d3a565b5f516020613db25f395f51905f52549160ff8360401c1615926001600160401b03811680159081612883575b6001149081612879575b159081612870575b506128615767ffffffffffffffff1981166001175f516020613db25f395f51905f525583612835575b506040938451906123c38683612db4565b60158252744a756e696f72205472616e6368652053686172657360581b60208301528551906123f28783612db4565b6004825263352a292760e11b602083015261240b6139e5565b6124136139e5565b6001600160a01b0316918215611ad15761242b6139e5565b6124336139e5565b8051906001600160401b03821161271e57819061245d5f516020613cf25f395f51905f5254612edf565b601f81116127bb575b50602090601f831160011461273d575f92612732575b50508160011b915f199060031b1c1916175f516020613cf25f395f51905f52555b8051906001600160401b03821161271e5781906124c75f516020613d325f395f51905f5254612edf565b601f81116126a4575b50602090601f8311600114612626575f9261261b575b50508160011b915f199060031b1c1916175f516020613d325f395f51905f52555b61250f6139e5565b6125176139e5565b8061252181613c72565b9015612613575b5f516020613d925f395f51905f52549060ff60a01b9060a01b16906affffffffffffffffffffff60a81b1617175f516020613d925f395f51905f525561256c6139e5565b336001600160601b0360a01b5f5416175f556001600160601b0360a01b600454161760045560018060a01b03166001600160601b0360a01b60095416176009558060025542600355600e556125bd57005b60207fc7f505b2f371ae2175ee4913f4499e1f2633a7b5936321eed1cdaeb6115181d29168ff0000000000000000195f516020613db25f395f51905f5254165f516020613db25f395f51905f52555160018152a1005b506012612528565b0151905087806124e6565b5f516020613d325f395f51905f525f9081528281209350601f198516905b81811061268c5750908460019594939210612674575b505050811b015f516020613d325f395f51905f5255612507565b01515f1960f88460031b161c1916905587808061265a565b92936020600181928786015181550195019301612644565b5f516020613d325f395f51905f525f529091507f46a2803e59a4de4e7a4c574b1243f25977ac4c77d5a1a4a609b5394cebb4a2aa601f840160051c81019160208510612714575b90601f859493920160051c01905b81811061270657506124d0565b5f81558493506001016126f9565b90915081906126eb565b634e487b7160e01b5f52604160045260245ffd5b01519050888061247c565b5f516020613cf25f395f51905f525f9081528281209350601f198516905b8181106127a3575090846001959493921061278b575b505050811b015f516020613cf25f395f51905f525561249d565b01515f1960f88460031b161c19169055888080612771565b9293602060018192878601518155019501930161275b565b5f516020613cf25f395f51905f525f529091507f2ae08a8e29253f69ac5d979a101956ab8f8d9d7ded63fa7a83b16fc47648eab0601f840160051c8101916020851061282b575b90601f859493920160051c01905b81811061281d5750612466565b5f8155849350600101612810565b9091508190612802565b68ffffffffffffffffff191668010000000000000001175f516020613db25f395f51905f5255846123b2565b63f92ee8a960e01b5f5260045ffd5b90501586612389565b303b159150612381565b859150612377565b346106bd575f3660031901126106bd57600b546040516001600160a01b039091168152602090f35b346106bd5760403660031901126106bd576128cc612cc6565b60015460243591906001600160a01b03163303611a01576001600160a01b038116918215611ad15780156119af57825f52600660205260ff60405f20541615611cf857600480546040516370a0823160e01b815230928101929092526001600160a01b031690602081602481855afa80156119695783915f916129e8575b50106129d95760405163a9059cbb60e01b81526001600160a01b0393909316600484015260248301829052602090839060449082905f905af1908115611969577f4d68c0642ddb3d721bdec8814888b9e64c61023efedaf43bf47cf10b799ad0e2926020926129be575b50604051908152a2005b6129d490833d851161156d576115608183612db4565b6129b4565b631e9acf1760e31b5f5260045ffd5b9150506020813d602011612a15575b81612a0460209383612db4565b810103126106bd578290518661294a565b3d91506129f7565b346106bd5760203660031901126106bd57602061060a6004356136d0565b346106bd5760403660031901126106bd57612a54612cc6565b602435903315612acd576001600160a01b0316908115612aba57612a7733612f17565b825f526020528060405f20556040519081527f8c5be1e5ebec7d5bd14f71427d1e84f3dd0314c0f7b2291e5b200ac8c7c3b92560203392a3602060405160018152f35b634a1406b160e11b5f525f60045260245ffd5b63e602df0560e01b5f525f60045260245ffd5b346106bd575f3660031901126106bd576040515f5f516020613cf25f395f51905f5254612b0c81612edf565b8084529060018116908115612b9e5750600114612b34575b6111468361167881850382612db4565b5f516020613cf25f395f51905f525f9081527f2ae08a8e29253f69ac5d979a101956ab8f8d9d7ded63fa7a83b16fc47648eab0939250905b808210612b8457509091508101602001611678612b24565b919260018160209254838588010152019101909291612b6c565b60ff191660208086019190915291151560051b840190910191506116789050612b24565b346106bd5760403660031901126106bd57612bdb612cc6565b6001546001600160a01b03163303611a0157611a5a906024359061359e565b346106bd5760203660031901126106bd57600154600435906001600160a01b03163303611a01576113871981128015612c9e575b612c8f57611a5a906002547f08e292119eb5d6f28b841651e90566220242a29a2941ab33e2fc73a859e443c4610810612c6784846134f9565b9384600255426003556040519182918686846040919493926060820195825260208201520152565b63092382c960e21b5f5260045ffd5b506127108113612c2e565b346106bd575f3660031901126106bd576020600254604051908152f35b600435906001600160a01b03821682036106bd57565b602435906001600160a01b03821682036106bd57565b602060409281835280519182918282860152018484015e5f828201840152601f01601f1916010190565b346106bd5760203660031901126106bd57602061060a60043561369c565b60609060031901126106bd576004356001600160a01b03811681036106bd57906024356001600160a01b03811681036106bd579060443590565b346106bd5760203660031901126106bd57612d8d612cc6565b5060206040515f198152f35b604081019081106001600160401b0382111761271e57604052565b90601f801991011681019081106001600160401b0382111761271e57604052565b6001600160401b03811161271e57601f01601f191660200190565b9181601f840112156106bd578235916001600160401b0383116106bd57602083818601950101116106bd57565b60206040818301928281528451809452019201905f5b818110612e405750505090565b82516001600160a01b0316845260209384019390920191600101612e33565b60609060031901126106bd57600435906024356001600160a01b03811681036106bd57906044356001600160a01b03811681036106bd5790565b346106bd5760203660031901126106bd57602061060a600435613705565b346106bd575f3660031901126106bd576004546040516001600160a01b039091168152602090f35b90600182811c92168015612f0d575b6020831014612ef957565b634e487b7160e01b5f52602260045260245ffd5b91607f1691612eee565b6001600160a01b03165f9081527f52c63247e1f47db19d5ce0460030c497f067ca4cebf71ba98eeadabe20bace016020526040902090565b908160209103126106bd575180151581036106bd5790565b6001600160401b03811161271e5760051b60200190565b600754811015612f965760075f5260205f2001905f90565b634e487b7160e01b5f52603260045260245ffd5b600554811015612f965760055f5260205f2001905f90565b8054821015612f96575f5260205f2001905f90565b8051821015612f965760209160051b010190565b81810292918115918404141715611cdd57565b8115613008570490565b634e487b7160e01b5f52601260045260245ffd5b91908203918211611cdd57565b91908201809211611cdd57565b801561327a57811561327a57600b546001600160a01b031690811561322f57670de0b6b3a76400008102908104670de0b6b3a764000003611cdd578261307b91612ffe565b604051635a57d31b60e01b815290602082600481865afa918215611969575f92613246575b508181111561323e5750915b821561322f576130c5670de0b6b3a76400009184612feb565b04916130d38360025461301c565b6002556130e283600d54613029565b600d5560095460405163092cd6d160e11b815290602090829060049082906001600160a01b03165afa908115611969575f916131ed575b506001600160a01b03169081156131b257823b156106bd57604051639bd70f5d60e01b81526001600160a01b039290921660048301526024820152905f908290604490829084905af18015611969576131a2575b50604080518281523360208201527fa4bdbc51862db9e662e821898b98925ca7245a16f31ec0726e0f315095379a459190a190565b5f6131ac91612db4565b5f61316d565b60405162461bcd60e51b815260206004820152601360248201527214d95b9a5bdc881a1bdbdac81b9bdd081cd95d606a1b6044820152606490fd5b90506020813d602011613227575b8161320860209383612db4565b810103126106bd57516001600160a01b03811681036106bd575f613119565b3d91506131fb565b631f4ddf4560e31b5f5260045ffd5b9050916130ac565b9091506020813d602011613272575b8161326260209383612db4565b810103126106bd5751905f6130a0565b3d9150613255565b50505f90565b80156132ea576004805460095460405163a9059cbb60e01b81526001600160a01b039182169381019390935260248301939093529091602091839160449183915f91165af18015611969576132d25750565b6132ea9060203d60201161156d576115608183612db4565b50565b80156132ea5761334c816133247fdffae7b91cc2eb92e80bdd37fe8a23391bf507cbbbef4000603470177acb049793600254613029565b60025561333381600c54613029565b600c556040805191825233602083015290918291820190565b0390a1565b6005548015613370575f190161336b6112b0826005612fc2565b600555565b634e487b7160e01b5f52603160045260245ffd5b6001600160a01b03165f9081525f516020613d125f395f51905f52602052604090205490565b600e54801561340357600254818103905f831281831281169082841390151617611cdd5782670de0b6b3a76400008302928305670de0b6b3a76400001491141715611cdd57600160ff1b81145f19831416611cdd570590565b505f90565b908060209392818452848401375f828201840152601f01601f1916010190565b9290936134569261347498969795855260018060a01b0316602085015260a0604085015260a0840191613408565b6001600160a01b039094166060820152808403608090910152613408565b90565b3d156134a1573d9061348882612dd5565b916134966040519384612db4565b82523d5f602084013e565b606090565b60055490600160401b82101561271e576105198260016134cb94016005556005612fc2565b565b6001600160a01b03165f9081525f516020613d125f395f51905f5260205260409020546134749061369c565b905f81126135205761271001908161271011611cdd576127109161351c91612feb565b0490565b600160ff1b8114611cdd57612710815f0310156135525761271001906127108211611cdd576127109161351c91612feb565b631a93c68960e11b5f5260045ffd5b7f83a4950c7a9416b9fae06bd7a47c3263cfbef906d5f593d95ce312fd6eb15e5a91604091600e556135916133aa565b82519182526020820152a1565b9091906001600160a01b0316801561365457805f525f516020613d125f395f51905f5260205260405f205483811061363a576020845f94957fddf252ad1be2c89b69c2b068fc378daa952ba7f163c4a11628f55a4df523b3ef938587525f516020613d125f395f51905f528452036040862055805f516020613d525f395f51905f5254035f516020613d525f395f51905f5255604051908152a3565b915063391434e360e21b5f5260045260245260445260645ffd5b634b637e8f60e11b5f525f60045260245ffd5b6002549060018201809211611cdd575f516020613d525f395f51905f525460018101809111611cdd5761347492600192613980565b6002549060018201809211611cdd575f516020613d525f395f51905f525460018101809111611cdd57613474925f92613980565b5f516020613d525f395f51905f52549060018201809211611cdd5760025460018101809111611cdd5761347492600192613980565b5f516020613d525f395f51905f52549060018201809211611cdd5760025460018101809111611cdd57613474925f92613980565b919061374483612f17565b60018060a01b0382165f5260205260405f2054925f198403613767575b50505050565b8284106137b4576001600160a01b03811615612acd576001600160a01b03821615612aba5761379590612f17565b9060018060a01b03165f5260205260405f20910390555f808080613761565b508290637dc7a0d960e11b5f5260018060a01b031660045260245260445260645ffd5b6001600160a01b0316908115613654576001600160a01b031691821561389557815f525f516020613d125f395f51905f5260205260405f205481811061387c57817fddf252ad1be2c89b69c2b068fc378daa952ba7f163c4a11628f55a4df523b3ef92602092855f525f516020613d125f395f51905f5284520360405f2055845f525f516020613d125f395f51905f52825260405f20818154019055604051908152a3565b8263391434e360e21b5f5260045260245260445260645ffd5b63ec442f0560e01b5f525f60045260245ffd5b60405163a9059cbb60e01b60208201526001600160a01b039290921660248301526044808301939093529181526134cb91610c7a606483612db4565b6001600160a01b0380841695908216937ffbde797d201c681b91056529119e0b02407c7bb96a4a2c75c01fc9667232c8db9360409390929161393391839190828b8a0361396f575b505061359e565b5f516020613d925f395f51905f525461395890879084906001600160a01b03166138a8565b825195865260208601526001600160a01b031693a4565b6139799183613739565b5f8261392c565b919061398d828285613b80565b9360048110156139d15760018091161492836139bc575b5050506139ae5790565b60018101809111611cdd5790565b909180935015613008570915155f80806139a4565b634e487b7160e01b5f52602160045260245ffd5b60ff5f516020613db25f395f51905f525460401c1615613a0157565b631afcd79f60e31b5f5260045ffd5b5f516020613d925f395f51905f52546040516323b872dd60e01b60208201526001600160a01b039283166024820181905230604483015260648083018790528252949392613a649216610c7a608483612db4565b6001600160a01b0316928315613895577fdcbc1c05240f31ff3ad067ef1ee35ce4997762752e3a095284754544f4c709d79181613ab16040935f516020613d525f395f51905f5254613029565b5f516020613d525f395f51905f5255855f525f516020613d125f395f51905f52602052825f20818154019055855f7fddf252ad1be2c89b69c2b068fc378daa952ba7f163c4a11628f55a4df523b3ef60208651858152a382519182526020820152a3565b5f80613b3d9260018060a01b03169360208151910182865af1613b36613477565b9083613c14565b8051908115159182613b65575b5050613b535750565b635274afe760e01b5f5260045260245ffd5b613b789250602080918301019101612f4f565b155f80613b4a565b9091828202915f1984820993838086109503948086039514613c075784831115613bf857829109815f0382168092046002816003021880820260020302808202600203028082026002030280820260020302808202600203028091026002030293600183805f03040190848311900302920304170290565b63227bc15360e01b5f5260045ffd5b5050906134749250612ffe565b90613c385750805115613c2957805190602001fd5b630a12f52160e11b5f5260045ffd5b81511580613c69575b613c49575090565b639996b31560e01b5f9081526001600160a01b0391909116600452602490fd5b50803b15613c41565b5f8091604051602081019063313ce56760e01b825260048152613c96602482612db4565b51916001600160a01b03165afa613cab613477565b9080613ce5575b613cbe575b505f905f90565b602081519181808201938492010103126106bd575160ff8111613cb7579060ff6001921690565b50602081511015613cb256fe52c63247e1f47db19d5ce0460030c497f067ca4cebf71ba98eeadabe20bace0352c63247e1f47db19d5ce0460030c497f067ca4cebf71ba98eeadabe20bace0052c63247e1f47db19d5ce0460030c497f067ca4cebf71ba98eeadabe20bace0452c63247e1f47db19d5ce0460030c497f067ca4cebf71ba98eeadabe20bace02360894a13ba1a3210667c828492db98dca3e2076cc3735a920a3ca505d382bbc0773e532dfede91f04b12a73d3d2acd361424f41f76b4fb79f090161e36b4e00f0c57e16840df040f15088dc2f81fe391c3923bec73e23a9662efc9c229c6a00a2646970667358221220c5a5aaace3d5af356b8db7c7ea4cb9521431fbf6bfc1c95e247dbc8b02ceffad64736f6c634300081e0033f0c57e16840df040f15088dc2f81fe391c3923bec73e23a9662efc9c229c6a00","linkReferences":{}},"methodIdentifiers":{"UPGRADE_INTERFACE_VERSION()":"ad3cb1cc","addWhitelistedDepositor(address)":"c7aa7201","addWhitelistedLP(address)":"cfe8b3e3","addWhitelistedLPToken(address)":"dd95a14d","admin()":"f851a440","adminBurn(address,uint256)":"06dd0419","allowance(address,address)":"dd62ed3e","approve(address,uint256)":"095ea7b3","asset()":"38d52e0f","backstopCapacity()":"e7d5a1ed","balanceOf(address)":"70a08231","burn(uint256)":"42966c68","burnFrom(address,uint256)":"79cc6790","canProvideBackstop(uint256)":"62766108","convertToAssets(uint256)":"07a2d13a","convertToShares(uint256)":"c6e6f592","currentAPY()":"9a79d32b","decimals()":"313ce567","deployToKodiak(uint256,uint256,address,bytes,address,bytes)":"beec98c0","deployer()":"d5f39488","deposit(uint256,address)":"6e553f65","depositToken()":"c89039c5","effectiveMonthlyReturn()":"7f401328","getLPBalance(address)":"d2258beb","getLPHoldings()":"2fe2388a","getWhitelistedLPTokens()":"ae90fa57","getWhitelistedLPs()":"9d33919b","initialize(address,address,uint256)":"1794bb3c","investInLP(address,uint256)":"113ba777","isAdmin(address)":"24d7806c","isWhitelistedDepositor(address)":"226ac791","isWhitelistedLP(address)":"c2d4f8c0","isWhitelistedLPToken(address)":"2727c94d","kodiakHook()":"1259ada2","lastUpdateTime()":"c8f33c91","maxDeposit(address)":"402d267d","maxMint(address)":"c63d75b6","maxRedeem(address)":"d905777e","maxWithdraw(address)":"ce96cb77","mint(uint256,address)":"94bf804d","name()":"06fdde03","previewDeposit(uint256)":"ef8b30f7","previewMint(uint256)":"b3d7f6b9","previewRedeem(uint256)":"4cdad506","previewWithdraw(uint256)":"0a28a477","provideBackstop(uint256,uint256)":"32f92acd","proxiableUUID()":"52d1902d","receiveSpillover(uint256)":"45c05477","redeem(uint256,address,address)":"ba087652","removeWhitelistedDepositor(address)":"c7d1e7ef","removeWhitelistedLP(address)":"6cfa3bd4","removeWhitelistedLPToken(address)":"a58e3389","seniorVault()":"73884aee","setAdmin(address)":"704b6c02","setKodiakHook(address)":"c07056bc","setSeniorVault(address)":"fd625621","setVaultValue(uint256)":"cba04a68","stablecoin()":"e9cbd822","sweepToKodiak(uint256,address,bytes,address,bytes)":"92f2ed1f","symbol()":"95d89b41","totalAssets()":"01e1d114","totalBackstopProvided()":"9afd98d2","totalSpilloverReceived()":"f51a747c","totalSupply()":"18160ddd","transfer(address,uint256)":"a9059cbb","transferAdmin(address)":"75829def","transferFrom(address,address,uint256)":"23b872dd","transferToSenior(uint256)":"38c73738","updateSeniorVault(address)":"f7211f07","updateVaultValue(int256)":"049a4240","upgradeToAndCall(address,bytes)":"4f1ef286","vaultValue()":"8c21c9e1","withdraw(uint256,address,address)":"b460af94","withdrawLPTokens(address,address,uint256)":"98c1b700"},"id":65}