{"abi":[{"type":"constructor","inputs":[],"stateMutability":"nonpayable"},{"type":"function","name":"UPGRADE_INTERFACE_VERSION","inputs":[],"outputs":[{"name":"","type":"string","internalType":"string"}],"stateMutability":"view"},{"type":"function","name":"addWhitelistedDepositor","inputs":[{"name":"depositor","type":"address","internalType":"address"}],"outputs":[],"stateMutability":"nonpayable"},{"type":"function","name":"addWhitelistedLP","inputs":[{"name":"lp","type":"address","internalType":"address"}],"outputs":[],"stateMutability":"nonpayable"},{"type":"function","name":"addWhitelistedLPToken","inputs":[{"name":"lpToken","type":"address","internalType":"address"}],"outputs":[],"stateMutability":"nonpayable"},{"type":"function","name":"admin","inputs":[],"outputs":[{"name":"","type":"address","internalType":"address"}],"stateMutability":"view"},{"type":"function","name":"adminBurn","inputs":[{"name":"account","type":"address","internalType":"address"},{"name":"amount","type":"uint256","internalType":"uint256"}],"outputs":[],"stateMutability":"nonpayable"},{"type":"function","name":"allowance","inputs":[{"name":"owner","type":"address","internalType":"address"},{"name":"spender","type":"address","internalType":"address"}],"outputs":[{"name":"","type":"uint256","internalType":"uint256"}],"stateMutability":"view"},{"type":"function","name":"approve","inputs":[{"name":"spender","type":"address","internalType":"address"},{"name":"value","type":"uint256","internalType":"uint256"}],"outputs":[{"name":"","type":"bool","internalType":"bool"}],"stateMutability":"nonpayable"},{"type":"function","name":"asset","inputs":[],"outputs":[{"name":"","type":"address","internalType":"address"}],"stateMutability":"view"},{"type":"function","name":"backstopCapacity","inputs":[],"outputs":[{"name":"","type":"uint256","internalType":"uint256"}],"stateMutability":"view"},{"type":"function","name":"balanceOf","inputs":[{"name":"account","type":"address","internalType":"address"}],"outputs":[{"name":"","type":"uint256","internalType":"uint256"}],"stateMutability":"view"},{"type":"function","name":"burn","inputs":[{"name":"amount","type":"uint256","internalType":"uint256"}],"outputs":[],"stateMutability":"nonpayable"},{"type":"function","name":"burnFrom","inputs":[{"name":"account","type":"address","internalType":"address"},{"name":"amount","type":"uint256","internalType":"uint256"}],"outputs":[],"stateMutability":"nonpayable"},{"type":"function","name":"canProvideFullBackstop","inputs":[{"name":"amount","type":"uint256","internalType":"uint256"}],"outputs":[{"name":"","type":"bool","internalType":"bool"}],"stateMutability":"view"},{"type":"function","name":"convertToAssets","inputs":[{"name":"shares","type":"uint256","internalType":"uint256"}],"outputs":[{"name":"","type":"uint256","internalType":"uint256"}],"stateMutability":"view"},{"type":"function","name":"convertToShares","inputs":[{"name":"assets","type":"uint256","internalType":"uint256"}],"outputs":[{"name":"","type":"uint256","internalType":"uint256"}],"stateMutability":"view"},{"type":"function","name":"currentDepositCap","inputs":[],"outputs":[{"name":"","type":"uint256","internalType":"uint256"}],"stateMutability":"view"},{"type":"function","name":"decimals","inputs":[],"outputs":[{"name":"","type":"uint8","internalType":"uint8"}],"stateMutability":"view"},{"type":"function","name":"deployToKodiak","inputs":[{"name":"amount","type":"uint256","internalType":"uint256"},{"name":"minLPTokens","type":"uint256","internalType":"uint256"},{"name":"swapToToken0Aggregator","type":"address","internalType":"address"},{"name":"swapToToken0Data","type":"bytes","internalType":"bytes"},{"name":"swapToToken1Aggregator","type":"address","internalType":"address"},{"name":"swapToToken1Data","type":"bytes","internalType":"bytes"}],"outputs":[],"stateMutability":"nonpayable"},{"type":"function","name":"deployer","inputs":[],"outputs":[{"name":"","type":"address","internalType":"address"}],"stateMutability":"view"},{"type":"function","name":"deposit","inputs":[{"name":"assets","type":"uint256","internalType":"uint256"},{"name":"receiver","type":"address","internalType":"address"}],"outputs":[{"name":"shares","type":"uint256","internalType":"uint256"}],"stateMutability":"nonpayable"},{"type":"function","name":"depositToken","inputs":[],"outputs":[{"name":"","type":"address","internalType":"contract IERC20"}],"stateMutability":"view"},{"type":"function","name":"effectiveMonthlyReturn","inputs":[],"outputs":[{"name":"","type":"int256","internalType":"int256"}],"stateMutability":"view"},{"type":"function","name":"getLPBalance","inputs":[{"name":"lpToken","type":"address","internalType":"address"}],"outputs":[{"name":"","type":"uint256","internalType":"uint256"}],"stateMutability":"view"},{"type":"function","name":"getLPHoldings","inputs":[],"outputs":[{"name":"holdings","type":"tuple[]","internalType":"struct BaseVault.LPHolding[]","components":[{"name":"lpToken","type":"address","internalType":"address"},{"name":"amount","type":"uint256","internalType":"uint256"}]}],"stateMutability":"view"},{"type":"function","name":"getWhitelistedLPTokens","inputs":[],"outputs":[{"name":"","type":"address[]","internalType":"address[]"}],"stateMutability":"view"},{"type":"function","name":"getWhitelistedLPs","inputs":[],"outputs":[{"name":"","type":"address[]","internalType":"address[]"}],"stateMutability":"view"},{"type":"function","name":"initialize","inputs":[{"name":"stablecoin_","type":"address","internalType":"address"},{"name":"seniorVault_","type":"address","internalType":"address"},{"name":"initialValue_","type":"uint256","internalType":"uint256"}],"outputs":[],"stateMutability":"nonpayable"},{"type":"function","name":"investInLP","inputs":[{"name":"lp","type":"address","internalType":"address"},{"name":"amount","type":"uint256","internalType":"uint256"}],"outputs":[],"stateMutability":"nonpayable"},{"type":"function","name":"isAdmin","inputs":[{"name":"account","type":"address","internalType":"address"}],"outputs":[{"name":"","type":"bool","internalType":"bool"}],"stateMutability":"view"},{"type":"function","name":"isDepleted","inputs":[],"outputs":[{"name":"","type":"bool","internalType":"bool"}],"stateMutability":"view"},{"type":"function","name":"isWhitelistedDepositor","inputs":[{"name":"depositor","type":"address","internalType":"address"}],"outputs":[{"name":"","type":"bool","internalType":"bool"}],"stateMutability":"view"},{"type":"function","name":"isWhitelistedLP","inputs":[{"name":"lp","type":"address","internalType":"address"}],"outputs":[{"name":"","type":"bool","internalType":"bool"}],"stateMutability":"view"},{"type":"function","name":"isWhitelistedLPToken","inputs":[{"name":"lpToken","type":"address","internalType":"address"}],"outputs":[{"name":"","type":"bool","internalType":"bool"}],"stateMutability":"view"},{"type":"function","name":"kodiakHook","inputs":[],"outputs":[{"name":"","type":"address","internalType":"contract IKodiakVaultHook"}],"stateMutability":"view"},{"type":"function","name":"lastUpdateTime","inputs":[],"outputs":[{"name":"","type":"uint256","internalType":"uint256"}],"stateMutability":"view"},{"type":"function","name":"maxDeposit","inputs":[{"name":"","type":"address","internalType":"address"}],"outputs":[{"name":"","type":"uint256","internalType":"uint256"}],"stateMutability":"view"},{"type":"function","name":"maxMint","inputs":[{"name":"","type":"address","internalType":"address"}],"outputs":[{"name":"","type":"uint256","internalType":"uint256"}],"stateMutability":"view"},{"type":"function","name":"maxRedeem","inputs":[{"name":"owner","type":"address","internalType":"address"}],"outputs":[{"name":"","type":"uint256","internalType":"uint256"}],"stateMutability":"view"},{"type":"function","name":"maxWithdraw","inputs":[{"name":"owner","type":"address","internalType":"address"}],"outputs":[{"name":"","type":"uint256","internalType":"uint256"}],"stateMutability":"view"},{"type":"function","name":"mint","inputs":[{"name":"shares","type":"uint256","internalType":"uint256"},{"name":"receiver","type":"address","internalType":"address"}],"outputs":[{"name":"assets","type":"uint256","internalType":"uint256"}],"stateMutability":"nonpayable"},{"type":"function","name":"name","inputs":[],"outputs":[{"name":"","type":"string","internalType":"string"}],"stateMutability":"view"},{"type":"function","name":"previewDeposit","inputs":[{"name":"assets","type":"uint256","internalType":"uint256"}],"outputs":[{"name":"","type":"uint256","internalType":"uint256"}],"stateMutability":"view"},{"type":"function","name":"previewMint","inputs":[{"name":"shares","type":"uint256","internalType":"uint256"}],"outputs":[{"name":"","type":"uint256","internalType":"uint256"}],"stateMutability":"view"},{"type":"function","name":"previewRedeem","inputs":[{"name":"shares","type":"uint256","internalType":"uint256"}],"outputs":[{"name":"","type":"uint256","internalType":"uint256"}],"stateMutability":"view"},{"type":"function","name":"previewWithdraw","inputs":[{"name":"assets","type":"uint256","internalType":"uint256"}],"outputs":[{"name":"","type":"uint256","internalType":"uint256"}],"stateMutability":"view"},{"type":"function","name":"provideBackstop","inputs":[{"name":"amountUSD","type":"uint256","internalType":"uint256"},{"name":"lpPrice","type":"uint256","internalType":"uint256"}],"outputs":[{"name":"actualAmount","type":"uint256","internalType":"uint256"}],"stateMutability":"nonpayable"},{"type":"function","name":"proxiableUUID","inputs":[],"outputs":[{"name":"","type":"bytes32","internalType":"bytes32"}],"stateMutability":"view"},{"type":"function","name":"receiveSpillover","inputs":[{"name":"amount","type":"uint256","internalType":"uint256"}],"outputs":[],"stateMutability":"nonpayable"},{"type":"function","name":"redeem","inputs":[{"name":"shares","type":"uint256","internalType":"uint256"},{"name":"receiver","type":"address","internalType":"address"},{"name":"owner","type":"address","internalType":"address"}],"outputs":[{"name":"","type":"uint256","internalType":"uint256"}],"stateMutability":"nonpayable"},{"type":"function","name":"removeWhitelistedDepositor","inputs":[{"name":"depositor","type":"address","internalType":"address"}],"outputs":[],"stateMutability":"nonpayable"},{"type":"function","name":"removeWhitelistedLP","inputs":[{"name":"lp","type":"address","internalType":"address"}],"outputs":[],"stateMutability":"nonpayable"},{"type":"function","name":"removeWhitelistedLPToken","inputs":[{"name":"lpToken","type":"address","internalType":"address"}],"outputs":[],"stateMutability":"nonpayable"},{"type":"function","name":"seniorVault","inputs":[],"outputs":[{"name":"","type":"address","internalType":"address"}],"stateMutability":"view"},{"type":"function","name":"setAdmin","inputs":[{"name":"admin_","type":"address","internalType":"address"}],"outputs":[],"stateMutability":"nonpayable"},{"type":"function","name":"setKodiakHook","inputs":[{"name":"hook","type":"address","internalType":"address"}],"outputs":[],"stateMutability":"nonpayable"},{"type":"function","name":"setSeniorVault","inputs":[{"name":"seniorVault_","type":"address","internalType":"address"}],"outputs":[],"stateMutability":"nonpayable"},{"type":"function","name":"setVaultValue","inputs":[{"name":"newValue","type":"uint256","internalType":"uint256"}],"outputs":[],"stateMutability":"nonpayable"},{"type":"function","name":"stablecoin","inputs":[],"outputs":[{"name":"","type":"address","internalType":"contract IERC20"}],"stateMutability":"view"},{"type":"function","name":"sweepToKodiak","inputs":[{"name":"minLPTokens","type":"uint256","internalType":"uint256"},{"name":"swapToToken0Aggregator","type":"address","internalType":"address"},{"name":"swapToToken0Data","type":"bytes","internalType":"bytes"},{"name":"swapToToken1Aggregator","type":"address","internalType":"address"},{"name":"swapToToken1Data","type":"bytes","internalType":"bytes"}],"outputs":[],"stateMutability":"nonpayable"},{"type":"function","name":"symbol","inputs":[],"outputs":[{"name":"","type":"string","internalType":"string"}],"stateMutability":"view"},{"type":"function","name":"totalAssets","inputs":[],"outputs":[{"name":"","type":"uint256","internalType":"uint256"}],"stateMutability":"view"},{"type":"function","name":"totalBackstopProvided","inputs":[],"outputs":[{"name":"","type":"uint256","internalType":"uint256"}],"stateMutability":"view"},{"type":"function","name":"totalSpilloverReceived","inputs":[],"outputs":[{"name":"","type":"uint256","internalType":"uint256"}],"stateMutability":"view"},{"type":"function","name":"totalSupply","inputs":[],"outputs":[{"name":"","type":"uint256","internalType":"uint256"}],"stateMutability":"view"},{"type":"function","name":"transfer","inputs":[{"name":"to","type":"address","internalType":"address"},{"name":"value","type":"uint256","internalType":"uint256"}],"outputs":[{"name":"","type":"bool","internalType":"bool"}],"stateMutability":"nonpayable"},{"type":"function","name":"transferAdmin","inputs":[{"name":"newAdmin","type":"address","internalType":"address"}],"outputs":[],"stateMutability":"nonpayable"},{"type":"function","name":"transferFrom","inputs":[{"name":"from","type":"address","internalType":"address"},{"name":"to","type":"address","internalType":"address"},{"name":"value","type":"uint256","internalType":"uint256"}],"outputs":[{"name":"","type":"bool","internalType":"bool"}],"stateMutability":"nonpayable"},{"type":"function","name":"transferToSenior","inputs":[{"name":"amount","type":"uint256","internalType":"uint256"}],"outputs":[],"stateMutability":"nonpayable"},{"type":"function","name":"updateSeniorVault","inputs":[{"name":"seniorVault_","type":"address","internalType":"address"}],"outputs":[],"stateMutability":"nonpayable"},{"type":"function","name":"updateVaultValue","inputs":[{"name":"profitBps","type":"int256","internalType":"int256"}],"outputs":[],"stateMutability":"nonpayable"},{"type":"function","name":"upgradeToAndCall","inputs":[{"name":"newImplementation","type":"address","internalType":"address"},{"name":"data","type":"bytes","internalType":"bytes"}],"outputs":[],"stateMutability":"payable"},{"type":"function","name":"utilizationRate","inputs":[],"outputs":[{"name":"","type":"uint256","internalType":"uint256"}],"stateMutability":"view"},{"type":"function","name":"vaultValue","inputs":[],"outputs":[{"name":"value","type":"uint256","internalType":"uint256"}],"stateMutability":"view"},{"type":"function","name":"withdraw","inputs":[{"name":"assets","type":"uint256","internalType":"uint256"},{"name":"receiver","type":"address","internalType":"address"},{"name":"owner","type":"address","internalType":"address"}],"outputs":[{"name":"","type":"uint256","internalType":"uint256"}],"stateMutability":"nonpayable"},{"type":"function","name":"withdrawLPTokens","inputs":[{"name":"lpToken","type":"address","internalType":"address"},{"name":"lp","type":"address","internalType":"address"},{"name":"amount","type":"uint256","internalType":"uint256"}],"outputs":[],"stateMutability":"nonpayable"},{"type":"event","name":"AdminSet","inputs":[{"name":"previousAdmin","type":"address","indexed":true,"internalType":"address"},{"name":"newAdmin","type":"address","indexed":true,"internalType":"address"}],"anonymous":false},{"type":"event","name":"AdminTransferred","inputs":[{"name":"previousAdmin","type":"address","indexed":true,"internalType":"address"},{"name":"newAdmin","type":"address","indexed":true,"internalType":"address"}],"anonymous":false},{"type":"event","name":"Approval","inputs":[{"name":"owner","type":"address","indexed":true,"internalType":"address"},{"name":"spender","type":"address","indexed":true,"internalType":"address"},{"name":"value","type":"uint256","indexed":false,"internalType":"uint256"}],"anonymous":false},{"type":"event","name":"BackstopProvided","inputs":[{"name":"amount","type":"uint256","indexed":false,"internalType":"uint256"},{"name":"toSenior","type":"address","indexed":false,"internalType":"address"}],"anonymous":false},{"type":"event","name":"Deposit","inputs":[{"name":"sender","type":"address","indexed":true,"internalType":"address"},{"name":"owner","type":"address","indexed":true,"internalType":"address"},{"name":"assets","type":"uint256","indexed":false,"internalType":"uint256"},{"name":"shares","type":"uint256","indexed":false,"internalType":"uint256"}],"anonymous":false},{"type":"event","name":"Deposit","inputs":[{"name":"user","type":"address","indexed":true,"internalType":"address"},{"name":"assets","type":"uint256","indexed":false,"internalType":"uint256"},{"name":"shares","type":"uint256","indexed":false,"internalType":"uint256"}],"anonymous":false},{"type":"event","name":"DepositCapUpdated","inputs":[{"name":"oldCap","type":"uint256","indexed":false,"internalType":"uint256"},{"name":"newCap","type":"uint256","indexed":false,"internalType":"uint256"}],"anonymous":false},{"type":"event","name":"DepositorRemoved","inputs":[{"name":"depositor","type":"address","indexed":true,"internalType":"address"}],"anonymous":false},{"type":"event","name":"DepositorWhitelisted","inputs":[{"name":"depositor","type":"address","indexed":true,"internalType":"address"}],"anonymous":false},{"type":"event","name":"FeesCollected","inputs":[{"name":"managementFee","type":"uint256","indexed":false,"internalType":"uint256"},{"name":"performanceFee","type":"uint256","indexed":false,"internalType":"uint256"}],"anonymous":false},{"type":"event","name":"Initialized","inputs":[{"name":"version","type":"uint64","indexed":false,"internalType":"uint64"}],"anonymous":false},{"type":"event","name":"KodiakDeployment","inputs":[{"name":"amount","type":"uint256","indexed":false,"internalType":"uint256"},{"name":"lpReceived","type":"uint256","indexed":false,"internalType":"uint256"},{"name":"timestamp","type":"uint256","indexed":false,"internalType":"uint256"}],"anonymous":false},{"type":"event","name":"LPInvestment","inputs":[{"name":"lp","type":"address","indexed":true,"internalType":"address"},{"name":"amount","type":"uint256","indexed":false,"internalType":"uint256"}],"anonymous":false},{"type":"event","name":"LPTokensWithdrawn","inputs":[{"name":"lpToken","type":"address","indexed":true,"internalType":"address"},{"name":"lp","type":"address","indexed":true,"internalType":"address"},{"name":"amount","type":"uint256","indexed":false,"internalType":"uint256"}],"anonymous":false},{"type":"event","name":"ReserveBelowThreshold","inputs":[],"anonymous":false},{"type":"event","name":"ReserveRebaseExecuted","inputs":[{"name":"newValue","type":"uint256","indexed":false,"internalType":"uint256"},{"name":"effectiveReturn","type":"int256","indexed":false,"internalType":"int256"}],"anonymous":false},{"type":"event","name":"SpilloverReceived","inputs":[{"name":"amount","type":"uint256","indexed":false,"internalType":"uint256"},{"name":"fromSenior","type":"address","indexed":false,"internalType":"address"}],"anonymous":false},{"type":"event","name":"Transfer","inputs":[{"name":"from","type":"address","indexed":true,"internalType":"address"},{"name":"to","type":"address","indexed":true,"internalType":"address"},{"name":"value","type":"uint256","indexed":false,"internalType":"uint256"}],"anonymous":false},{"type":"event","name":"Upgraded","inputs":[{"name":"implementation","type":"address","indexed":true,"internalType":"address"}],"anonymous":false},{"type":"event","name":"VaultValueUpdated","inputs":[{"name":"oldValue","type":"uint256","indexed":false,"internalType":"uint256"},{"name":"newValue","type":"uint256","indexed":false,"internalType":"uint256"},{"name":"profitBps","type":"int256","indexed":false,"internalType":"int256"}],"anonymous":false},{"type":"event","name":"WhitelistedLPAdded","inputs":[{"name":"lp","type":"address","indexed":true,"internalType":"address"}],"anonymous":false},{"type":"event","name":"WhitelistedLPRemoved","inputs":[{"name":"lp","type":"address","indexed":true,"internalType":"address"}],"anonymous":false},{"type":"event","name":"WhitelistedLPTokenAdded","inputs":[{"name":"lpToken","type":"address","indexed":true,"internalType":"address"}],"anonymous":false},{"type":"event","name":"WhitelistedLPTokenRemoved","inputs":[{"name":"lpToken","type":"address","indexed":true,"internalType":"address"}],"anonymous":false},{"type":"event","name":"Withdraw","inputs":[{"name":"sender","type":"address","indexed":true,"internalType":"address"},{"name":"receiver","type":"address","indexed":true,"internalType":"address"},{"name":"owner","type":"address","indexed":true,"internalType":"address"},{"name":"assets","type":"uint256","indexed":false,"internalType":"uint256"},{"name":"shares","type":"uint256","indexed":false,"internalType":"uint256"}],"anonymous":false},{"type":"event","name":"Withdraw","inputs":[{"name":"user","type":"address","indexed":true,"internalType":"address"},{"name":"assets","type":"uint256","indexed":false,"internalType":"uint256"},{"name":"shares","type":"uint256","indexed":false,"internalType":"uint256"}],"anonymous":false},{"type":"error","name":"AddressEmptyCode","inputs":[{"name":"target","type":"address","internalType":"address"}]},{"type":"error","name":"AddressInsufficientBalance","inputs":[{"name":"account","type":"address","internalType":"address"}]},{"type":"error","name":"AdminAlreadySet","inputs":[]},{"type":"error","name":"DepositCapExceeded","inputs":[]},{"type":"error","name":"ERC1967InvalidImplementation","inputs":[{"name":"implementation","type":"address","internalType":"address"}]},{"type":"error","name":"ERC1967NonPayable","inputs":[]},{"type":"error","name":"ERC20InsufficientAllowance","inputs":[{"name":"spender","type":"address","internalType":"address"},{"name":"allowance","type":"uint256","internalType":"uint256"},{"name":"needed","type":"uint256","internalType":"uint256"}]},{"type":"error","name":"ERC20InsufficientBalance","inputs":[{"name":"sender","type":"address","internalType":"address"},{"name":"balance","type":"uint256","internalType":"uint256"},{"name":"needed","type":"uint256","internalType":"uint256"}]},{"type":"error","name":"ERC20InvalidApprover","inputs":[{"name":"approver","type":"address","internalType":"address"}]},{"type":"error","name":"ERC20InvalidReceiver","inputs":[{"name":"receiver","type":"address","internalType":"address"}]},{"type":"error","name":"ERC20InvalidSender","inputs":[{"name":"sender","type":"address","internalType":"address"}]},{"type":"error","name":"ERC20InvalidSpender","inputs":[{"name":"spender","type":"address","internalType":"address"}]},{"type":"error","name":"ERC4626ExceededMaxDeposit","inputs":[{"name":"receiver","type":"address","internalType":"address"},{"name":"assets","type":"uint256","internalType":"uint256"},{"name":"max","type":"uint256","internalType":"uint256"}]},{"type":"error","name":"ERC4626ExceededMaxMint","inputs":[{"name":"receiver","type":"address","internalType":"address"},{"name":"shares","type":"uint256","internalType":"uint256"},{"name":"max","type":"uint256","internalType":"uint256"}]},{"type":"error","name":"ERC4626ExceededMaxRedeem","inputs":[{"name":"owner","type":"address","internalType":"address"},{"name":"shares","type":"uint256","internalType":"uint256"},{"name":"max","type":"uint256","internalType":"uint256"}]},{"type":"error","name":"ERC4626ExceededMaxWithdraw","inputs":[{"name":"owner","type":"address","internalType":"address"},{"name":"assets","type":"uint256","internalType":"uint256"},{"name":"max","type":"uint256","internalType":"uint256"}]},{"type":"error","name":"FailedInnerCall","inputs":[]},{"type":"error","name":"InsufficientBackstopFunds","inputs":[]},{"type":"error","name":"InsufficientBalance","inputs":[]},{"type":"error","name":"InvalidAmount","inputs":[]},{"type":"error","name":"InvalidInitialization","inputs":[]},{"type":"error","name":"InvalidProfitRange","inputs":[]},{"type":"error","name":"KodiakHookNotSet","inputs":[]},{"type":"error","name":"LPAlreadyWhitelisted","inputs":[]},{"type":"error","name":"MathOverflowedMulDiv","inputs":[]},{"type":"error","name":"NotInitializing","inputs":[]},{"type":"error","name":"OnlyAdmin","inputs":[]},{"type":"error","name":"OnlyDeployer","inputs":[]},{"type":"error","name":"OnlySeniorVault","inputs":[]},{"type":"error","name":"OnlyWhitelistedDepositor","inputs":[]},{"type":"error","name":"Overflow","inputs":[]},{"type":"error","name":"ReserveDepleted","inputs":[]},{"type":"error","name":"SafeERC20FailedOperation","inputs":[{"name":"token","type":"address","internalType":"address"}]},{"type":"error","name":"SeniorVaultAlreadySet","inputs":[]},{"type":"error","name":"SlippageTooHigh","inputs":[]},{"type":"error","name":"UUPSUnauthorizedCallContext","inputs":[]},{"type":"error","name":"UUPSUnsupportedProxiableUUID","inputs":[{"name":"slot","type":"bytes32","internalType":"bytes32"}]},{"type":"error","name":"Unauthorized","inputs":[]},{"type":"error","name":"WhitelistedLPNotFound","inputs":[]},{"type":"error","name":"WrongVault","inputs":[]},{"type":"error","name":"ZeroAddress","inputs":[]}],"bytecode":{"object":"0x60a080604052346100c257306080525f5160206140735f395f51905f525460ff8160401c166100b3576002600160401b03196001600160401b03821601610060575b604051613fac90816100c78239608051818181611d400152611e0f0152f35b6001600160401b0319166001600160401b039081175f5160206140735f395f51905f525581527fc7f505b2f371ae2175ee4913f4499e1f2633a7b5936321eed1cdaeb6115181d290602090a15f80610041565b63f92ee8a960e01b5f5260045ffd5b5f80fdfe60806040526004361015610011575f80fd5b5f5f3560e01c806301e1d11414612cd1578063049a424014612c2257806306dd041914612bea57806306fdde0314612b0857806307a2d13a14611fa7578063095ea7b314612a635780630a28a47714612a45578063113ba777146128db57806311a66e40146128b85780631259ada2146128905780631794bb3c1461234157806318160ddd14612318578063226ac791146122db57806323b872dd146122b957806324d7806c146122845780632727c94d146122475780632fe2388a146120d3578063313ce5671461209b57806332f92acd1461206857806338c737381461203a57806338d52e0f14612006578063402d267d146109d457806342966c6814611fe957806345c0547714611fac5780634cdad50614611fa75780634f1ef28614611d9457806352d1902d14611d2e5780636c321c8a14611d145780636cfa3bd414611c065780636e553f6514611bd3578063704b6c0214611b3357806370a0823114611b1557806373884aee14611aed57806375829def14611a6957806379cc679014611a375780637f40132814611a1d5780638c21c9e1146104b457806392f2ed1f1461175557806394bf804d1461172157806395d89b411461162e57806398c1b7001461143a5780639afd98d21461141c5780639d33919b1461139e578063a58e338914611235578063a9059cbb14611203578063ad3cb1cc146111c2578063ae90fa5714611134578063b3d7f6b914611115578063b460af94146110b8578063ba0876521461105b578063beec98c014610d19578063c07056bc14610a18578063c2d4f8c0146109d9578063c63d75b6146109d4578063c6c393cf146109b6578063c6e6f592146104aa578063c7aa72011461093d578063c7d1e7ef146108cd578063c89039c5146104af578063c8f33c91146108af578063cba04a68146107cc578063ce96cb77146107a8578063cfe8b3e314610710578063d14f8369146106eb578063d2258beb1461064f578063d5f3948814610628578063d905777e146105fc578063dd62ed3e146105b4578063dd95a14d146104b9578063e7d5a1ed146104b4578063e9cbd822146104af578063ef8b30f7146104aa578063f51a747c1461048c578063f7211f071461042c578063f851a440146104035763fd6256211461035e575f80fd5b3461040057602036600319011261040057610377612cee565b6001546001600160a01b031633036103f157600954906001600160a01b03821680151590816103e5575b506103d6576001600160a01b03169081156103c7576001600160a01b0319161760095580f35b63d92e233d60e01b8352600483fd5b63fce1946760e01b8352600483fd5b6001915014155f6103a1565b634755657960e01b8252600482fd5b80fd5b50346104005780600319360112610400576001546040516001600160a01b039091168152602090f35b503461040057602036600319011261040057610446612cee565b6001546001600160a01b031633036103f1576001600160a01b0316801561047d576001600160601b0360a01b600954161760095580f35b63d92e233d60e01b8252600482fd5b50346104005780600319360112610400576020600c54604051908152f35b612ec1565b612edf565b612cd1565b5034610400576020366003190112610400576104d3612cee565b6001546001600160a01b031633036103f1576001600160a01b0381169081156103c757818352600860205260ff6040842054166105a557600754600160401b811015610591579061052f82600161055394016007556007612fea565b81546001600160a01b0393841660039290921b91821b9390911b1916919091179055565b808252600860205260408220805460ff191660011790557fc4139bbefb6535b647b0a81e17477c9d9796c9e5a8767a452f308f8d2c960af08280a280f35b634e487b7160e01b84526041600452602484fd5b6308d38e4960e01b8352600483fd5b5034610400576040366003190112610400576105ce612cee565b6105df6105d9612d04565b91612f3f565b9060018060a01b03165f52602052602060405f2054604051908152f35b503461040057602036600319011261040057602061062061061b612cee565b6134e2565b604051908152f35b5034610400578060031936011261040057546040516001600160a01b039091168152602090f35b50346104005760203660031901126104005760249060206001600160a01b03610676612cee565b16604051938480926370a0823160e01b82523060048301525afa9081156106df57906106a8575b602090604051908152f35b506020813d6020116106d7575b816106c260209383612ddc565b810103126106d3576020905161069d565b5f80fd5b3d91506106b5565b604051903d90823e3d90fd5b50346104005780600319360112610400576020610706613654565b6040519015158152f35b50346104005760203660031901126104005761072a612cee565b6001546001600160a01b031633036103f1576001600160a01b0381169081156103c757818352600660205260ff6040842054166105a55761076a90613601565b808252600660205260408220805460ff191660011790557f3ad5f8ec9161a9090daf2327ae998fbee12617c140eacfb348ea916394ab6d0e8280a280f35b50346104005760203660031901126104005760206106206107c7612cee565b613628565b50346104005760203660031901126104005760015460043591906001600160a01b031633036108a0576002549180600255426003558183610856575b6040805185815260208101849052908101919091529192610853927f08e292119eb5d6f28b841651e90566220242a29a2941ab33e2fc73a859e443c49080606081015b0390a16136f0565b80f35b506127108102818104612710148215171561088c578361087591613026565b9261270f19840193841360011661088c5792610808565b634e487b7160e01b83526011600452602483fd5b634755657960e01b8152600490fd5b50346104005780600319360112610400576020600354604051908152f35b5034610400576020366003190112610400576108e7612cee565b6001546001600160a01b031633036103f1576001600160a01b0316808252600a60205260408220805460ff191690557fbc12c224e0d437ba41f0b1d746dea5cb82c6d3808b990d3780eacbd3adcad0eb8280a280f35b503461040057602036600319011261040057610957612cee565b6001546001600160a01b031633036103f1576001600160a01b0316801561047d57808252600a60205260408220805460ff191660011790557f4a31ecf511a8ac8191b59288666a641edc513f28ae651a4eaf1886d980dc02778280a280f35b50346104005780600319360112610400576020610620600254613b0f565b612d9c565b50346104005760203660031901126104005760209060ff906040906001600160a01b03610a04612cee565b168152600684522054166040519015158152f35b503461040057602036600319011261040057610a32612cee565b6001546001600160a01b031633036103f157600b546001600160a01b031680610b6e575b506001600160a01b0381169081610a7f575b506001600160601b0360a01b600b541617600b5580f35b8280604051602081019063fbfa77cf60e01b825260048152610aa2602482612ddc565b5190845afa610aaf6135d2565b81610b60575b81610b2f575b5015610b2057818352600660205260ff604084205416610a6857610ade90613601565b808252600660205260408220805460ff19166001179055807f3ad5f8ec9161a9090daf2327ae998fbee12617c140eacfb348ea916394ab6d0e8380a25f610a68565b637112706560e11b8352600483fd5b9050602081805181010312610b5c57602001516001600160a01b03811690819003610b5c5730145f610abb565b8380fd5b905060208151101590610ab5565b60018060a01b03600454166040519084806020840163095ea7b360e01b815285602486015281604486015260448552610ba8606486612ddc565b84519082855af1610bb76135d2565b81610cea575b5080610ce0575b15610c9b575b5050600b546001600160a01b03168084526006602052604084205490915060ff1615610a565790825b60055480821015610c935783610c0883612fd2565b905460039190911b1c6001600160a01b031614610c285750600101610bf3565b9192915f198101908111610c7f579061052f610c46610c5e93612fd2565b905460039190911b1c6001600160a01b031691612fd2565b610c666134af565b8252600660205260408220805460ff191690555f610a56565b634e487b7160e01b85526011600452602485fd5b505090610c66565b610cd3610cd8936040519063095ea7b360e01b6020830152602482015286604482015260448152610ccd606482612ddc565b82613cba565b613cba565b5f8080610bca565b50803b1515610bc4565b8051801592508215610cff575b50505f610bbd565b610d129250602080918301019101612f77565b5f80610cf7565b50346104005760c036600319011261040057604435906004356001600160a01b0383168303611057576064356001600160401b038111610f7757610d61903690600401612e18565b6084356001600160a01b03811681036110535760a4356001600160401b03811161104f57610d93903690600401612e18565b600154909491906001600160a01b0316330361104057851561103157600b546001600160a01b031697881561102257600480546040516370a0823160e01b815230928101929092526001600160a01b031696906020816024818b5afa908115611017579089918b91610fe2575b5010610fd35788996040999798995190635a57d31b60e01b8252602082600481845afa998a15610fc8578b928a9b610f8a575b5090610e3f9291613a37565b600b546001600160a01b031692833b15610f8657610e7a8896928b9288946040519a8b998a988997631aa4f11760e31b895260048901613586565b03925af18015610f7b57610f62575b5050600b54604051635a57d31b60e01b81529190602090839060049082906001600160a01b03165afa8015610f57578490610f23575b610ec99250613044565b6024358110610f145760408051928352602083019190915242908201527f2d9c6fa4e1874b30ead551271f1da95d557b36bb806722d35c3ec6c191b141dd9080606081015b0390a180f35b63428637bb60e11b8352600483fd5b506020823d602011610f4f575b81610f3d60209383612ddc565b810103126106d357610ec99151610ebf565b3d9150610f30565b6040513d86823e3d90fd5b81610f6c91612ddc565b610f7757825f610e89565b8280fd5b6040513d84823e3d90fd5b8780fd5b9950995090506020883d602011610fc0575b81610fa960209383612ddc565b810103126106d3579651978a978a91610e3f610e33565b3d9150610f9c565b6040513d8b823e3d90fd5b631e9acf1760e31b8952600489fd5b9150506020813d60201161100f575b81610ffe60209383612ddc565b810103126106d3578890515f610e00565b3d9150610ff1565b6040513d8c823e3d90fd5b63855a7f7d60e01b8852600488fd5b63162908e360e11b8752600487fd5b634755657960e01b8752600487fd5b8580fd5b8480fd5b5080fd5b50346104005761106a36612e87565b92611074846134e2565b80841161109557602085610620868661108c8261382b565b93849133613a73565b915091606493632e52afbb60e21b845260018060a01b0316600452602452604452fd5b5034610400576110c736612e87565b9190926110d383613628565b8083116110f45760208461062087866110eb8161385f565b93849233613a73565b60649284633fa733bb60e21b845260018060a01b0316600452602452604452fd5b50346104005760203660031901126104005760206106206004356137f6565b503461040057806003193601126104005760405180916020600754928381520191600782527fa66cc928b5edb82af9bd49922954155ab7b0942694bea4ce44661d9a8736c688915b8181106111a35761119f8561119381870382612ddc565b60405191829182612e45565b0390f35b82546001600160a01b031684526020909301926001928301920161117c565b50346104005780600319360112610400575061119f6040516111e5604082612ddc565b60058152640352e302e360dc1b602082015260405191829182612d1a565b50346104005760403660031901126104005761122a611220612cee565b6024359033613966565b602060405160018152f35b50346104005760203660031901126104005761124f612cee565b6001546001600160a01b031633036103f1576001600160a01b0316801561047d57808252600860205260ff6040832054161561138c57815b60075480821015611385578261129c83612fa6565b905460039190911b1c6001600160a01b0316146112bc5750600101611287565b5f198101908111611371579061052f6112d76112ef93612fa6565b905460039190911b1c6001600160a01b031691612fa6565b600754801561135d575f190161131e611309826007612fea565b81549060018060a01b039060031b1b19169055565b6007555b808252600860205260408220805460ff191690557f8ee45cb2ea16171b2772d093cb422c4ab6bb58aa86d7ea099ea5bc6486123fa48280a280f35b634e487b7160e01b83526031600452602483fd5b634e487b7160e01b84526011600452602484fd5b5050611322565b6001626138a560e11b03198252600482fd5b503461040057806003193601126104005760405180916020600554928381520191600582527f036b6384b5eca791c62761152d0c79bb0604c104a5fb6f4eb0703f3154bb3db0915b8181106113fd5761119f8561119381870382612ddc565b82546001600160a01b03168452602090930192600192830192016113e6565b50346104005780600319360112610400576020600d54604051908152f35b50346104005761144936612d62565b600154919290916001600160a01b0316330361161f576001600160a01b0316908115611610576001600160a01b03831692831561160157838552600660205260ff604086205416156115ef57828552600860205260ff604086205416156115ef576040516370a0823160e01b815230600482015291602083602481875afa9283156115e45786936115b0575b50806115aa5750815b821561159b57821161158c5760405163a9059cbb60e01b81526001600160a01b03919091166004820152602481018290529060208260448188875af1908115611581577f10534662cd48e65ea88bdaf07a9c3acfb5d04cd46ee5631480c43d32c6bd629492602092611556575b50604051908152a380f35b61157590833d851161157a575b61156d8183612ddc565b810190612f77565b61154b565b503d611563565b6040513d87823e3d90fd5b631e9acf1760e31b8552600485fd5b63162908e360e11b8652600486fd5b916114de565b9092506020813d6020116115dc575b816115cc60209383612ddc565b810103126106d35751915f6114d5565b3d91506115bf565b6040513d88823e3d90fd5b6001626138a560e11b03198552600485fd5b63d92e233d60e01b8552600485fd5b63d92e233d60e01b8452600484fd5b634755657960e01b8452600484fd5b503461040057806003193601126104005760405190805f516020613ed75f395f51905f52549061165d82612f07565b80855291600181169081156116fa5750600114611691575b61119f8461168581860382612ddc565b60405191829182612d1a565b5f516020613ed75f395f51905f5281527f46a2803e59a4de4e7a4c574b1243f25977ac4c77d5a1a4a609b5394cebb4a2aa939250905b8082106116e05750909150810160200161168582611675565b9192600181602092548385880101520191019092916116c7565b60ff191660208087019190915292151560051b850190920192506116859150839050611675565b5034610400576040366003190112610400576020600435610620611743612d04565b9161174d816137f6565b809333613bb5565b50346106d35760a03660031901126106d35761176f612d04565b6044356001600160401b0381116106d35761178e903690600401612e18565b6064356001600160a01b03811681036106d3576084356001600160401b0381116106d3576117c0903690600401612e18565b600154909491906001600160a01b03163303611a0e57600b546001600160a01b03169586156119ff5760018060a01b036004541695604051976370a0823160e01b89523060048a01526020896024818b5afa988915611976575f996119cb575b5088156119bc57604051635a57d31b60e01b815290602082600481845afa988915611976578a925f9a611981575b509061185a9291613a37565b600b546001600160a01b031692833b156106d3576118955f96928a9288946040519a8b998a988997631aa4f11760e31b895260048901613586565b03925af1801561197657611960575b50600b54604051635a57d31b60e01b81529190602090839060049082906001600160a01b03165afa8015610f5757849061192c575b6118e39250613044565b6004358110610f145760408051928352602083019190915242908201527f2d9c6fa4e1874b30ead551271f1da95d557b36bb806722d35c3ec6c191b141dd908060608101610f0e565b506020823d602011611958575b8161194660209383612ddc565b810103126106d3576118e391516118d9565b3d9150611939565b61196d9193505f90612ddc565b5f9160046118a4565b6040513d5f823e3d90fd5b91925098506020813d6020116119b4575b8161199f60209383612ddc565b810103126106d357519789919061185a61184e565b3d9150611992565b63162908e360e11b5f5260045ffd5b9098506020813d6020116119f7575b816119e760209383612ddc565b810103126106d35751975f611820565b3d91506119da565b63855a7f7d60e01b5f5260045ffd5b634755657960e01b5f5260045ffd5b346106d3575f3660031901126106d3576020610620613508565b346106d35760403660031901126106d357611a67611a53612cee565b60243590611a628233836138c8565b61372d565b005b346106d35760203660031901126106d357611a82612cee565b6001546001600160a01b0381169133839003611a0e576001600160a01b0316918215611ade5782907ff8ccb027dfcd135e000e9d45e6cc2d662578a8825d4c45b5e32e0adf67e79ec65f80a36001600160a01b03191617600155005b63d92e233d60e01b5f5260045ffd5b346106d3575f3660031901126106d3576009546040516001600160a01b039091168152602090f35b346106d35760203660031901126106d357602061062061061b612cee565b346106d35760203660031901126106d357611b4c612cee565b5f546001600160a01b03163303611bc457600154906001600160a01b038216611bb5576001600160a01b0316908115611ade57815f7fbf265e8326285a2747e33e54d5945f7111f2b5edb826eb8c08d4677779b3ff978180a36001600160a01b03191617600155005b63130160e560e31b5f5260045ffd5b63618bbdd560e01b5f5260045ffd5b346106d35760403660031901126106d3576020600435610620611bf4612d04565b611bfd83613894565b92839133613bb5565b346106d35760203660031901126106d357611c1f612cee565b6001546001600160a01b03163303611a0e576001600160a01b03168015611ade57805f52600660205260ff60405f20541615611d05575f5b6005549081811015611cfe5782611c6d82612fd2565b905460039190911b1c6001600160a01b031614611c8e576001915001611c57565b5f198201918211611cea5761052f610c46611ca893612fd2565b611cb06134af565b805f52600660205260405f2060ff1981541690557f3bedd7d89ef686cca15b860943a8d8902b2a5396f8dcf1ff5cfbbdb610a420715f80a2005b634e487b7160e01b5f52601160045260245ffd5b5050611cb0565b637f9ec75b60e11b5f5260045ffd5b346106d3575f3660031901126106d357602061062061345b565b346106d3575f3660031901126106d3577f00000000000000000000000000000000000000000000000000000000000000006001600160a01b03163003611d855760206040515f516020613f175f395f51905f528152f35b63703e46dd60e11b5f5260045ffd5b60403660031901126106d357611da8612cee565b602435906001600160401b0382116106d357366023830112156106d357816004013590611dd482612dfd565b91611de26040519384612ddc565b808352602083019336602483830101116106d357815f926024602093018737840101526001600160a01b037f000000000000000000000000000000000000000000000000000000000000000016308114908115611f85575b50611d85576001546001600160a01b03163303611a0e576040516352d1902d60e01b81526001600160a01b0382169390602081600481885afa5f9181611f51575b50611e935784634c9c8ce360e01b5f5260045260245ffd5b805f516020613f175f395f51905f52869203611f3f5750823b15611f2d575f516020613f175f395f51905f5280546001600160a01b031916821790557fbc7cd75a20ee27fd9adebab32041f755214dbc6bffa90cc0225b39da2e5c2d3b5f80a2825115611f14575f8091611a67945190845af4611f0e6135d2565b91613db9565b50505034611f1e57005b63b398979f60e01b5f5260045ffd5b634c9c8ce360e01b5f5260045260245ffd5b632a87526960e21b5f5260045260245ffd5b9091506020813d602011611f7d575b81611f6d60209383612ddc565b810103126106d357519086611e7b565b3d9150611f60565b5f516020613f175f395f51905f52546001600160a01b03161415905084611e3a565b612d44565b346106d35760203660031901126106d3576009546001600160a01b03163303611fda57611a676004356133bf565b63399d87b560e11b5f5260045ffd5b346106d35760203660031901126106d357611a676004353361372d565b346106d3575f3660031901126106d3575f516020613f375f395f51905f52546040516001600160a01b039091168152602090f35b346106d35760203660031901126106d3576009546001600160a01b03163303611fda57611a67600435613352565b346106d35760403660031901126106d3576009546001600160a01b03163303611fda57602061062060243560043561305e565b346106d3575f3660031901126106d35760ff5f516020613f375f395f51905f525460a01c1660ff8111611cea57602090604051908152f35b346106d3575f3660031901126106d3576007546120ef81612f8f565b906120fd6040519283612ddc565b808252601f1961210c82612f8f565b015f5b8181106122245750505f5b81811061217b57826040518091602082016020835281518091526020604084019201905f5b81811061214d575050500390f35b825180516001600160a01b03168552602090810151818601528695506040909401939092019160010161213f565b61218481612fa6565b90546040516370a0823160e01b8152306004820152929160031b1c6001600160a01b0316602083602481845afa8015611976575f906121f2575b60019350604051916121cf83612dc1565b825260208201526121e08286612fff565b526121eb8185612fff565b500161211a565b506020833d821161221c575b8161220b60209383612ddc565b810103126106d357600192516121be565b3d91506121fe565b60209060405161223381612dc1565b5f81525f838201528282870101520161210f565b346106d35760203660031901126106d3576001600160a01b03612268612cee565b165f526008602052602060ff60405f2054166040519015158152f35b346106d35760203660031901126106d357602061229f612cee565b6001546040516001600160a01b0392831691909216148152f35b346106d35761122a6122ca36612d62565b916122d68333836138c8565b613966565b346106d35760203660031901126106d3576001600160a01b036122fc612cee565b165f52600a602052602060ff60405f2054166040519015158152f35b346106d3575f3660031901126106d35760205f516020613ef75f395f51905f5254604051908152f35b346106d35761234f36612d62565b5f516020613f575f395f51905f52549160ff8360401c1615926001600160401b03811680159081612888575b600114908161287e575b159081612875575b506128665767ffffffffffffffff1981166001175f516020613f575f395f51905f52558361283a575b506040938451906123c78683612ddc565b601682527552657365727665205472616e6368652053686172657360501b60208301528551906123f78783612ddc565b6004825263392a292760e11b6020830152612410613b8a565b612418613b8a565b6001600160a01b0316918215611ade57612430613b8a565b612438613b8a565b8051906001600160401b0382116127235781906124625f516020613e975f395f51905f5254612f07565b601f81116127c0575b50602090601f8311600114612742575f92612737575b50508160011b915f199060031b1c1916175f516020613e975f395f51905f52555b8051906001600160401b0382116127235781906124cc5f516020613ed75f395f51905f5254612f07565b601f81116126a9575b50602090601f831160011461262b575f92612620575b50508160011b915f199060031b1c1916175f516020613ed75f395f51905f52555b612514613b8a565b61251c613b8a565b8061252681613e17565b9015612618575b5f516020613f375f395f51905f52549060ff60a01b9060a01b16906affffffffffffffffffffff60a81b1617175f516020613f375f395f51905f5255612571613b8a565b336001600160601b0360a01b5f5416175f556001600160601b0360a01b600454161760045560018060a01b03166001600160601b0360a01b60095416176009558060025542600355600e556125c257005b60207fc7f505b2f371ae2175ee4913f4499e1f2633a7b5936321eed1cdaeb6115181d29168ff0000000000000000195f516020613f575f395f51905f5254165f516020613f575f395f51905f52555160018152a1005b50601261252d565b0151905087806124eb565b5f516020613ed75f395f51905f525f9081528281209350601f198516905b8181106126915750908460019594939210612679575b505050811b015f516020613ed75f395f51905f525561250c565b01515f1960f88460031b161c1916905587808061265f565b92936020600181928786015181550195019301612649565b5f516020613ed75f395f51905f525f529091507f46a2803e59a4de4e7a4c574b1243f25977ac4c77d5a1a4a609b5394cebb4a2aa601f840160051c81019160208510612719575b90601f859493920160051c01905b81811061270b57506124d5565b5f81558493506001016126fe565b90915081906126f0565b634e487b7160e01b5f52604160045260245ffd5b015190508880612481565b5f516020613e975f395f51905f525f9081528281209350601f198516905b8181106127a85750908460019594939210612790575b505050811b015f516020613e975f395f51905f52556124a2565b01515f1960f88460031b161c19169055888080612776565b92936020600181928786015181550195019301612760565b5f516020613e975f395f51905f525f529091507f2ae08a8e29253f69ac5d979a101956ab8f8d9d7ded63fa7a83b16fc47648eab0601f840160051c81019160208510612830575b90601f859493920160051c01905b818110612822575061246b565b5f8155849350600101612815565b9091508190612807565b68ffffffffffffffffff191668010000000000000001175f516020613f575f395f51905f5255846123b6565b63f92ee8a960e01b5f5260045ffd5b9050158661238d565b303b159150612385565b85915061237b565b346106d3575f3660031901126106d357600b546040516001600160a01b039091168152602090f35b346106d35760203660031901126106d35760206004356002541015604051908152f35b346106d35760403660031901126106d3576128f4612cee565b60015460243591906001600160a01b03163303611a0e576001600160a01b038116918215611ade5780156119bc57825f52600660205260ff60405f20541615611d0557600480546040516370a0823160e01b815230928101929092526001600160a01b031690602081602481855afa80156119765783915f91612a10575b5010612a015760405163a9059cbb60e01b81526001600160a01b0393909316600484015260248301829052602090839060449082905f905af1908115611976577f4d68c0642ddb3d721bdec8814888b9e64c61023efedaf43bf47cf10b799ad0e2926020926129e6575b50604051908152a2005b6129fc90833d851161157a5761156d8183612ddc565b6129dc565b631e9acf1760e31b5f5260045ffd5b9150506020813d602011612a3d575b81612a2c60209383612ddc565b810103126106d35782905186612972565b3d9150612a1f565b346106d35760203660031901126106d357602061062060043561385f565b346106d35760403660031901126106d357612a7c612cee565b602435903315612af5576001600160a01b0316908115612ae257612a9f33612f3f565b825f526020528060405f20556040519081527f8c5be1e5ebec7d5bd14f71427d1e84f3dd0314c0f7b2291e5b200ac8c7c3b92560203392a3602060405160018152f35b634a1406b160e11b5f525f60045260245ffd5b63e602df0560e01b5f525f60045260245ffd5b346106d3575f3660031901126106d3576040515f5f516020613e975f395f51905f5254612b3481612f07565b8084529060018116908115612bc65750600114612b5c575b61119f8361168581850382612ddc565b5f516020613e975f395f51905f525f9081527f2ae08a8e29253f69ac5d979a101956ab8f8d9d7ded63fa7a83b16fc47648eab0939250905b808210612bac57509091508101602001611685612b4c565b919260018160209254838588010152019101909291612b94565b60ff191660208086019190915291151560051b840190910191506116859050612b4c565b346106d35760403660031901126106d357612c03612cee565b6001546001600160a01b03163303611a0e57611a67906024359061372d565b346106d35760203660031901126106d357600154600435906001600160a01b03163303611a0e576113871981128015612cc6575b612cb757611a67906002547f08e292119eb5d6f28b841651e90566220242a29a2941ab33e2fc73a859e443c461084b612c8f8484613688565b9384600255426003556040519182918686846040919493926060820195825260208201520152565b63092382c960e21b5f5260045ffd5b506127108113612c56565b346106d3575f3660031901126106d3576020600254604051908152f35b600435906001600160a01b03821682036106d357565b602435906001600160a01b03821682036106d357565b602060409281835280519182918282860152018484015e5f828201840152601f01601f1916010190565b346106d35760203660031901126106d357602061062060043561382b565b60609060031901126106d3576004356001600160a01b03811681036106d357906024356001600160a01b03811681036106d3579060443590565b346106d35760203660031901126106d357612db5612cee565b5060206040515f198152f35b604081019081106001600160401b0382111761272357604052565b90601f801991011681019081106001600160401b0382111761272357604052565b6001600160401b03811161272357601f01601f191660200190565b9181601f840112156106d3578235916001600160401b0383116106d357602083818601950101116106d357565b60206040818301928281528451809452019201905f5b818110612e685750505090565b82516001600160a01b0316845260209384019390920191600101612e5b565b60609060031901126106d357600435906024356001600160a01b03811681036106d357906044356001600160a01b03811681036106d35790565b346106d35760203660031901126106d3576020610620600435613894565b346106d3575f3660031901126106d3576004546040516001600160a01b039091168152602090f35b90600182811c92168015612f35575b6020831014612f2157565b634e487b7160e01b5f52602260045260245ffd5b91607f1691612f16565b6001600160a01b03165f9081527f52c63247e1f47db19d5ce0460030c497f067ca4cebf71ba98eeadabe20bace016020526040902090565b908160209103126106d3575180151581036106d35790565b6001600160401b0381116127235760051b60200190565b600754811015612fbe5760075f5260205f2001905f90565b634e487b7160e01b5f52603260045260245ffd5b600554811015612fbe5760055f5260205f2001905f90565b8054821015612fbe575f5260205f2001905f90565b8051821015612fbe5760209160051b010190565b81810292918115918404141715611cea57565b8115613030570490565b634e487b7160e01b5f52601260045260245ffd5b91908203918211611cea57565b91908201809211611cea57565b5f90801561334b57821561334b57600b546001600160a01b031690811561330057670de0b6b3a76400008102908104670de0b6b3a764000003611cea57836130a591613026565b604051635a57d31b60e01b815290602082600481865afa918215611976575f92613317575b508181111561330f5750925b8315613300576130ef670de0b6b3a76400009185613013565b04926002549161312361310b8661310586613b0f565b95613044565b8060025561311b87600d54613051565b600d55613b0f565b60095460405163092cd6d160e11b815291939190602090829060049082906001600160a01b03165afa908115611976575f916132be575b506001600160a01b031690811561328357823b156106d357604051639bd70f5d60e01b81526001600160a01b039290921660048301526024820152905f908290604490829084905af1801561197657613248575b50604080518581523360208201527ffbe912fdd0185617e8cafd12d97b59175b90e15f5c629faf6413469af54ee080939192907fa4bdbc51862db9e662e821898b98925ca7245a16f31ec0726e0f315095379a45908490a182519182526020820152a1613219613654565b613221575090565b807f27b34a3dc6852584d80211f5705bfba72ab66690b3a83f490b0d7f51488f6fab91a190565b6040919350916132795f7ffbe912fdd0185617e8cafd12d97b59175b90e15f5c629faf6413469af54ee08094612ddc565b5f939150916131ae565b60405162461bcd60e51b815260206004820152601360248201527214d95b9a5bdc881a1bdbdac81b9bdd081cd95d606a1b6044820152606490fd5b90506020813d6020116132f8575b816132d960209383612ddc565b810103126106d357516001600160a01b03811681036106d3575f61315a565b3d91506132cc565b63373ffa1960e11b5f5260045ffd5b9050926130d6565b9091506020813d602011613343575b8161333360209383612ddc565b810103126106d35751905f6130ca565b3d9150613326565b5050505f90565b80156133bc576004805460095460405163a9059cbb60e01b81526001600160a01b039182169381019390935260248301939093529091602091839160449183915f91165af18015611976576133a45750565b6133bc9060203d60201161157a5761156d8183612ddc565b50565b80156133bc57604061344d827fdffae7b91cc2eb92e80bdd37fe8a23391bf507cbbbef4000603470177acb049761344561341c7ffbe912fdd0185617e8cafd12d97b59175b90e15f5c629faf6413469af54ee08096600254613051565b928360025561342d81600c54613051565b600c5585519081523360208201529081906040820190565b0390a1613b0f565b8151905f82526020820152a1565b600c54600d54908015806134a7575b6134a157600e5461347a91613051565b80156134a1576127108202918083046127101490151715611cea5761349e91613026565b90565b50505f90565b50811561346a565b60055480156134ce575f19016134c9611309826005612fea565b600555565b634e487b7160e01b5f52603160045260245ffd5b6001600160a01b03165f9081525f516020613eb75f395f51905f52602052604090205490565b600e54801561356157600254818103905f831281831281169082841390151617611cea5782670de0b6b3a76400008302928305670de0b6b3a76400001491141715611cea57600160ff1b81145f19831416611cea570590565b505f90565b908060209392818452848401375f828201840152601f01601f1916010190565b9290936135b49261349e98969795855260018060a01b0316602085015260a0604085015260a0840191613566565b6001600160a01b039094166060820152808403608090910152613566565b3d156135fc573d906135e382612dfd565b916135f16040519384612ddc565b82523d5f602084013e565b606090565b60055490600160401b8210156127235761052f82600161362694016005556005612fea565b565b6001600160a01b03165f9081525f516020613eb75f395f51905f52602052604090205461349e9061382b565b600e54662386f26fc10000810290808204662386f26fc100001490151715611cea57670de0b6b3a764000090046002541090565b905f81126136af5761271001908161271011611cea57612710916136ab91613013565b0490565b600160ff1b8114611cea57612710815f0310156136e15761271001906127108211611cea57612710916136ab91613013565b631a93c68960e11b5f5260045ffd5b7fed7df434501f434010985bb24e2b96c04921be23a0124e89e2b32b63a01671bd91604091600e55613720613508565b82519182526020820152a1565b9091906001600160a01b031680156137e357805f525f516020613eb75f395f51905f5260205260405f20548381106137c9576020845f94957fddf252ad1be2c89b69c2b068fc378daa952ba7f163c4a11628f55a4df523b3ef938587525f516020613eb75f395f51905f528452036040862055805f516020613ef75f395f51905f5254035f516020613ef75f395f51905f5255604051908152a3565b915063391434e360e21b5f5260045260245260445260645ffd5b634b637e8f60e11b5f525f60045260245ffd5b6002549060018201809211611cea575f516020613ef75f395f51905f525460018101809111611cea5761349e92600192613b25565b6002549060018201809211611cea575f516020613ef75f395f51905f525460018101809111611cea5761349e925f92613b25565b5f516020613ef75f395f51905f52549060018201809211611cea5760025460018101809111611cea5761349e92600192613b25565b5f516020613ef75f395f51905f52549060018201809211611cea5760025460018101809111611cea5761349e925f92613b25565b91906138d383612f3f565b60018060a01b0382165f5260205260405f2054925f1984036138f6575b50505050565b828410613943576001600160a01b03811615612af5576001600160a01b03821615612ae25761392490612f3f565b9060018060a01b03165f5260205260405f20910390555f8080806138f0565b508290637dc7a0d960e11b5f5260018060a01b031660045260245260445260645ffd5b6001600160a01b03169081156137e3576001600160a01b0316918215613a2457815f525f516020613eb75f395f51905f5260205260405f2054818110613a0b57817fddf252ad1be2c89b69c2b068fc378daa952ba7f163c4a11628f55a4df523b3ef92602092855f525f516020613eb75f395f51905f5284520360405f2055845f525f516020613eb75f395f51905f52825260405f20818154019055604051908152a3565b8263391434e360e21b5f5260045260245260445260645ffd5b63ec442f0560e01b5f525f60045260245ffd5b60405163a9059cbb60e01b60208201526001600160a01b0392909216602483015260448083019390935291815261362691610cd3606483612ddc565b6001600160a01b0380841695908216937ffbde797d201c681b91056529119e0b02407c7bb96a4a2c75c01fc9667232c8db93604093909291613ac291839190828b8a03613afe575b505061372d565b5f516020613f375f395f51905f5254613ae790879084906001600160a01b0316613a37565b825195865260208601526001600160a01b031693a4565b613b0891836138c8565b5f82613abb565b600a810290808204600a1490151715611cea5790565b9190613b32828285613d25565b936004811015613b76576001809116149283613b61575b505050613b535790565b60018101809111611cea5790565b909180935015613030570915155f8080613b49565b634e487b7160e01b5f52602160045260245ffd5b60ff5f516020613f575f395f51905f525460401c1615613ba657565b631afcd79f60e31b5f5260045ffd5b5f516020613f375f395f51905f52546040516323b872dd60e01b60208201526001600160a01b039283166024820181905230604483015260648083018790528252949392613c099216610cd3608483612ddc565b6001600160a01b0316928315613a24577fdcbc1c05240f31ff3ad067ef1ee35ce4997762752e3a095284754544f4c709d79181613c566040935f516020613ef75f395f51905f5254613051565b5f516020613ef75f395f51905f5255855f525f516020613eb75f395f51905f52602052825f20818154019055855f7fddf252ad1be2c89b69c2b068fc378daa952ba7f163c4a11628f55a4df523b3ef60208651858152a382519182526020820152a3565b5f80613ce29260018060a01b03169360208151910182865af1613cdb6135d2565b9083613db9565b8051908115159182613d0a575b5050613cf85750565b635274afe760e01b5f5260045260245ffd5b613d1d9250602080918301019101612f77565b155f80613cef565b9091828202915f1984820993838086109503948086039514613dac5784831115613d9d57829109815f0382168092046002816003021880820260020302808202600203028082026002030280820260020302808202600203028091026002030293600183805f03040190848311900302920304170290565b63227bc15360e01b5f5260045ffd5b50509061349e9250613026565b90613ddd5750805115613dce57805190602001fd5b630a12f52160e11b5f5260045ffd5b81511580613e0e575b613dee575090565b639996b31560e01b5f9081526001600160a01b0391909116600452602490fd5b50803b15613de6565b5f8091604051602081019063313ce56760e01b825260048152613e3b602482612ddc565b51916001600160a01b03165afa613e506135d2565b9080613e8a575b613e63575b505f905f90565b602081519181808201938492010103126106d3575160ff8111613e5c579060ff6001921690565b50602081511015613e5756fe52c63247e1f47db19d5ce0460030c497f067ca4cebf71ba98eeadabe20bace0352c63247e1f47db19d5ce0460030c497f067ca4cebf71ba98eeadabe20bace0052c63247e1f47db19d5ce0460030c497f067ca4cebf71ba98eeadabe20bace0452c63247e1f47db19d5ce0460030c497f067ca4cebf71ba98eeadabe20bace02360894a13ba1a3210667c828492db98dca3e2076cc3735a920a3ca505d382bbc0773e532dfede91f04b12a73d3d2acd361424f41f76b4fb79f090161e36b4e00f0c57e16840df040f15088dc2f81fe391c3923bec73e23a9662efc9c229c6a00a2646970667358221220bad1dce8400e65a5df1265a5fb47f65424f3c754100bd8d1454c6bfdce5dd59964736f6c634300081e0033f0c57e16840df040f15088dc2f81fe391c3923bec73e23a9662efc9c229c6a00","linkReferences":{}},"methodIdentifiers":{"UPGRADE_INTERFACE_VERSION()":"ad3cb1cc","addWhitelistedDepositor(address)":"c7aa7201","addWhitelistedLP(address)":"cfe8b3e3","addWhitelistedLPToken(address)":"dd95a14d","admin()":"f851a440","adminBurn(address,uint256)":"06dd0419","allowance(address,address)":"dd62ed3e","approve(address,uint256)":"095ea7b3","asset()":"38d52e0f","backstopCapacity()":"e7d5a1ed","balanceOf(address)":"70a08231","burn(uint256)":"42966c68","burnFrom(address,uint256)":"79cc6790","canProvideFullBackstop(uint256)":"11a66e40","convertToAssets(uint256)":"07a2d13a","convertToShares(uint256)":"c6e6f592","currentDepositCap()":"c6c393cf","decimals()":"313ce567","deployToKodiak(uint256,uint256,address,bytes,address,bytes)":"beec98c0","deployer()":"d5f39488","deposit(uint256,address)":"6e553f65","depositToken()":"c89039c5","effectiveMonthlyReturn()":"7f401328","getLPBalance(address)":"d2258beb","getLPHoldings()":"2fe2388a","getWhitelistedLPTokens()":"ae90fa57","getWhitelistedLPs()":"9d33919b","initialize(address,address,uint256)":"1794bb3c","investInLP(address,uint256)":"113ba777","isAdmin(address)":"24d7806c","isDepleted()":"d14f8369","isWhitelistedDepositor(address)":"226ac791","isWhitelistedLP(address)":"c2d4f8c0","isWhitelistedLPToken(address)":"2727c94d","kodiakHook()":"1259ada2","lastUpdateTime()":"c8f33c91","maxDeposit(address)":"402d267d","maxMint(address)":"c63d75b6","maxRedeem(address)":"d905777e","maxWithdraw(address)":"ce96cb77","mint(uint256,address)":"94bf804d","name()":"06fdde03","previewDeposit(uint256)":"ef8b30f7","previewMint(uint256)":"b3d7f6b9","previewRedeem(uint256)":"4cdad506","previewWithdraw(uint256)":"0a28a477","provideBackstop(uint256,uint256)":"32f92acd","proxiableUUID()":"52d1902d","receiveSpillover(uint256)":"45c05477","redeem(uint256,address,address)":"ba087652","removeWhitelistedDepositor(address)":"c7d1e7ef","removeWhitelistedLP(address)":"6cfa3bd4","removeWhitelistedLPToken(address)":"a58e3389","seniorVault()":"73884aee","setAdmin(address)":"704b6c02","setKodiakHook(address)":"c07056bc","setSeniorVault(address)":"fd625621","setVaultValue(uint256)":"cba04a68","stablecoin()":"e9cbd822","sweepToKodiak(uint256,address,bytes,address,bytes)":"92f2ed1f","symbol()":"95d89b41","totalAssets()":"01e1d114","totalBackstopProvided()":"9afd98d2","totalSpilloverReceived()":"f51a747c","totalSupply()":"18160ddd","transfer(address,uint256)":"a9059cbb","transferAdmin(address)":"75829def","transferFrom(address,address,uint256)":"23b872dd","transferToSenior(uint256)":"38c73738","updateSeniorVault(address)":"f7211f07","updateVaultValue(int256)":"049a4240","upgradeToAndCall(address,bytes)":"4f1ef286","utilizationRate()":"6c321c8a","vaultValue()":"8c21c9e1","withdraw(uint256,address,address)":"b460af94","withdrawLPTokens(address,address,uint256)":"98c1b700"},"id":66}