{"abi":[{"type":"constructor","inputs":[{"name":"_vault","type":"address","internalType":"address"},{"name":"_assetToken","type":"address","internalType":"address"},{"name":"_admin","type":"address","internalType":"address"}],"stateMutability":"nonpayable"},{"type":"receive","stateMutability":"payable"},{"type":"function","name":"ADMIN_ROLE","inputs":[],"outputs":[{"name":"","type":"bytes32","internalType":"bytes32"}],"stateMutability":"view"},{"type":"function","name":"DEFAULT_ADMIN_ROLE","inputs":[],"outputs":[{"name":"","type":"bytes32","internalType":"bytes32"}],"stateMutability":"view"},{"type":"function","name":"NATIVE_BERA","inputs":[],"outputs":[{"name":"","type":"address","internalType":"address"}],"stateMutability":"view"},{"type":"function","name":"adminLiquidateAll","inputs":[{"name":"swapData","type":"bytes","internalType":"bytes"},{"name":"aggregator","type":"address","internalType":"address"}],"outputs":[],"stateMutability":"nonpayable"},{"type":"function","name":"adminRescueTokens","inputs":[{"name":"token","type":"address","internalType":"address"},{"name":"to","type":"address","internalType":"address"},{"name":"amount","type":"uint256","internalType":"uint256"}],"outputs":[],"stateMutability":"nonpayable"},{"type":"function","name":"adminSwapAndReturnToVault","inputs":[{"name":"tokenIn","type":"address","internalType":"address"},{"name":"amountIn","type":"uint256","internalType":"uint256"},{"name":"swapData","type":"bytes","internalType":"bytes"},{"name":"aggregator","type":"address","internalType":"address"}],"outputs":[],"stateMutability":"nonpayable"},{"type":"function","name":"assetToken","inputs":[],"outputs":[{"name":"","type":"address","internalType":"contract IERC20"}],"stateMutability":"view"},{"type":"function","name":"ensureFundsAvailable","inputs":[{"name":"amount","type":"uint256","internalType":"uint256"}],"outputs":[],"stateMutability":"nonpayable"},{"type":"function","name":"getIslandLPBalance","inputs":[],"outputs":[{"name":"","type":"uint256","internalType":"uint256"}],"stateMutability":"view"},{"type":"function","name":"getRoleAdmin","inputs":[{"name":"role","type":"bytes32","internalType":"bytes32"}],"outputs":[{"name":"","type":"bytes32","internalType":"bytes32"}],"stateMutability":"view"},{"type":"function","name":"grantRole","inputs":[{"name":"role","type":"bytes32","internalType":"bytes32"},{"name":"account","type":"address","internalType":"address"}],"outputs":[],"stateMutability":"nonpayable"},{"type":"function","name":"hasRole","inputs":[{"name":"role","type":"bytes32","internalType":"bytes32"},{"name":"account","type":"address","internalType":"address"}],"outputs":[{"name":"","type":"bool","internalType":"bool"}],"stateMutability":"view"},{"type":"function","name":"island","inputs":[],"outputs":[{"name":"","type":"address","internalType":"contract IKodiakIsland"}],"stateMutability":"view"},{"type":"function","name":"minAssetOutBps","inputs":[],"outputs":[{"name":"","type":"uint256","internalType":"uint256"}],"stateMutability":"view"},{"type":"function","name":"minSharesPerAssetBps","inputs":[],"outputs":[{"name":"","type":"uint256","internalType":"uint256"}],"stateMutability":"view"},{"type":"function","name":"onAfterDeposit","inputs":[{"name":"assets","type":"uint256","internalType":"uint256"}],"outputs":[],"stateMutability":"nonpayable"},{"type":"function","name":"onAfterDepositWithSwaps","inputs":[{"name":"assets","type":"uint256","internalType":"uint256"},{"name":"swapToToken0Aggregator","type":"address","internalType":"address"},{"name":"swapToToken0Data","type":"bytes","internalType":"bytes"},{"name":"swapToToken1Aggregator","type":"address","internalType":"address"},{"name":"swapToToken1Data","type":"bytes","internalType":"bytes"}],"outputs":[],"stateMutability":"nonpayable"},{"type":"function","name":"renounceRole","inputs":[{"name":"role","type":"bytes32","internalType":"bytes32"},{"name":"callerConfirmation","type":"address","internalType":"address"}],"outputs":[],"stateMutability":"nonpayable"},{"type":"function","name":"revokeRole","inputs":[{"name":"role","type":"bytes32","internalType":"bytes32"},{"name":"account","type":"address","internalType":"address"}],"outputs":[],"stateMutability":"nonpayable"},{"type":"function","name":"router","inputs":[],"outputs":[{"name":"","type":"address","internalType":"contract IKodiakIslandRouter"}],"stateMutability":"view"},{"type":"function","name":"setAggregatorWhitelisted","inputs":[{"name":"target","type":"address","internalType":"address"},{"name":"isWhitelisted","type":"bool","internalType":"bool"}],"outputs":[],"stateMutability":"nonpayable"},{"type":"function","name":"setIsland","inputs":[{"name":"_island","type":"address","internalType":"address"}],"outputs":[],"stateMutability":"nonpayable"},{"type":"function","name":"setRouter","inputs":[{"name":"_router","type":"address","internalType":"address"}],"outputs":[],"stateMutability":"nonpayable"},{"type":"function","name":"setSlippage","inputs":[{"name":"_minSharesPerAssetBps","type":"uint256","internalType":"uint256"},{"name":"_minAssetOutBps","type":"uint256","internalType":"uint256"}],"outputs":[],"stateMutability":"nonpayable"},{"type":"function","name":"setWBERA","inputs":[{"name":"_wbera","type":"address","internalType":"address"}],"outputs":[],"stateMutability":"nonpayable"},{"type":"function","name":"supportsInterface","inputs":[{"name":"interfaceId","type":"bytes4","internalType":"bytes4"}],"outputs":[{"name":"","type":"bool","internalType":"bool"}],"stateMutability":"view"},{"type":"function","name":"transferIslandLP","inputs":[{"name":"recipient","type":"address","internalType":"address"},{"name":"amount","type":"uint256","internalType":"uint256"}],"outputs":[],"stateMutability":"nonpayable"},{"type":"function","name":"vault","inputs":[],"outputs":[{"name":"","type":"address","internalType":"address"}],"stateMutability":"view"},{"type":"function","name":"wbera","inputs":[],"outputs":[{"name":"","type":"address","internalType":"address"}],"stateMutability":"view"},{"type":"function","name":"whitelistedAggregators","inputs":[{"name":"","type":"address","internalType":"address"}],"outputs":[{"name":"","type":"bool","internalType":"bool"}],"stateMutability":"view"},{"type":"event","name":"AggregatorWhitelisted","inputs":[{"name":"target","type":"address","indexed":true,"internalType":"address"},{"name":"status","type":"bool","indexed":false,"internalType":"bool"}],"anonymous":false},{"type":"event","name":"AggregatorZapExecuted","inputs":[{"name":"target","type":"address","indexed":true,"internalType":"address"},{"name":"value","type":"uint256","indexed":false,"internalType":"uint256"},{"name":"selector","type":"bytes4","indexed":false,"internalType":"bytes4"}],"anonymous":false},{"type":"event","name":"IslandUpdated","inputs":[{"name":"island","type":"address","indexed":false,"internalType":"address"}],"anonymous":false},{"type":"event","name":"RoleAdminChanged","inputs":[{"name":"role","type":"bytes32","indexed":true,"internalType":"bytes32"},{"name":"previousAdminRole","type":"bytes32","indexed":true,"internalType":"bytes32"},{"name":"newAdminRole","type":"bytes32","indexed":true,"internalType":"bytes32"}],"anonymous":false},{"type":"event","name":"RoleGranted","inputs":[{"name":"role","type":"bytes32","indexed":true,"internalType":"bytes32"},{"name":"account","type":"address","indexed":true,"internalType":"address"},{"name":"sender","type":"address","indexed":true,"internalType":"address"}],"anonymous":false},{"type":"event","name":"RoleRevoked","inputs":[{"name":"role","type":"bytes32","indexed":true,"internalType":"bytes32"},{"name":"account","type":"address","indexed":true,"internalType":"address"},{"name":"sender","type":"address","indexed":true,"internalType":"address"}],"anonymous":false},{"type":"event","name":"RouterUpdated","inputs":[{"name":"router","type":"address","indexed":false,"internalType":"address"}],"anonymous":false},{"type":"event","name":"SlippageUpdated","inputs":[{"name":"minSharesPerAssetBps","type":"uint256","indexed":false,"internalType":"uint256"},{"name":"minAssetOutBps","type":"uint256","indexed":false,"internalType":"uint256"}],"anonymous":false},{"type":"event","name":"WBERAUpdated","inputs":[{"name":"wbera","type":"address","indexed":false,"internalType":"address"}],"anonymous":false},{"type":"error","name":"AccessControlBadConfirmation","inputs":[]},{"type":"error","name":"AccessControlUnauthorizedAccount","inputs":[{"name":"account","type":"address","internalType":"address"},{"name":"neededRole","type":"bytes32","internalType":"bytes32"}]},{"type":"error","name":"AddressEmptyCode","inputs":[{"name":"target","type":"address","internalType":"address"}]},{"type":"error","name":"AddressInsufficientBalance","inputs":[{"name":"account","type":"address","internalType":"address"}]},{"type":"error","name":"FailedInnerCall","inputs":[]},{"type":"error","name":"SafeERC20FailedOperation","inputs":[{"name":"token","type":"address","internalType":"address"}]}],"bytecode":{"object":"0x60c03461020757601f613a9b38819003918201601f19168301916001600160401b0383118484101761020b57808492606094604052833981010312610207576100478161021f565b9061006060406100596020840161021f565b920161021f565b5f6004819055600555906001600160a01b038316156101d8576001600160a01b031680156101a9576001600160a01b0382161561017a576100b09260805260a0526100aa81610233565b506102a9565b506040516136fe908161033d8239608051818181610189015281816101dd0152818161022b015281816103f50152818161064001528181610b10015281816111d3015281816118a00152818161190f015281816127120152818161282c0152613556015260a051818181610ac201528181610d3b0152818161112a015281816117cd01528181611ad501528181611c3401528181611e8d015281816123d70152818161245c0152818161258901528181612e63015281816131400152818161333801526134a40152f35b60405162461bcd60e51b8152602060048201526007602482015266061646d696e3d360cc1b6044820152606490fd5b60405162461bcd60e51b8152602060048201526007602482015266061737365743d360cc1b6044820152606490fd5b60405162461bcd60e51b815260206004820152600760248201526607661756c743d360cc1b6044820152606490fd5b5f80fd5b634e487b7160e01b5f52604160045260245ffd5b51906001600160a01b038216820361020757565b6001600160a01b0381165f9081525f516020613a7b5f395f51905f52602052604090205460ff166102a4576001600160a01b03165f8181525f516020613a7b5f395f51905f5260205260408120805460ff191660011790553391905f516020613a3b5f395f51905f528180a4600190565b505f90565b6001600160a01b0381165f9081525f516020613a5b5f395f51905f52602052604090205460ff166102a4576001600160a01b03165f8181525f516020613a5b5f395f51905f5260205260408120805460ff191660011790553391907fa49807205ce4d355092ef5a8a18f56e8913cf4a201fbe287825b095693c21775905f516020613a3b5f395f51905f529080a460019056fe608080604052600436101561001c575b50361561001a575f80fd5b005b5f3560e01c90816301ffc9a714610d6a575080631083f76114610d26578063248a9ca314610cfc5780632f2ff15d14610cbf57806331f41a3314610c97578063321968e114610c7a57806336568abe14610c3657806341bbfe79146109ba578063570b06ac146109705780635a57d31b1461094e57806375b238fc14610914578063879905a1146108df57806391d148541461089757806398724a24146107e35780639bd70f5d1461061d578063a217fddf14610603578063b24c7d2f146105c6578063b4f1b69c1461055a578063bc9ef3e0146104b4578063c07aa9cb14610497578063c0d786551461042b578063d52788b814610386578063d547741f14610344578063d5560f45146102d8578063db5537e1146102b0578063f6b5d69f14610282578063f887ea401461025a578063fbfa77cf14610216578063fc1c96e6146101c65763ff6e397914610172575f61000f565b346101c25760203660031901126101c2576101b7337f00000000000000000000000000000000000000000000000000000000000000006001600160a01b031614611598565b61001a600435612556565b5f80fd5b346101c25760203660031901126101c25761020b337f00000000000000000000000000000000000000000000000000000000000000006001600160a01b031614611598565b61001a6004356120f0565b346101c2575f3660031901126101c2576040517f00000000000000000000000000000000000000000000000000000000000000006001600160a01b03168152602090f35b346101c2575f3660031901126101c2576001546040516001600160a01b039091168152602090f35b346101c2575f3660031901126101c25760206040517369696969696969696969696969696969696969698152f35b346101c2575f3660031901126101c2576002546040516001600160a01b039091168152602090f35b346101c25760203660031901126101c2577ff6ac2848c3bff30adad26c56ac6629e436add1755e2c5fa24d89461703a58cf96020610314610dd3565b61031c6128eb565b600380546001600160a01b0319166001600160a01b03929092169182179055604051908152a1005b346101c25760403660031901126101c25761001a600435610363610dbd565b9061038161037c825f525f602052600160405f20015490565b61295a565b612a1a565b346101c25760a03660031901126101c25761039f610dbd565b60443567ffffffffffffffff81116101c2576103bf903690600401610dff565b916103c8610de9565b6084359367ffffffffffffffff85116101c2576103ec61001a953690600401610dff565b949093610423337f00000000000000000000000000000000000000000000000000000000000000006001600160a01b031614611598565b6004356115f9565b346101c25760203660031901126101c2577f7aed1d3e8155a07ccf395e44ea3109a0e2d6c9b29bbbe9f142d9790596f4dc806020610467610dd3565b61046f6128eb565b600180546001600160a01b0319166001600160a01b03929092169182179055604051908152a1005b346101c2575f3660031901126101c2576020600454604051908152f35b346101c25760403660031901126101c2576004356024356104d36128eb565b6127108211158061054e575b1561051e57816040917f07af09e2b23ebab5dd29fa2271d6ca4795031f308caf26ca605f4a719ffeed61936004558060055582519182526020820152a1005b60405162461bcd60e51b81526020600482015260086024820152676270733e3130302560c01b6044820152606490fd5b506127108111156104df565b346101c25760203660031901126101c2577f2aed0699583704a4a21fc2e954f0cafb5fa9591b593d8ccf8529b4915abf14bd6020610596610dd3565b61059e6128eb565b600280546001600160a01b0319166001600160a01b03929092169182179055604051908152a1005b346101c25760203660031901126101c2576001600160a01b036105e7610dd3565b165f526006602052602060ff60405f2054166040519015158152f35b346101c2575f3660031901126101c25760206040515f8152f35b346101c25760403660031901126101c257610636610dd3565b6024359061066e337f00000000000000000000000000000000000000000000000000000000000000006001600160a01b031614611598565b6001600160a01b038116156107b057610688821515610e2d565b6002546040516370a0823160e01b81523060048201526001600160a01b039091169290602081602481875afa80156107395782915f9161077b575b50106107445760405163a9059cbb60e01b81526001600160a01b03929092166004830152602482015290602090829060449082905f905af180156107395761070757005b6020813d602011610731575b8161072060209383610e64565b810103126101c25761001a906115d1565b3d9150610713565b6040513d5f823e3d90fd5b60405162461bcd60e51b815260206004820152600f60248201526e0696e73756666696369656e74204c5608c1b6044820152606490fd5b9150506020813d6020116107a8575b8161079760209383610e64565b810103126101c257819051856106c3565b3d915061078a565b60405162461bcd60e51b815260206004820152600b60248201526a0726563697069656e743d360ac1b6044820152606490fd5b346101c25760403660031901126101c2576107fc610dd3565b602435908115158092036101c2576108126128eb565b6001600160a01b03169081156108675760207f4061c6ee197e7348b913041560723a72c66510797f56b370c11f003dbb35c34c91835f526006825260405f2060ff1981541660ff8316179055604051908152a2005b60405162461bcd60e51b815260206004820152600860248201526707461726765743d360c41b6044820152606490fd5b346101c25760403660031901126101c2576108b0610dbd565b6004355f525f60205260405f209060018060a01b03165f52602052602060ff60405f2054166040519015158152f35b346101c25760603660031901126101c25761001a6108fb610dd3565b610903610dbd565b61090b61289c565b6044359161148d565b346101c2575f3660031901126101c25760206040517fa49807205ce4d355092ef5a8a18f56e8913cf4a201fbe287825b095693c217758152f35b346101c2575f3660031901126101c2576020610968611418565b604051908152f35b346101c25760403660031901126101c25760043567ffffffffffffffff81116101c2576109a461001a913690600401610dff565b6109ac610dbd565b916109b561289c565b610fd7565b346101c25760803660031901126101c2576109d3610dd3565b6024359060443567ffffffffffffffff81116101c2576109f7903690600401610dff565b9290610a01610de9565b92610a0a61289c565b6001600160a01b0316918215610c05576001600160a01b03841615610bd1578415610b9d57610a3a811515610e2d565b6040516370a0823160e01b8152306004820152602081602481875afa908115610739575f91610b67575b50610aad95610aa893610a8684610a7f5f9687961015610e9a565b8888612b89565b8160405192839283378101838152039082875af1610aa2610edd565b50610f1c565b612a9a565b6040516370a0823160e01b81523060048201527f0000000000000000000000000000000000000000000000000000000000000000906020816024816001600160a01b0386165afa908115610739575f91610b35575b5080610b0a57005b61001a917f000000000000000000000000000000000000000000000000000000000000000090612c7d565b90506020813d602011610b5f575b81610b5060209383610e64565b810103126101c2575182610b02565b3d9150610b43565b9190506020823d602011610b95575b81610b8360209383610e64565b810103126101c2579051610aad610a64565b3d9150610b76565b60405162461bcd60e51b815260206004820152600c60248201526b6e6f2073776170206461746160a01b6044820152606490fd5b60405162461bcd60e51b815260206004820152600c60248201526b061676772656761746f723d360a41b6044820152606490fd5b60405162461bcd60e51b81526020600482015260096024820152680746f6b656e496e3d360bc1b6044820152606490fd5b346101c25760403660031901126101c257610c4f610dbd565b336001600160a01b03821603610c6b5761001a90600435612a1a565b63334bd91960e11b5f5260045ffd5b346101c2575f3660031901126101c2576020600554604051908152f35b346101c2575f3660031901126101c2576003546040516001600160a01b039091168152602090f35b346101c25760403660031901126101c25761001a600435610cde610dbd565b90610cf761037c825f525f602052600160405f20015490565b612992565b346101c25760203660031901126101c25760206109686004355f525f602052600160405f20015490565b346101c2575f3660031901126101c2576040517f00000000000000000000000000000000000000000000000000000000000000006001600160a01b03168152602090f35b346101c25760203660031901126101c2576004359063ffffffff60e01b82168092036101c257602091637965db0b60e01b8114908115610dac575b5015158152f35b6301ffc9a760e01b14905083610da5565b602435906001600160a01b03821682036101c257565b600435906001600160a01b03821682036101c257565b606435906001600160a01b03821682036101c257565b9181601f840112156101c25782359167ffffffffffffffff83116101c257602083818601950101116101c257565b15610e3457565b60405162461bcd60e51b81526020600482015260086024820152670616d6f756e743d360c41b6044820152606490fd5b90601f8019910116810190811067ffffffffffffffff821117610e8657604052565b634e487b7160e01b5f52604160045260245ffd5b15610ea157565b60405162461bcd60e51b8152602060048201526014602482015273696e73756666696369656e742062616c616e636560601b6044820152606490fd5b3d15610f17573d9067ffffffffffffffff8211610e865760405191610f0c601f8201601f191660200184610e64565b82523d5f602084013e565b606090565b15610f2357565b60405162461bcd60e51b815260206004820152600b60248201526a1cddd85c0819985a5b195960aa1b6044820152606490fd5b91908260409103126101c2576020825192015190565b908160209103126101c257516001600160a01b03811681036101c25790565b15610f9257565b60405162461bcd60e51b815260206004820152601a60248201527f61676772656761746f72206e6f742077686974656c69737465640000000000006044820152606490fd5b600254919290916001600160a01b031680156113e2576040516370a0823160e01b815230600482015290602082602481845afa918215610739575f926113ae575b5081156113a75760408051633f34d4cf60e21b8152600481019390935230602484015290829060449082905f905af1801561073957611379575b50600254604051630dfe168160e01b815291906001600160a01b0316602083600481845afa908115610739576004935f92611357575b506020906040519485809263d21220a760e01b82525afa928315610739575f93611326575b506040516370a0823160e01b81523060048201526001600160a01b0382169590946020866024818a5afa958615610739575f966112f2575b506040516370a0823160e01b81523060048201526001600160a01b038616956020826024818a5afa918215610739575f926112ac575b509160209695939160249895937f00000000000000000000000000000000000000000000000000000000000000009a60018060a01b038c16988980921415806112a3575b80611299575b1561122c57505050505f610aa8928192610a8661119b9860018060a01b038916855260068c52610a7f60ff604087205416610f8b565b6040516370a0823160e01b815230600482015292839182905afa908115610739575f916111fa575b50806111cd575050565b6111f8917f000000000000000000000000000000000000000000000000000000000000000090612c7d565b565b90506020813d602011611224575b8161121560209383610e64565b810103126101c257515f6111c3565b3d9150611208565b919550919650141580611290575b80611286575b61124f575b505050505061119b565b5f610aa8928192610a8661127c9860018060a01b038916855260068c52610a7f60ff604087205416610f8b565b5f80808080611245565b5060028211611240565b5084151561123a565b5060028611611165565b5088151561115f565b96959391509693916020873d6020116112ea575b816112cd60209383610e64565b810103126101c2576024976020975192949697509092949761111b565b3d91506112c0565b9095506020813d60201161131e575b8161130e60209383610e64565b810103126101c25751945f6110e5565b3d9150611301565b61134991935060203d602011611350575b6113418183610e64565b810190610f6c565b915f6110ad565b503d611337565b602091925061137290823d8411611350576113418183610e64565b9190611088565b61139a9060403d6040116113a0575b6113928183610e64565b810190610f56565b50611052565b503d611388565b5050505050565b9091506020813d6020116113da575b816113ca60209383610e64565b810103126101c25751905f611018565b3d91506113bd565b60405162461bcd60e51b815260206004820152600e60248201526d1a5cdb185b99081b9bdd081cd95d60921b6044820152606490fd5b6002546001600160a01b03168015611488576020602491604051928380926370a0823160e01b82523060048301525afa908115610739575f91611459575090565b90506020813d602011611480575b8161147460209383610e64565b810103126101c2575190565b3d9150611467565b505f90565b6001600160a01b0316908115611569576001600160a01b0381161561153e576040516370a0823160e01b815230600482015291602083602481845afa928315610739575f9361150a575b508215611504576111f893806114fa57506114f5835b841115610e9a565b612c7d565b6114f590936114ed565b50505050565b9092506020813d602011611536575b8161152660209383610e64565b810103126101c25751915f6114d7565b3d9150611519565b606460405162461bcd60e51b81526020600482015260046024820152630746f3d360e41b6044820152fd5b60405162461bcd60e51b81526020600482015260076024820152660746f6b656e3d360cc1b6044820152606490fd5b1561159f57565b60405162461bcd60e51b815260206004820152600a6024820152691bdb9b1e481d985d5b1d60b21b6044820152606490fd5b519081151582036101c257565b908160609103126101c2578051916040602083015192015190565b60025494965f9692956001600160a01b0316939184159081156120e7575b506120dd57604051630dfe168160e01b815297602089600481885afa948515610739576004995f966120bb575b506020906040519a8b809263d21220a760e01b82525afa988915610739575f9961209a575b506001600160a01b0389811697736969696969696969696969696969696969696969918716828114989096928a149590919060028311611e58575b50505060028311611c01575b505050835f14611b935747905b8015611b305747915b801580611b28575b611abe5760018060a01b03600254169260405191634c4a790d60e11b835260048301526024820152606081604481865afa801561196d57889289928a92611a86575b508115611a51578991829189159686888099611a48575b611a37575b50508015998d868c80611a2e575b611a0f575b5050156119fc575084905b6002546040516394bf804d60e01b6020820190815260248201939093523060448083019190915281526001600160a01b03909116929061178b606482610e64565b51925af1611797610edd565b50156119c257828692816119b8575b5061199d575b81611993575b50611978575b6040516370a0823160e01b81523060048201527f0000000000000000000000000000000000000000000000000000000000000000906020816024816001600160a01b0386165afa90811561196d57889161193b575b5080611909575b5050611867575b505061182657505050565b6020602491604051928380926370a0823160e01b82523060048301525afa91821561185b57916111fa5750806111cd575b5050565b604051903d90823e3d90fd5b6020602491604051928380926370a0823160e01b82523060048301525afa9081156118fe5785916118cc575b50801561181b576118c5917f000000000000000000000000000000000000000000000000000000000000000090612c7d565b5f8061181b565b90506020813d6020116118f6575b816118e760209383610e64565b810103126101c257515f611893565b3d91506118da565b6040513d87823e3d90fd5b611934917f000000000000000000000000000000000000000000000000000000000000000090612c7d565b5f80611814565b90506020813d602011611965575b8161195660209383610e64565b810103126101c257515f61180d565b3d9150611949565b6040513d8a823e3d90fd5b60025461198e906001600160a01b031688612a9a565b6117b8565b905015155f6117b2565b6002546119b3906001600160a01b031686612a9a565b6117ac565b905015155f6117a6565b60405162461bcd60e51b81526020600482015260126024820152711a5cdb185b99081b5a5b9d0819985a5b195960721b6044820152606490fd5b15611a0957835b9061174a565b81611a03565b600254611a27926001600160a01b0390911690612b89565b8d8661173f565b5080151561173a565b611a41918b612b89565b5f8661172c565b50801515611727565b60405162461bcd60e51b815260206004820152600d60248201526c06d696e7420616d6f756e74203609c1b6044820152606490fd5b91509250611aac915060603d606011611ab7575b611aa48183610e64565b8101906115de565b91929091905f611710565b503d611a9a565b50506040516370a0823160e01b81523060048201527f00000000000000000000000000000000000000000000000000000000000000009750945060209350849250602491508290506001600160a01b0387165afa91821561185b57916111fa5750806111cd575050565b5082156116ce565b6040516370a0823160e01b81523060048201526020816024818a5afa90811561196d578891611b61575b50916116c6565b90506020813d602011611b8b575b81611b7c60209383610e64565b810103126101c257515f611b5a565b3d9150611b6f565b6040516370a0823160e01b8152306004820152602081602481865afa908115611bf6578791611bc4575b50906116bd565b90506020813d602011611bee575b81611bdf60209383610e64565b810103126101c257515f611bbd565b3d9150611bd2565b6040513d89823e3d90fd5b6001600160a01b03821689526006602052604089205460ff1615611e1c576040516370a0823160e01b81523060048201527f000000000000000000000000000000000000000000000000000000000000000093906020816024816001600160a01b0389165afa908115611e1157908b92918391611dd8575b5092611c8783948688612b89565b8160405192839283378101838152039082855af1611ca3610edd565b5015611da457611cb291612a9a565b8080611d90575b611cc6575b5f80806116b0565b6003546040516370a0823160e01b81523060048201526001600160a01b0390911690602081602481855afa90811561196d578891611d5e575b5080611d0d575b5050611cbe565b813b15611d5a578791602483926040519485938492632e1a7d4d60e01b845260048401525af18015611bf65790879115611d065781611d4b91610e64565b611d5657855f611d06565b8580fd5b8780fd5b90506020813d602011611d88575b81611d7960209383610e64565b810103126101c257515f611cff565b3d9150611d6c565b506003546001600160a01b03161515611cb9565b60405162461bcd60e51b815260206004820152600c60248201526b1cddd85c0c4819985a5b195960a21b6044820152606490fd5b9250506020823d602011611e09575b81611df460209383610e64565b810103126101c25790518a9190611c87611c79565b3d9150611de7565b6040513d8d823e3d90fd5b60405162461bcd60e51b81526020600482015260146024820152731859d9cc481b9bdd081dda1a5d195b1a5cdd195960621b6044820152606490fd5b6001600160a01b0382165f9081526006602052604090205460ff161561205e576040516370a0823160e01b81523060048201527f000000000000000000000000000000000000000000000000000000000000000093906020816024816001600160a01b0389165afa908115610739575f9161202a575b50905f92611ede84938688612b89565b8160405192839283378101838152039082855af1611efa610edd565b5015611ff657611f0991612a9a565b8680611fe2575b611f1d575b5f80806116a4565b6003546040516370a0823160e01b81523060048201526001600160a01b0390911690602081602481855afa908115610739575f91611fb0575b5080611f64575b5050611f15565b813b156101c2575f91602483926040519485938492632e1a7d4d60e01b845260048401525af1801561073957611f9b575b80611f5d565b611fa89199505f90610e64565b5f975f611f95565b90506020813d602011611fda575b81611fcb60209383610e64565b810103126101c257515f611f56565b3d9150611fbe565b506003546001600160a01b03161515611f10565b60405162461bcd60e51b815260206004820152600c60248201526b1cddd85c0c0819985a5b195960a21b6044820152606490fd5b9190506020823d602011612056575b8161204660209383610e64565b810103126101c25790515f611ece565b3d9150612039565b60405162461bcd60e51b81526020600482015260146024820152731859d9cc081b9bdd081dda1a5d195b1a5cdd195960621b6044820152606490fd5b6120b491995060203d602011611350576113418183610e64565b975f611669565b60209196506120d690823d8411611350576113418183610e64565b9590611644565b5050505050505050565b9050155f611617565b6002546001600160a01b0316908115801561254e575b6118575761211390612dd2565b604051630dfe168160e01b815290602082600481845afa918215610739576024926020915f91612531575b506040516370a0823160e01b815230600482015293849182906001600160a01b03165afa918215610739575f926124fc575b5060206004916040519283809263d21220a760e01b82525afa908115610739576024916020915f916124df575b506040516370a0823160e01b815230600482015292839182906001600160a01b03165afa908115610739575f916124ad575b508115806124a5575b61244557600254604051634c4a790d60e11b815260048101939093526024830191909152606090829060449082906001600160a01b03165afa8015610739575f5f925f92612421575b5081156123c057600254604051630dfe168160e01b815291906001600160a01b0316602083600481845afa801561073957612263935f916123a1575b50612b89565b60025460405163d21220a760e01b81526001600160a01b0390911691602082600481865afa918215610739575f946040946122e1946122a89388916123a15750612b89565b60025483516394bf804d60e01b81526004810192909252306024830152909384926001600160a01b039092169183919082906044820190565b03925af1801561073957612383575b50600254604051630dfe168160e01b8152906001600160a01b0316602082600481845afa80156107395761232b925f91612364575b50612a9a565b60025460405163d21220a760e01b8152906001600160a01b0316602082600481845afa8015610739576111f8925f916123645750612a9a565b61237d915060203d602011611350576113418183610e64565b5f612325565b61239b9060403d6040116113a0576113928183610e64565b506122f0565b6123ba915060203d602011611350576113418183610e64565b5f61225d565b50506040516370a0823160e01b81523060048201527f000000000000000000000000000000000000000000000000000000000000000091506020816024816001600160a01b0386165afa908115610739575f916111fa5750806111cd575050565b91505061243d915060603d606011611ab757611aa48183610e64565b90915f612221565b50506040516370a0823160e01b81523060048201527f0000000000000000000000000000000000000000000000000000000000000000906020816024816001600160a01b0386165afa908115610739575f916111fa5750806111cd575050565b5080156121d8565b90506020813d6020116124d7575b816124c860209383610e64565b810103126101c257515f6121cf565b3d91506124bb565b6124f69150823d8411611350576113418183610e64565b5f61219d565b9091506020813d602011612529575b8161251860209383610e64565b810103126101c25751906020612170565b3d915061250b565b6125489150823d8411611350576113418183610e64565b5f61213e565b508015612106565b8015612886576001546001600160a01b0316158015612889575b612886576040516370a0823160e01b81523060048201527f0000000000000000000000000000000000000000000000000000000000000000916001600160a01b03831691602081602481865afa80156107395782915f91612851575b501015612824576125dc816130e4565b90918291156113a7576002546040516370a0823160e01b81523060048201526001600160a01b039091169390602081602481885afa908115610739575f916127f2575b508091116127ea575b5081156113a757612638906132da565b93909193156127e25760408051633f34d4cf60e21b81526004810185905230602482015291829060449082905f905af190816127c4575b506127b4579060a46060925f60018060a01b036001541660018060a01b0360025416926040519788968795632cfc215960e11b875260048701526024860152604485015260648401523060848401525af19081612769575b506126d0575050565b60206024916126dd61343a565b6040516370a0823160e01b815230600482015292839182905afa908115610739575f91612737575b508015611857576111f8917f000000000000000000000000000000000000000000000000000000000000000090612c7d565b90506020813d602011612761575b8161275260209383610e64565b810103126101c257515f612705565b3d9150612745565b6060813d6060116127ac575b8161278260609383610e64565b810103126101c257604001516fffffffffffffffffffffffffffffffff8116036101c2575f6126c7565b3d9150612775565b505050602060249161119b61343a565b6127dc9060403d6040116113a0576113928183610e64565b5061266f565b505050505050565b91505f612628565b90506020813d60201161281c575b8161280d60209383610e64565b810103126101c257515f61261f565b3d9150612800565b90506111f8917f000000000000000000000000000000000000000000000000000000000000000090612c7d565b9150506020813d60201161287e575b8161286d60209383610e64565b810103126101c2578190515f6125cc565b3d9150612860565b50565b506002546001600160a01b031615612570565b335f9081527fad3228b676f7d3cd4284a5443f17f1962b36e491b30a40b2405849e597ba5fb5602052604090205460ff16156128d457565b63e2517d3f60e01b5f52336004525f60245260445ffd5b335f9081527f7d7ffb7a348e1c6a02869081a26547b49160dd3df72d1d75a570eb9b698292ec602052604090205460ff161561292357565b63e2517d3f60e01b5f52336004527fa49807205ce4d355092ef5a8a18f56e8913cf4a201fbe287825b095693c2177560245260445ffd5b5f8181526020818152604080832033845290915290205460ff161561297c5750565b63e2517d3f60e01b5f523360045260245260445ffd5b5f818152602081815260408083206001600160a01b038616845290915290205460ff16612a14575f818152602081815260408083206001600160a01b0395909516808452949091528120805460ff19166001179055339291907f2f8788117e7eff1d82e926ec794901d17c78024a50270940304540a733656f0d9080a4600190565b50505f90565b5f818152602081815260408083206001600160a01b038616845290915290205460ff1615612a14575f818152602081815260408083206001600160a01b0395909516808452949091528120805460ff19169055339291907ff6391f5c32d9c69d2a47ea670b442974b53935d1edc7fd64eb21e047a839171b9080a4600190565b60405190602082019263095ea7b360e01b845260018060a01b0316928360248401525f604484015260448352612ad1606484610e64565b82516001600160a01b038316915f91829182855af190612aef610edd565b82612b4f575b5081612b44575b5015612b0757505050565b612b3f6111f8936040519063095ea7b360e01b602083015260248201525f604482015260448152612b39606482610e64565b826135f7565b6135f7565b90503b15155f612afc565b80519192508115918215612b67575b5050905f612af5565b81925090602091810103126101c2576020612b8291016115d1565b5f80612b5e565b60405163095ea7b360e01b602082019081526001600160a01b03841660248301526044808301959095529381529192612bc3606484610e64565b82516001600160a01b038316915f91829182855af190612be1610edd565b82612c43575b5081612c38575b5015612bf957505050565b60405163095ea7b360e01b60208201526001600160a01b0390931660248401525f60448085019190915283526111f892612b3f90612b39606482610e64565b90503b15155f612bee565b80519192508115918215612c5b575b5050905f612be7565b81925090602091810103126101c2576020612c7691016115d1565b5f80612c52565b60405163a9059cbb60e01b60208201526001600160a01b039290921660248301526044808301939093529181526111f891612b3f606483610e64565b519061ffff821682036101c257565b81810292918115918404141715612cdb57565b634e487b7160e01b5f52601160045260245ffd5b8115612cf9570490565b634e487b7160e01b5f52601260045260245ffd5b5f908015612a14578080600114612dbd57600214612db65760016101338210166001600b83101617612da8579060019060025b60018111612d6c5750825f19048211612d5857500290565b634e487b7160e01b81526011600452602490fd5b92805f19048111612d945760018416612d8b575b80029260011c612d40565b80920291612d80565b634e487b7160e01b82526011600452602482fd5b6002900a919080612d585750565b5050600490565b505050600190565b91908201809211612cdb57565b6001546001600160a01b03161561288657600254604051630dfe168160e01b815291906001600160a01b0316602083600481845afa928315610739575f936130c3575b5060405163d21220a760e01b8152602081600481855afa908115610739575f916130a4575b506040516316f0115b60e01b815290602082600481865afa918215610739575f92613060575b507f00000000000000000000000000000000000000000000000000000000000000006001600160a01b0390811695168514948515918261304c575b505061150457604051633850c7bd60e01b81529060e090829060049082906001600160a01b03165afa908115610739575f91612fb8575b506001600160a01b0316670de0b6b3a7640000818102929180840490911490151715612cdb576040612f0860049360601c612d0d565b918151938480926304c8b65560e21b82525afa918215610739575f905f93612f7b575b50612f49612f51926ec097ce7bc90715b34b9f100000000092612cc8565b049182612dc5565b801561150457612f64612f699284612cc8565b612cef565b918183810311612cdb57611857575050565b612f519293506ec097ce7bc90715b34b9f10000000009150612fae612f499160403d6040116113a0576113928183610e64565b9493509150612f2b565b905060e0813d60e011613044575b81612fd360e09383610e64565b810103126101c2578051906001600160a01b03821682036101c25760208101518060020b036101c25761300860408201612cb9565b5061301560608201612cb9565b5061302260808201612cb9565b5060a081015160ff8116036101c25760c061303d91016115d1565b505f612ed2565b3d9150612fc6565b6001600160a01b0316141590505f80612e9b565b9091506020813d60201161309c575b8161307c60209383610e64565b810103126101c257516001600160a01b03811681036101c257905f612e60565b3d915061306f565b6130bd915060203d602011611350576113418183610e64565b5f612e3a565b6130dd91935060203d602011611350576113418183610e64565b915f612e15565b600254604051630dfe168160e01b81526001600160a01b039091169190602081600481865afa908115610739575f916132bb575b5060405163d21220a760e01b8152602081600481875afa908115610739575f9161329c575b507f00000000000000000000000000000000000000000000000000000000000000006001600160a01b03908116921682149182159182613288575b505061321057604080516304c8b65560e21b8152919082600481875afa908115610739576004945f935f93613260575b50602090604051968780926318160ddd60e01b82525afa948515610739575f9561322c575b50841561322157156132195750915b8215613210576131f083916131f593612cc8565b612dc5565b5f19810191908211612cdb5761320a91612cef565b90600190565b5050505f905f90565b9050916131dc565b50505050505f905f90565b9094506020813d602011613258575b8161324860209383610e64565b810103126101c25751935f6131cd565b3d915061323b565b6020945061327e91935060403d6040116113a0576113928183610e64565b93909392906131a8565b6001600160a01b0316141590505f80613178565b6132b5915060203d602011611350576113418183610e64565b5f61313d565b6132d4915060203d602011611350576113418183610e64565b5f613118565b600254604051630dfe168160e01b81529291906001600160a01b0316602084600481845afa908115610739576004945f92613418575b506020906040519586809263d21220a760e01b82525afa938415610739575f946133f7575b507f00000000000000000000000000000000000000000000000000000000000000006001600160a01b039081169481168514949116148015806133ef575b6133e45781600554801515806133d8575b6133b0575b5050156133a95780925b156133a157915b9190600190565b505f9161339a565b5f92613393565b9091925061271003906127108211612cdb57612710916133cf91612cc8565b04905f80613389565b50612710811115613384565b505f92508291829150565b508315613373565b61341191945060203d602011611350576113418183610e64565b925f613335565b602091925061343390823d8411611350576113418183610e64565b9190613310565b6002546001600160a01b0316801561288657604051630dfe168160e01b815290602082600481845afa908115610739576004925f926135d5575b506020906040519384809263d21220a760e01b82525afa918215610739575f926135b4575b506001600160a01b037f000000000000000000000000000000000000000000000000000000000000000081169190811682810361351d575b50506001600160a01b0382169081036134e8575050565b6020602491604051928380926370a0823160e01b82523060048301525afa908115610739575f916111fa5750806111cd575050565b6020602491604051928380926370a0823160e01b82523060048301525afa908115610739575f91613582575b5080156134d15761357b917f000000000000000000000000000000000000000000000000000000000000000090612c7d565b5f806134d1565b90506020813d6020116135ac575b8161359d60209383610e64565b810103126101c257515f613549565b3d9150613590565b6135ce91925060203d602011611350576113418183610e64565b905f613499565b60209192506135f090823d8411611350576113418183610e64565b9190613474565b5f8061361f9260018060a01b03169360208151910182865af1613618610edd565b908361366a565b8051908115159182613647575b50506136355750565b635274afe760e01b5f5260045260245ffd5b81925090602091810103126101c257602061366291016115d1565b155f8061362c565b9061368e575080511561367f57805190602001fd5b630a12f52160e11b5f5260045ffd5b815115806136bf575b61369f575090565b639996b31560e01b5f9081526001600160a01b0391909116600452602490fd5b50803b1561369756fea2646970667358221220eda13b903b41c571e58d325c4605326916e9c9604873aa6c056edd7411a4cccf64736f6c634300081e00332f8788117e7eff1d82e926ec794901d17c78024a50270940304540a733656f0d7d7ffb7a348e1c6a02869081a26547b49160dd3df72d1d75a570eb9b698292ecad3228b676f7d3cd4284a5443f17f1962b36e491b30a40b2405849e597ba5fb5","linkReferences":{}},"methodIdentifiers":{"ADMIN_ROLE()":"75b238fc","DEFAULT_ADMIN_ROLE()":"a217fddf","NATIVE_BERA()":"f6b5d69f","adminLiquidateAll(bytes,address)":"570b06ac","adminRescueTokens(address,address,uint256)":"879905a1","adminSwapAndReturnToVault(address,uint256,bytes,address)":"41bbfe79","assetToken()":"1083f761","ensureFundsAvailable(uint256)":"ff6e3979","getIslandLPBalance()":"5a57d31b","getRoleAdmin(bytes32)":"248a9ca3","grantRole(bytes32,address)":"2f2ff15d","hasRole(bytes32,address)":"91d14854","island()":"db5537e1","minAssetOutBps()":"321968e1","minSharesPerAssetBps()":"c07aa9cb","onAfterDeposit(uint256)":"fc1c96e6","onAfterDepositWithSwaps(uint256,address,bytes,address,bytes)":"d52788b8","renounceRole(bytes32,address)":"36568abe","revokeRole(bytes32,address)":"d547741f","router()":"f887ea40","setAggregatorWhitelisted(address,bool)":"98724a24","setIsland(address)":"b4f1b69c","setRouter(address)":"c0d78655","setSlippage(uint256,uint256)":"bc9ef3e0","setWBERA(address)":"d5560f45","supportsInterface(bytes4)":"01ffc9a7","transferIslandLP(address,uint256)":"9bd70f5d","vault()":"fbfa77cf","wbera()":"31f41a33","whitelistedAggregators(address)":"b24c7d2f"},"id":71}