{"abi":[{"type":"constructor","inputs":[],"stateMutability":"nonpayable"},{"type":"function","name":"UPGRADE_INTERFACE_VERSION","inputs":[],"outputs":[{"name":"","type":"string","internalType":"string"}],"stateMutability":"view"},{"type":"function","name":"addWhitelistedDepositor","inputs":[{"name":"depositor","type":"address","internalType":"address"}],"outputs":[],"stateMutability":"nonpayable"},{"type":"function","name":"addWhitelistedLP","inputs":[{"name":"lp","type":"address","internalType":"address"}],"outputs":[],"stateMutability":"nonpayable"},{"type":"function","name":"addWhitelistedLPToken","inputs":[{"name":"lpToken","type":"address","internalType":"address"}],"outputs":[],"stateMutability":"nonpayable"},{"type":"function","name":"admin","inputs":[],"outputs":[{"name":"","type":"address","internalType":"address"}],"stateMutability":"view"},{"type":"function","name":"allowance","inputs":[{"name":"owner","type":"address","internalType":"address"},{"name":"spender","type":"address","internalType":"address"}],"outputs":[{"name":"","type":"uint256","internalType":"uint256"}],"stateMutability":"view"},{"type":"function","name":"approve","inputs":[{"name":"spender","type":"address","internalType":"address"},{"name":"amount","type":"uint256","internalType":"uint256"}],"outputs":[{"name":"","type":"bool","internalType":"bool"}],"stateMutability":"nonpayable"},{"type":"function","name":"backingRatio","inputs":[],"outputs":[{"name":"","type":"uint256","internalType":"uint256"}],"stateMutability":"view"},{"type":"function","name":"balanceOf","inputs":[{"name":"account","type":"address","internalType":"address"}],"outputs":[{"name":"","type":"uint256","internalType":"uint256"}],"stateMutability":"view"},{"type":"function","name":"calculateWithdrawalPenalty","inputs":[{"name":"user","type":"address","internalType":"address"},{"name":"amount","type":"uint256","internalType":"uint256"}],"outputs":[{"name":"penalty","type":"uint256","internalType":"uint256"},{"name":"netAmount","type":"uint256","internalType":"uint256"}],"stateMutability":"view"},{"type":"function","name":"canWithdrawWithoutPenalty","inputs":[{"name":"user","type":"address","internalType":"address"}],"outputs":[{"name":"","type":"bool","internalType":"bool"}],"stateMutability":"view"},{"type":"function","name":"cooldownStart","inputs":[{"name":"user","type":"address","internalType":"address"}],"outputs":[{"name":"","type":"uint256","internalType":"uint256"}],"stateMutability":"view"},{"type":"function","name":"currentZone","inputs":[],"outputs":[{"name":"","type":"uint8","internalType":"enum SpilloverLib.Zone"}],"stateMutability":"view"},{"type":"function","name":"decimals","inputs":[],"outputs":[{"name":"","type":"uint8","internalType":"uint8"}],"stateMutability":"pure"},{"type":"function","name":"deployToKodiak","inputs":[{"name":"amount","type":"uint256","internalType":"uint256"},{"name":"minLPTokens","type":"uint256","internalType":"uint256"},{"name":"swapToToken0Aggregator","type":"address","internalType":"address"},{"name":"swapToToken0Data","type":"bytes","internalType":"bytes"},{"name":"swapToToken1Aggregator","type":"address","internalType":"address"},{"name":"swapToToken1Data","type":"bytes","internalType":"bytes"}],"outputs":[],"stateMutability":"nonpayable"},{"type":"function","name":"deployer","inputs":[],"outputs":[{"name":"","type":"address","internalType":"address"}],"stateMutability":"view"},{"type":"function","name":"deposit","inputs":[{"name":"assets","type":"uint256","internalType":"uint256"},{"name":"receiver","type":"address","internalType":"address"}],"outputs":[{"name":"shares","type":"uint256","internalType":"uint256"}],"stateMutability":"nonpayable"},{"type":"function","name":"depositCap","inputs":[],"outputs":[{"name":"","type":"uint256","internalType":"uint256"}],"stateMutability":"view"},{"type":"function","name":"depositToken","inputs":[],"outputs":[{"name":"","type":"address","internalType":"contract IERC20"}],"stateMutability":"view"},{"type":"function","name":"emergencyWithdraw","inputs":[{"name":"amount","type":"uint256","internalType":"uint256"}],"outputs":[],"stateMutability":"nonpayable"},{"type":"function","name":"epoch","inputs":[],"outputs":[{"name":"","type":"uint256","internalType":"uint256"}],"stateMutability":"view"},{"type":"function","name":"getLPBalance","inputs":[{"name":"lpToken","type":"address","internalType":"address"}],"outputs":[{"name":"","type":"uint256","internalType":"uint256"}],"stateMutability":"view"},{"type":"function","name":"getLPHoldings","inputs":[],"outputs":[{"name":"holdings","type":"tuple[]","internalType":"struct UnifiedSeniorVault.LPHolding[]","components":[{"name":"lpToken","type":"address","internalType":"address"},{"name":"amount","type":"uint256","internalType":"uint256"}]}],"stateMutability":"view"},{"type":"function","name":"getLPTokenBalance","inputs":[{"name":"lpToken","type":"address","internalType":"address"}],"outputs":[{"name":"","type":"uint256","internalType":"uint256"}],"stateMutability":"view"},{"type":"function","name":"getLPTokenHoldings","inputs":[],"outputs":[{"name":"holdings","type":"tuple[]","internalType":"struct UnifiedSeniorVault.LPHolding[]","components":[{"name":"lpToken","type":"address","internalType":"address"},{"name":"amount","type":"uint256","internalType":"uint256"}]}],"stateMutability":"view"},{"type":"function","name":"getWhitelistedLPTokens","inputs":[],"outputs":[{"name":"","type":"address[]","internalType":"address[]"}],"stateMutability":"view"},{"type":"function","name":"getWhitelistedLPs","inputs":[],"outputs":[{"name":"","type":"address[]","internalType":"address[]"}],"stateMutability":"view"},{"type":"function","name":"initialize","inputs":[{"name":"stablecoin_","type":"address","internalType":"address"},{"name":"tokenName_","type":"string","internalType":"string"},{"name":"tokenSymbol_","type":"string","internalType":"string"},{"name":"juniorVault_","type":"address","internalType":"address"},{"name":"reserveVault_","type":"address","internalType":"address"},{"name":"treasury_","type":"address","internalType":"address"},{"name":"initialValue_","type":"uint256","internalType":"uint256"}],"outputs":[],"stateMutability":"nonpayable"},{"type":"function","name":"initiateCooldown","inputs":[],"outputs":[],"stateMutability":"nonpayable"},{"type":"function","name":"investInLP","inputs":[{"name":"lp","type":"address","internalType":"address"},{"name":"amount","type":"uint256","internalType":"uint256"}],"outputs":[],"stateMutability":"nonpayable"},{"type":"function","name":"isAdmin","inputs":[{"name":"account","type":"address","internalType":"address"}],"outputs":[{"name":"","type":"bool","internalType":"bool"}],"stateMutability":"view"},{"type":"function","name":"isDepositCapReached","inputs":[],"outputs":[{"name":"","type":"bool","internalType":"bool"}],"stateMutability":"view"},{"type":"function","name":"isWhitelistedDepositor","inputs":[{"name":"depositor","type":"address","internalType":"address"}],"outputs":[{"name":"","type":"bool","internalType":"bool"}],"stateMutability":"view"},{"type":"function","name":"isWhitelistedLP","inputs":[{"name":"lp","type":"address","internalType":"address"}],"outputs":[{"name":"","type":"bool","internalType":"bool"}],"stateMutability":"view"},{"type":"function","name":"isWhitelistedLPToken","inputs":[{"name":"lpToken","type":"address","internalType":"address"}],"outputs":[{"name":"","type":"bool","internalType":"bool"}],"stateMutability":"view"},{"type":"function","name":"juniorVault","inputs":[],"outputs":[{"name":"","type":"address","internalType":"address"}],"stateMutability":"view"},{"type":"function","name":"kodiakHook","inputs":[],"outputs":[{"name":"","type":"address","internalType":"contract IKodiakVaultHook"}],"stateMutability":"view"},{"type":"function","name":"lastRebaseTime","inputs":[],"outputs":[{"name":"","type":"uint256","internalType":"uint256"}],"stateMutability":"view"},{"type":"function","name":"lastUpdateTime","inputs":[],"outputs":[{"name":"","type":"uint256","internalType":"uint256"}],"stateMutability":"view"},{"type":"function","name":"minRebaseInterval","inputs":[],"outputs":[{"name":"","type":"uint256","internalType":"uint256"}],"stateMutability":"view"},{"type":"function","name":"name","inputs":[],"outputs":[{"name":"","type":"string","internalType":"string"}],"stateMutability":"view"},{"type":"function","name":"pause","inputs":[],"outputs":[],"stateMutability":"nonpayable"},{"type":"function","name":"paused","inputs":[],"outputs":[{"name":"","type":"bool","internalType":"bool"}],"stateMutability":"view"},{"type":"function","name":"previewDeposit","inputs":[{"name":"assets","type":"uint256","internalType":"uint256"}],"outputs":[{"name":"","type":"uint256","internalType":"uint256"}],"stateMutability":"view"},{"type":"function","name":"previewWithdraw","inputs":[{"name":"amount","type":"uint256","internalType":"uint256"}],"outputs":[{"name":"","type":"uint256","internalType":"uint256"}],"stateMutability":"view"},{"type":"function","name":"proxiableUUID","inputs":[],"outputs":[{"name":"","type":"bytes32","internalType":"bytes32"}],"stateMutability":"view"},{"type":"function","name":"rebase","inputs":[{"name":"lpPrice","type":"uint256","internalType":"uint256"}],"outputs":[],"stateMutability":"nonpayable"},{"type":"function","name":"rebaseIndex","inputs":[],"outputs":[{"name":"","type":"uint256","internalType":"uint256"}],"stateMutability":"view"},{"type":"function","name":"removeWhitelistedDepositor","inputs":[{"name":"depositor","type":"address","internalType":"address"}],"outputs":[],"stateMutability":"nonpayable"},{"type":"function","name":"removeWhitelistedLP","inputs":[{"name":"lp","type":"address","internalType":"address"}],"outputs":[],"stateMutability":"nonpayable"},{"type":"function","name":"removeWhitelistedLPToken","inputs":[{"name":"lpToken","type":"address","internalType":"address"}],"outputs":[],"stateMutability":"nonpayable"},{"type":"function","name":"reserveVault","inputs":[],"outputs":[{"name":"","type":"address","internalType":"address"}],"stateMutability":"view"},{"type":"function","name":"seniorVault","inputs":[],"outputs":[{"name":"","type":"address","internalType":"address"}],"stateMutability":"view"},{"type":"function","name":"setAdmin","inputs":[{"name":"admin_","type":"address","internalType":"address"}],"outputs":[],"stateMutability":"nonpayable"},{"type":"function","name":"setJuniorReserve","inputs":[{"name":"juniorVault_","type":"address","internalType":"address"},{"name":"reserveVault_","type":"address","internalType":"address"}],"outputs":[],"stateMutability":"nonpayable"},{"type":"function","name":"setKodiakHook","inputs":[{"name":"hook","type":"address","internalType":"address"}],"outputs":[],"stateMutability":"nonpayable"},{"type":"function","name":"setMinRebaseInterval","inputs":[{"name":"newInterval","type":"uint256","internalType":"uint256"}],"outputs":[],"stateMutability":"nonpayable"},{"type":"function","name":"setVaultValue","inputs":[{"name":"newValue","type":"uint256","internalType":"uint256"}],"outputs":[],"stateMutability":"nonpayable"},{"type":"function","name":"sharesOf","inputs":[{"name":"account","type":"address","internalType":"address"}],"outputs":[{"name":"","type":"uint256","internalType":"uint256"}],"stateMutability":"view"},{"type":"function","name":"simulateRebase","inputs":[],"outputs":[{"name":"selection","type":"tuple","internalType":"struct RebaseLib.APYSelection","components":[{"name":"selectedRate","type":"uint256","internalType":"uint256"},{"name":"newSupply","type":"uint256","internalType":"uint256"},{"name":"userTokens","type":"uint256","internalType":"uint256"},{"name":"feeTokens","type":"uint256","internalType":"uint256"},{"name":"apyTier","type":"uint8","internalType":"uint8"},{"name":"backstopNeeded","type":"bool","internalType":"bool"}]},{"name":"zone","type":"uint8","internalType":"enum SpilloverLib.Zone"},{"name":"newBackingRatio","type":"uint256","internalType":"uint256"}],"stateMutability":"view"},{"type":"function","name":"stablecoin","inputs":[],"outputs":[{"name":"","type":"address","internalType":"contract IERC20"}],"stateMutability":"view"},{"type":"function","name":"sweepToKodiak","inputs":[{"name":"minLPTokens","type":"uint256","internalType":"uint256"},{"name":"swapToToken0Aggregator","type":"address","internalType":"address"},{"name":"swapToToken0Data","type":"bytes","internalType":"bytes"},{"name":"swapToToken1Aggregator","type":"address","internalType":"address"},{"name":"swapToToken1Data","type":"bytes","internalType":"bytes"}],"outputs":[],"stateMutability":"nonpayable"},{"type":"function","name":"symbol","inputs":[],"outputs":[{"name":"","type":"string","internalType":"string"}],"stateMutability":"view"},{"type":"function","name":"totalAssets","inputs":[],"outputs":[{"name":"","type":"uint256","internalType":"uint256"}],"stateMutability":"view"},{"type":"function","name":"totalShares","inputs":[],"outputs":[{"name":"","type":"uint256","internalType":"uint256"}],"stateMutability":"view"},{"type":"function","name":"totalSupply","inputs":[],"outputs":[{"name":"","type":"uint256","internalType":"uint256"}],"stateMutability":"view"},{"type":"function","name":"transfer","inputs":[{"name":"to","type":"address","internalType":"address"},{"name":"amount","type":"uint256","internalType":"uint256"}],"outputs":[{"name":"","type":"bool","internalType":"bool"}],"stateMutability":"nonpayable"},{"type":"function","name":"transferAdmin","inputs":[{"name":"newAdmin","type":"address","internalType":"address"}],"outputs":[],"stateMutability":"nonpayable"},{"type":"function","name":"transferFrom","inputs":[{"name":"from","type":"address","internalType":"address"},{"name":"to","type":"address","internalType":"address"},{"name":"amount","type":"uint256","internalType":"uint256"}],"outputs":[{"name":"","type":"bool","internalType":"bool"}],"stateMutability":"nonpayable"},{"type":"function","name":"treasury","inputs":[],"outputs":[{"name":"","type":"address","internalType":"address"}],"stateMutability":"view"},{"type":"function","name":"unpause","inputs":[],"outputs":[],"stateMutability":"nonpayable"},{"type":"function","name":"updateJuniorReserve","inputs":[{"name":"juniorVault_","type":"address","internalType":"address"},{"name":"reserveVault_","type":"address","internalType":"address"}],"outputs":[],"stateMutability":"nonpayable"},{"type":"function","name":"updateVaultValue","inputs":[{"name":"profitBps","type":"int256","internalType":"int256"}],"outputs":[],"stateMutability":"nonpayable"},{"type":"function","name":"upgradeToAndCall","inputs":[{"name":"newImplementation","type":"address","internalType":"address"},{"name":"data","type":"bytes","internalType":"bytes"}],"outputs":[],"stateMutability":"payable"},{"type":"function","name":"vaultValue","inputs":[],"outputs":[{"name":"value","type":"uint256","internalType":"uint256"}],"stateMutability":"view"},{"type":"function","name":"withdraw","inputs":[{"name":"amount","type":"uint256","internalType":"uint256"},{"name":"receiver","type":"address","internalType":"address"},{"name":"owner","type":"address","internalType":"address"}],"outputs":[{"name":"assets","type":"uint256","internalType":"uint256"}],"stateMutability":"nonpayable"},{"type":"function","name":"withdrawLPTokens","inputs":[{"name":"lpToken","type":"address","internalType":"address"},{"name":"lp","type":"address","internalType":"address"},{"name":"amount","type":"uint256","internalType":"uint256"}],"outputs":[],"stateMutability":"nonpayable"},{"type":"event","name":"AdminSet","inputs":[{"name":"previousAdmin","type":"address","indexed":true,"internalType":"address"},{"name":"newAdmin","type":"address","indexed":true,"internalType":"address"}],"anonymous":false},{"type":"event","name":"AdminTransferred","inputs":[{"name":"previousAdmin","type":"address","indexed":true,"internalType":"address"},{"name":"newAdmin","type":"address","indexed":true,"internalType":"address"}],"anonymous":false},{"type":"event","name":"Approval","inputs":[{"name":"owner","type":"address","indexed":true,"internalType":"address"},{"name":"spender","type":"address","indexed":true,"internalType":"address"},{"name":"value","type":"uint256","indexed":false,"internalType":"uint256"}],"anonymous":false},{"type":"event","name":"BackstopTriggered","inputs":[{"name":"deficitAmount","type":"uint256","indexed":false,"internalType":"uint256"},{"name":"fromReserve","type":"uint256","indexed":false,"internalType":"uint256"},{"name":"fromJunior","type":"uint256","indexed":false,"internalType":"uint256"},{"name":"fullyRestored","type":"bool","indexed":false,"internalType":"bool"}],"anonymous":false},{"type":"event","name":"CooldownInitiated","inputs":[{"name":"user","type":"address","indexed":true,"internalType":"address"},{"name":"timestamp","type":"uint256","indexed":false,"internalType":"uint256"}],"anonymous":false},{"type":"event","name":"Deposit","inputs":[{"name":"user","type":"address","indexed":true,"internalType":"address"},{"name":"assets","type":"uint256","indexed":false,"internalType":"uint256"},{"name":"shares","type":"uint256","indexed":false,"internalType":"uint256"}],"anonymous":false},{"type":"event","name":"DepositorRemoved","inputs":[{"name":"depositor","type":"address","indexed":true,"internalType":"address"}],"anonymous":false},{"type":"event","name":"DepositorWhitelisted","inputs":[{"name":"depositor","type":"address","indexed":true,"internalType":"address"}],"anonymous":false},{"type":"event","name":"EmergencyWithdraw","inputs":[{"name":"to","type":"address","indexed":true,"internalType":"address"},{"name":"amount","type":"uint256","indexed":false,"internalType":"uint256"}],"anonymous":false},{"type":"event","name":"FeesCollected","inputs":[{"name":"managementFee","type":"uint256","indexed":false,"internalType":"uint256"},{"name":"performanceFee","type":"uint256","indexed":false,"internalType":"uint256"}],"anonymous":false},{"type":"event","name":"Initialized","inputs":[{"name":"version","type":"uint64","indexed":false,"internalType":"uint64"}],"anonymous":false},{"type":"event","name":"KodiakDeployment","inputs":[{"name":"amount","type":"uint256","indexed":false,"internalType":"uint256"},{"name":"lpReceived","type":"uint256","indexed":false,"internalType":"uint256"},{"name":"timestamp","type":"uint256","indexed":false,"internalType":"uint256"}],"anonymous":false},{"type":"event","name":"LPInvestment","inputs":[{"name":"lp","type":"address","indexed":true,"internalType":"address"},{"name":"amount","type":"uint256","indexed":false,"internalType":"uint256"}],"anonymous":false},{"type":"event","name":"LPTokensWithdrawn","inputs":[{"name":"lpToken","type":"address","indexed":true,"internalType":"address"},{"name":"lp","type":"address","indexed":true,"internalType":"address"},{"name":"amount","type":"uint256","indexed":false,"internalType":"uint256"}],"anonymous":false},{"type":"event","name":"MinRebaseIntervalUpdated","inputs":[{"name":"oldInterval","type":"uint256","indexed":false,"internalType":"uint256"},{"name":"newInterval","type":"uint256","indexed":false,"internalType":"uint256"}],"anonymous":false},{"type":"event","name":"Paused","inputs":[{"name":"account","type":"address","indexed":false,"internalType":"address"}],"anonymous":false},{"type":"event","name":"ProfitSpillover","inputs":[{"name":"excessAmount","type":"uint256","indexed":false,"internalType":"uint256"},{"name":"toJunior","type":"uint256","indexed":false,"internalType":"uint256"},{"name":"toReserve","type":"uint256","indexed":false,"internalType":"uint256"}],"anonymous":false},{"type":"event","name":"Rebase","inputs":[{"name":"epoch","type":"uint256","indexed":true,"internalType":"uint256"},{"name":"oldIndex","type":"uint256","indexed":false,"internalType":"uint256"},{"name":"newIndex","type":"uint256","indexed":false,"internalType":"uint256"},{"name":"newTotalSupply","type":"uint256","indexed":false,"internalType":"uint256"}],"anonymous":false},{"type":"event","name":"RebaseExecuted","inputs":[{"name":"epoch","type":"uint256","indexed":true,"internalType":"uint256"},{"name":"apyTier","type":"uint8","indexed":false,"internalType":"uint8"},{"name":"oldIndex","type":"uint256","indexed":false,"internalType":"uint256"},{"name":"newIndex","type":"uint256","indexed":false,"internalType":"uint256"},{"name":"newSupply","type":"uint256","indexed":false,"internalType":"uint256"},{"name":"zone","type":"uint8","indexed":false,"internalType":"enum SpilloverLib.Zone"}],"anonymous":false},{"type":"event","name":"Transfer","inputs":[{"name":"from","type":"address","indexed":true,"internalType":"address"},{"name":"to","type":"address","indexed":true,"internalType":"address"},{"name":"value","type":"uint256","indexed":false,"internalType":"uint256"}],"anonymous":false},{"type":"event","name":"Unpaused","inputs":[{"name":"account","type":"address","indexed":false,"internalType":"address"}],"anonymous":false},{"type":"event","name":"Upgraded","inputs":[{"name":"implementation","type":"address","indexed":true,"internalType":"address"}],"anonymous":false},{"type":"event","name":"VaultValueUpdated","inputs":[{"name":"oldValue","type":"uint256","indexed":false,"internalType":"uint256"},{"name":"newValue","type":"uint256","indexed":false,"internalType":"uint256"},{"name":"profitBps","type":"int256","indexed":false,"internalType":"int256"}],"anonymous":false},{"type":"event","name":"WhitelistedLPAdded","inputs":[{"name":"lp","type":"address","indexed":true,"internalType":"address"}],"anonymous":false},{"type":"event","name":"WhitelistedLPRemoved","inputs":[{"name":"lp","type":"address","indexed":true,"internalType":"address"}],"anonymous":false},{"type":"event","name":"WhitelistedLPTokenAdded","inputs":[{"name":"lpToken","type":"address","indexed":true,"internalType":"address"}],"anonymous":false},{"type":"event","name":"WhitelistedLPTokenRemoved","inputs":[{"name":"lpToken","type":"address","indexed":true,"internalType":"address"}],"anonymous":false},{"type":"event","name":"Withdraw","inputs":[{"name":"user","type":"address","indexed":true,"internalType":"address"},{"name":"assets","type":"uint256","indexed":false,"internalType":"uint256"},{"name":"shares","type":"uint256","indexed":false,"internalType":"uint256"}],"anonymous":false},{"type":"event","name":"WithdrawalPenaltyCharged","inputs":[{"name":"user","type":"address","indexed":true,"internalType":"address"},{"name":"penalty","type":"uint256","indexed":false,"internalType":"uint256"}],"anonymous":false},{"type":"error","name":"AddressEmptyCode","inputs":[{"name":"target","type":"address","internalType":"address"}]},{"type":"error","name":"AddressInsufficientBalance","inputs":[{"name":"account","type":"address","internalType":"address"}]},{"type":"error","name":"AdminAlreadySet","inputs":[]},{"type":"error","name":"CooldownNotMet","inputs":[]},{"type":"error","name":"DepositCapExceeded","inputs":[]},{"type":"error","name":"DivisionByZero","inputs":[]},{"type":"error","name":"ERC1967InvalidImplementation","inputs":[{"name":"implementation","type":"address","internalType":"address"}]},{"type":"error","name":"ERC1967NonPayable","inputs":[]},{"type":"error","name":"EnforcedPause","inputs":[]},{"type":"error","name":"ExpectedPause","inputs":[]},{"type":"error","name":"FailedInnerCall","inputs":[]},{"type":"error","name":"InsufficientAllowance","inputs":[]},{"type":"error","name":"InsufficientBalance","inputs":[]},{"type":"error","name":"InvalidAPYTier","inputs":[]},{"type":"error","name":"InvalidAmount","inputs":[]},{"type":"error","name":"InvalidInitialization","inputs":[]},{"type":"error","name":"InvalidProfitRange","inputs":[]},{"type":"error","name":"InvalidRecipient","inputs":[]},{"type":"error","name":"InvalidSupply","inputs":[]},{"type":"error","name":"InvalidVaultValue","inputs":[]},{"type":"error","name":"InvalidWithdrawalAmount","inputs":[]},{"type":"error","name":"JuniorReserveAlreadySet","inputs":[]},{"type":"error","name":"KodiakHookNotSet","inputs":[]},{"type":"error","name":"LPAlreadyWhitelisted","inputs":[]},{"type":"error","name":"NotInitializing","inputs":[]},{"type":"error","name":"OnlyAdmin","inputs":[]},{"type":"error","name":"OnlyDeployer","inputs":[]},{"type":"error","name":"OnlyWhitelistedDepositor","inputs":[]},{"type":"error","name":"Overflow","inputs":[]},{"type":"error","name":"RebaseTooSoon","inputs":[]},{"type":"error","name":"SafeERC20FailedOperation","inputs":[{"name":"token","type":"address","internalType":"address"}]},{"type":"error","name":"SlippageTooHigh","inputs":[]},{"type":"error","name":"UUPSUnauthorizedCallContext","inputs":[]},{"type":"error","name":"UUPSUnsupportedProxiableUUID","inputs":[{"name":"slot","type":"bytes32","internalType":"bytes32"}]},{"type":"error","name":"Unauthorized","inputs":[]},{"type":"error","name":"WhitelistedLPNotFound","inputs":[]},{"type":"error","name":"WrongVault","inputs":[]},{"type":"error","name":"ZeroAddress","inputs":[]}],"bytecode":{"object":"0x60a080604052346100c257306080525f516020614cc35f395f51905f525460ff8160401c166100b3576002600160401b03196001600160401b03821601610060575b604051614bfc90816100c782396080518181816128ec015261298e0152f35b6001600160401b0319166001600160401b039081175f516020614cc35f395f51905f525581527fc7f505b2f371ae2175ee4913f4499e1f2633a7b5936321eed1cdaeb6115181d290602090a15f80610041565b63f92ee8a960e01b5f5260045ffd5b5f80fdfe60806040526004361015610011575f80fd5b5f5f3560e01c806301e1d11414613319578063049a42401461326a57806306fdde03146131b3578063095ea7b31461318d5780630a28a47714613164578063113ba77714612ffb5780631259ada214612fd357806318160ddd14612fa95780631924063e14612f8c578063226ac79114612f4f57806323b872dd14612edc5780632440d81c14612ea457806324d7806c14612e6f5780632727c94d14612e325780632fe2388a14612d55578063313ce56714612d3a5780633a98ef3914612d1d5780633f13ee8214612cad5780633f4ba83a14612c2557806341c5255314612bf957806347e1b37214612bdc578063480e6f2d14612b2a5780634f1ef2861461294057806352d1902d146128da5780635312ea8e146127c25780635a4d1891146127425780635c975abb1461271457806361d027b3146126ec5780636635466e146121d85780636cfa3bd4146121495780636e553f651461204d578063704b6c0214611fad57806370a0823114611f5f57806373884aee14611f45578063744384f214611ee557806375829def14611e615780638456cb5914611de657806384db75ad14611d095780638873edb8146105f25780638c21c9e114611d04578063900cf0cf14611ce757806392f2ed1f14611a2657806395d89b411461195e57806398c1b7001461179457806399194b66146117795780639d33919b146116fb578063a58e338914611592578063a9059cbb14611560578063ad3cb1cc1461151f578063ae90fa5714611491578063b460af94146111fb578063b926f74d146111d2578063bc4f2d6d14610f0c578063beec98c014610be6578063c07056bc14610981578063c2d4f8c014610942578063c7aa7201146108ba578063c7c463fc1461089f578063c7d1e7ef1461082f578063c89039c514610419578063c8f33c9114610811578063cba04a681461073a578063cd48098e146106ec578063ce0374e1146106b8578063cef062fc1461068f578063cfe8b3e3146105f7578063d2258beb146105f2578063d5f39488146105cb578063dbd5edc7146105a8578063dd62ed3e14610555578063dd95a14d1461043c578063e33a2c511461041e578063e9cbd82214610419578063ef8b30f7146103fb578063f5eb42dc146103c2578063f851a440146103995763fc7270d414610369575f80fd5b3461039657602036600319011261039657602061038c610387613360565b613aa6565b6040519015158152f35b80fd5b50346103965780600319360112610396576001546040516001600160a01b039091168152602090f35b5034610396576020366003190112610396576020906040906001600160a01b036103ea613360565b168152600483522054604051908152f35b50346103965760203660031901126103965760206040516004358152f35b61366d565b50346103965780600319360112610396576020601154604051908152f35b503461039657602036600319011261039657610456613360565b6001546001600160a01b03163303610546576001600160a01b03811690811561053757818352601760205260ff60408420541661052857601554600160401b81101561051457906104b28260016104d6940160155560156137aa565b81546001600160a01b0393841660039290921b91821b9390911b1916919091179055565b808252601760205260408220805460ff191660011790557fc4139bbefb6535b647b0a81e17477c9d9796c9e5a8767a452f308f8d2c960af08280a280f35b634e487b7160e01b84526041600452602484fd5b6308d38e4960e01b8352600483fd5b63d92e233d60e01b8352600483fd5b634755657960e01b8252600482fd5b5034610396576040366003190112610396576040610571613360565b9161057a613376565b9260018060a01b031681526009602052209060018060a01b03165f52602052602060405f2054604051908152f35b503461039657806003193601126103965760206105c3613a29565b604051908152f35b5034610396578060031936011261039657546040516001600160a01b039091168152602090f35b613573565b503461039657602036600319011261039657610611613360565b6001546001600160a01b03163303610546576001600160a01b03811690811561053757818352601660205260ff6040842054166105285761065190613960565b808252601660205260408220805460ff191660011790557f3ad5f8ec9161a9090daf2327ae998fbee12617c140eacfb348ea916394ab6d0e8280a280f35b5034610396578060031936011261039657600e546040516001600160a01b039091168152602090f35b50346103965760403660031901126103965760406106e06106d7613360565b602435906139f0565b82519182526020820152f35b503461039657806003193601126103965733815260126020524260408220556040514281527f8240a111e5570959db55ff654f6cffdc510914f2563af29532d1786a70a8b9ed60203392a280f35b50346103965760203660031901126103965760015460043591906001600160a01b0316330361080257600a549180600a5542600b5581836107b8575b60408051948552602085019290925290830152907f08e292119eb5d6f28b841651e90566220242a29a2941ab33e2fc73a859e443c49080606081015b0390a180f35b50612710810281810461271014821517156107ee57836107d7916139d2565b9261270f1984019384136001166107ee5792610776565b634e487b7160e01b83526011600452602483fd5b634755657960e01b8152600490fd5b50346103965780600319360112610396576020600b54604051908152f35b503461039657602036600319011261039657610849613360565b6001546001600160a01b03163303610546576001600160a01b0316808252601360205260408220805460ff191690557fbc12c224e0d437ba41f0b1d746dea5cb82c6d3808b990d3780eacbd3adcad0eb8280a280f35b503461039657806003193601126103965760206105c3613987565b5034610396576020366003190112610396576108d4613360565b6001546001600160a01b03163303610546576001600160a01b0316801561093357808252601360205260408220805460ff191660011790557f4a31ecf511a8ac8191b59288666a641edc513f28ae651a4eaf1886d980dc02778280a280f35b63d92e233d60e01b8252600482fd5b50346103965760203660031901126103965760209060ff906040906001600160a01b0361096d613360565b168152601684522054166040519015158152f35b50346103965760203660031901126103965761099b613360565b6001546001600160a01b03163303610546576008546001600160a01b031680610ad7575b506001600160a01b03811690816109e8575b506001600160601b0360a01b600854161760085580f35b8280604051602081019063fbfa77cf60e01b825260048152610a0b6024826134e3565b5190845afa610a18613931565b81610ac9575b81610a98575b5015610a8957818352601660205260ff6040842054166109d157610a4790613960565b808252601660205260408220805460ff19166001179055807f3ad5f8ec9161a9090daf2327ae998fbee12617c140eacfb348ea916394ab6d0e8380a25f6109d1565b637112706560e11b8352600483fd5b9050602081805181010312610ac557602001516001600160a01b03811690819003610ac55730145f610a24565b8380fd5b905060208151101590610a1e565b60018060a01b03600c54166040519084806020840163095ea7b360e01b815285602486015281604486015260448552610b116064866134e3565b84519082855af1610b20613931565b81610bb7575b5080610bad575b15610b68575b50506008546001600160a01b03168084526016602052604084205490915060ff16156109bf57610b6290613f40565b5f6109bf565b610ba0610ba5936040519063095ea7b360e01b6020830152602482015286604482015260448152610b9a6064826134e3565b8261437d565b61437d565b5f8080610b33565b50803b1515610b2d565b8051801592508215610bcc575b50505f610b26565b610bdf92506020809183010191016136dc565b5f80610bc4565b50346103965760c03660031901126103965760043590610c046133b8565b916064356001600160401b038111610e3057610c249036906004016135fe565b610c2c6133a2565b60a4356001600160401b038111610f0857610c4b9036906004016135fe565b600154909491906001600160a01b03163303610ef9578515610eea576008546001600160a01b0316978815610edb57600c546040516370a0823160e01b81523060048201526001600160a01b0390911696906020816024818b5afa908115610ed0579089918b91610e9b575b5010610e8c5788996040999798995190635a57d31b60e01b8252602082600481845afa998a15610e81578b928a9b610e43575b5090610cf692916140a0565b6008546001600160a01b031692833b15610e3f57610d318896928b9288946040519a8b998a988997631aa4f11760e31b895260048901613891565b03925af18015610e3457610e1b575b5050600854604051635a57d31b60e01b81529190602090839060049082906001600160a01b03165afa8015610e10578490610dd8575b610d8092506138dd565b6024358110610dc95760408051928352602083019190915242908201527f2d9c6fa4e1874b30ead551271f1da95d557b36bb806722d35c3ec6c191b141dd9080606081016107b2565b63428637bb60e11b8352600483fd5b506020823d602011610e08575b81610df2602093836134e3565b81010312610e0457610d809151610d76565b5f80fd5b3d9150610de5565b6040513d86823e3d90fd5b81610e25916134e3565b610e3057825f610d40565b8280fd5b6040513d84823e3d90fd5b8780fd5b9950995090506020883d602011610e79575b81610e62602093836134e3565b81010312610e04579651978a978a91610cf6610cea565b3d9150610e55565b6040513d8b823e3d90fd5b631e9acf1760e31b8952600489fd5b9150506020813d602011610ec8575b81610eb7602093836134e3565b81010312610e04578890515f610cb7565b3d9150610eaa565b6040513d8c823e3d90fd5b63855a7f7d60e01b8852600488fd5b63162908e360e11b8752600487fd5b634755657960e01b8752600487fd5b8580fd5b503461039657602036600319011261039657600154600435906001600160a01b0316330361054657610f4360105460115490613924565b42106111c35780156111b457670de0b6b3a7640000610f67600554600654906139bf565b0480156111a55790610f8791610f7e600a54613c44565b93908092613c78565b906020820190610fa0610f9b835183613ed3565b613f13565b936003851015611191576002850361115d578251610fbd92614259565b600654928251670e27c49886e60000810290808204670e27c49886e60000149015171561114957670de0b6b3a76400009004670de0b6b3a76400000180670de0b6b3a7640000116111495761101b670de0b6b3a764000091866139bf565b046006556007545f1981146111495760a0604095936111207f49d512bf9cb224241c05691e73eb9fab078cf350c7dbcbcf66788f1fc0cc8b0b98969460017f7a2be7aecdfb46b53374312a2f8fa8e65a1a9ba78993c11fd610379431e189f795016007556060860196875180611130575b50426010558b60ff6080600754998a7f73fc076a6dc311c86aa8be0baa48f246eeb171cb2728ea07541508e63767d9de6110fa670de0b6b3a76400006110da600654809960055490506139bf565b04604051918291898b846040919493926060820195825260208201520152565b0390a20151169451918b5195865260208601528a85015260608401526080830190613456565ba25182519182526020820152a180f35b61114390600180881b03600f541661402f565b5f61108c565b634e487b7160e01b87526011600452602487fd5b84158015611184575b611172575b5050610fbd565b825161117d926140dc565b5f8061116b565b5060a08401511515611166565b634e487b7160e01b87526021600452602487fd5b63162908e360e11b8352600483fd5b63162908e360e11b8252600482fd5b63bb6e6ce160e01b8252600482fd5b5034610396578060031936011261039657600d546040516001600160a01b039091168152602090f35b503461039657606036600319011261039657600435611218613376565b906112216133b8565b9060ff5f516020614b875f395f51905f5254168061147c575b61146d57801561145e576001600160a01b0383161561144f576001600160a01b0382169181338490036113eb575b611271916139f0565b9383156113dc5761128460065484613ed3565b848752600460205280604088205410610eea578561131f92602092878a526004845260408a208181540390556005540360055588877fddf252ad1be2c89b69c2b068fc378daa952ba7f163c4a11628f55a4df523b3ef856040518a8152a3600c5460405163a9059cbb60e01b81526001600160a01b0392831660048201526024810193909352919384929091169082908a9082906044820190565b03925af180156113d1576040927ff279e6a1f5e320cca91135676d9cb6e44ca8a08c0b88342bcdb1144f6511b56894928692602099506113a6575b5080611376575b505081519085825286820152a2604051908152f35b877f712129e2096cac89e86e22e1ccf1e232c885ef5c77a442740cb4e17b298b052a918551908152a2835f611361565b6113c590893d8b116113ca575b6113bd81836134e3565b8101906136dc565b61135a565b503d6113b3565b6040513d88823e3d90fd5b634e46966960e11b8652600486fd5b50828552600960209081526040808720335f908152925290205482811061144057611271918380925f198103611425575b50509150611268565b61143991611432916138dd565b3383613b43565b815f61141c565b6313be252b60e01b8652600486fd5b63d92e233d60e01b8452600484fd5b63162908e360e11b8452600484fd5b63d93c066560e01b8452600484fd5b506001546001600160a01b031633141561123a565b503461039657806003193601126103965760405180916020601554928381520191601582527f55f448fdea98c4d29eb340757ef0a66cd03dbb9538908a6a81d96026b71ec475915b818110611500576114fc856114f0818703826134e3565b6040519182918261362b565b0390f35b82546001600160a01b03168452602090930192600192830192016114d9565b5034610396578060031936011261039657506114fc6040516115426040826134e3565b60058152640352e302e360dc1b602082015260405191829182613336565b50346103965760403660031901126103965761158761157d613360565b6024359033613bb5565b602060405160018152f35b5034610396576020366003190112610396576115ac613360565b6001546001600160a01b03163303610546576001600160a01b0316801561093357808252601760205260ff604083205416156116e957815b601554808210156116e257826115f983613792565b905460039190911b1c6001600160a01b03161461161957506001016115e4565b5f1981019081116116ce57906104b261163461164c93613792565b905460039190911b1c6001600160a01b031691613792565b60155480156116ba575f190161167b6116668260156137aa565b81549060018060a01b039060031b1b19169055565b6015555b808252601760205260408220805460ff191690557f8ee45cb2ea16171b2772d093cb422c4ab6bb58aa86d7ea099ea5bc6486123fa48280a280f35b634e487b7160e01b83526031600452602483fd5b634e487b7160e01b84526011600452602484fd5b505061167f565b6001626138a560e11b03198252600482fd5b503461039657806003193601126103965760405180916020601454928381520191601482527fce6d7b5282bd9a3661ae061feed1dbda4e52ab073b1f9285be6e155d9c38d4ec915b81811061175a576114fc856114f0818703826134e3565b82546001600160a01b0316845260209093019260019283019201611743565b5034610396578060031936011261039657602061038c6138fe565b5034610396576117a3366133ce565b600154919290916001600160a01b0316330361194f576001600160a01b031690811561144f576001600160a01b03831692831561194057838552601660205260ff6040862054161561192e57828552601760205260ff6040862054161561192e576040516370a0823160e01b815230600482015291602083602481875afa9283156113d15786936118fa575b50806118f45750815b82156118e55782116118d65760405163a9059cbb60e01b81526001600160a01b03919091166004820152602481018290529060208260448188875af19081156118cb577f10534662cd48e65ea88bdaf07a9c3acfb5d04cd46ee5631480c43d32c6bd6294926020926118b0575b50604051908152a380f35b6118c690833d85116113ca576113bd81836134e3565b6118a5565b6040513d87823e3d90fd5b631e9acf1760e31b8552600485fd5b63162908e360e11b8652600486fd5b91611838565b9092506020813d602011611926575b81611916602093836134e3565b81010312610e045751915f61182f565b3d9150611909565b6001626138a560e11b03198552600485fd5b63d92e233d60e01b8552600485fd5b634755657960e01b8452600484fd5b503461039657806003193601126103965760405190806003549061198182613695565b80855291600181169081156119ff57506001146119b5575b6114fc846119a9818603826134e3565b60405191829182613336565b600381525f516020614b475f395f51905f52939250905b8082106119e5575090915081016020016119a982611999565b9192600181602092548385880101520191019092916119cc565b60ff191660208087019190915292151560051b850190920192506119a99150839050611999565b5034610e045760a0366003190112610e0457611a40613376565b6044356001600160401b038111610e0457611a5f9036906004016135fe565b611a6761338c565b6084356001600160401b038111610e0457611a869036906004016135fe565b600154909491906001600160a01b03163303611cd8576008546001600160a01b0316958615611cc957600c546040516370a0823160e01b8152306004820152976001600160a01b0390911696906020896024818b5afa988915611c40575f99611c95575b508815611c8657604051635a57d31b60e01b815290602082600481845afa988915611c40578a925f9a611c4b575b5090611b2492916140a0565b6008546001600160a01b031692833b15610e0457611b5f5f96928a9288946040519a8b998a988997631aa4f11760e31b895260048901613891565b03925af18015611c4057611c2a575b50600854604051635a57d31b60e01b81529190602090839060049082906001600160a01b03165afa8015610e10578490611bf6575b611bad92506138dd565b6004358110610dc95760408051928352602083019190915242908201527f2d9c6fa4e1874b30ead551271f1da95d557b36bb806722d35c3ec6c191b141dd9080606081016107b2565b506020823d602011611c22575b81611c10602093836134e3565b81010312610e0457611bad9151611ba3565b3d9150611c03565b611c379193505f906134e3565b5f916004611b6e565b6040513d5f823e3d90fd5b91925098506020813d602011611c7e575b81611c69602093836134e3565b81010312610e04575197899190611b24611b18565b3d9150611c5c565b63162908e360e11b5f5260045ffd5b9098506020813d602011611cc1575b81611cb1602093836134e3565b81010312610e045751975f611aea565b3d9150611ca4565b63855a7f7d60e01b5f5260045ffd5b634755657960e01b5f5260045ffd5b34610e04575f366003190112610e04576020600754604051908152f35b613319565b34610e04575f366003190112610e0457601554611d258161370b565b905f5b818110611d3d57604051806114fc8582613408565b611d4681613792565b90546040516370a0823160e01b8152306004820152929160031b1c6001600160a01b0316602083602481845afa8015611c40575f90611db4575b6001935060405191611d9183613477565b82526020820152611da282866137bf565b52611dad81856137bf565b5001611d28565b506020833d8211611dde575b81611dcd602093836134e3565b81010312610e045760019251611d80565b3d9150611dc0565b34610e04575f366003190112610e04576001546001600160a01b03163303611cd857611e10614008565b600160ff195f516020614b875f395f51905f525416175f516020614b875f395f51905f52557f62e78cea01bee320cd4e420270b5ea74000d11b0c9f74754ebdbfc544b05a2586020604051338152a1005b34610e04576020366003190112610e0457611e7a613360565b6001546001600160a01b0381169133839003611cd8576001600160a01b0316918215611ed65782907ff8ccb027dfcd135e000e9d45e6cc2d662578a8825d4c45b5e32e0adf67e79ec65f80a36001600160a01b03191617600155005b63d92e233d60e01b5f5260045ffd5b34610e04576020366003190112610e0457600154600435906001600160a01b03163303611cd85760407fda746543e555e5db3b19acee6a461a5a26d4d0edc76fddc2a6198de5dae8032791601154908060115582519182526020820152a1005b34610e04575f366003190112610e04576020604051308152f35b34610e04576020366003190112610e04576001600160a01b03611f80613360565b165f5260046020526020670de0b6b3a7640000611fa460405f2054600654906139bf565b04604051908152f35b34610e04576020366003190112610e0457611fc6613360565b5f546001600160a01b0316330361203e57600154906001600160a01b03821661202f576001600160a01b0316908115611ed657815f7fbf265e8326285a2747e33e54d5945f7111f2b5edb826eb8c08d4677779b3ff978180a36001600160a01b03191617600155005b63130160e560e31b5f5260045ffd5b63618bbdd560e01b5f5260045ffd5b34610e04576040366003190112610e0457600435612069613376565b90612072614008565b8015611c86576001600160a01b0382168015611ed6576120906138fe565b61213a57600c546040516323b872dd60e01b81523360048201523060248201526044810184905290602090829060649082905f906001600160a01b03165af18015611c40576020946120e992859261211f575b5061402f565b7f90890809c654f11d6e72a28fa60149770a0d11ec6c92319d6ceb2bb0a4ea1a15604080518481528486820152a2604051908152f35b61213590873d89116113ca576113bd81836134e3565b6120e3565b6324d758c360e21b5f5260045ffd5b34610e04576020366003190112610e0457612162613360565b6001546001600160a01b03163303611cd8576001600160a01b038116908115611ed657815f52601660205260ff60405f205416156121c9576121a390613f40565b7f3bedd7d89ef686cca15b860943a8d8902b2a5396f8dcf1ff5cfbbdb610a420715f80a2005b637f9ec75b60e11b5f5260045ffd5b34610e045760e0366003190112610e04576121f1613360565b6024356001600160401b038111610e0457612210903690600401613555565b6044356001600160401b038111610e045761222f903690600401613555565b9061223861338c565b6122406133a2565b9160a4359360018060a01b038516809503610e04575f516020614ba75f395f51905f52549560ff8760401c1615966001600160401b038116801590816126e4575b60011490816126da575b1590816126d1575b506126c25767ffffffffffffffff1981166001175f516020614ba75f395f51905f525587612696575b506122c5614352565b6001600160a01b0316918215611ed6578515611ed6576122e3614352565b5f80546001600160a01b031916331790556122fc614352565b612304614352565b60ff195f516020614b875f395f51905f5254165f516020614b875f395f51905f52558051906001600160401b038211612594578190612344600254613695565b601f8111612624575b50602090601f83116001146125b3575f926125a8575b50508160011b915f199060031b1c1916176002555b8051906001600160401b038211612594578190612396600354613695565b601f8111612522575b50602090601f83116001146124b1575f926124a6575b50508160011b915f199060031b1c1916176003555b6001600160601b0360a01b600c541617600c5560018060a01b03166001600160601b0360a01b600d541617600d5560018060a01b03166001600160601b0360a01b600e541617600e556001600160601b0360a01b600f541617600f5560c435600a5542600b5542601055601e601155670de0b6b3a76400006006555f60075561244f57005b68ff0000000000000000195f516020614ba75f395f51905f5254165f516020614ba75f395f51905f52557fc7f505b2f371ae2175ee4913f4499e1f2633a7b5936321eed1cdaeb6115181d2602060405160018152a1005b0151905087806123b5565b60035f9081525f516020614b475f395f51905f529350601f198516905b81811061250a57509084600195949392106124f2575b505050811b016003556123ca565b01515f1960f88460031b161c191690558780806124e4565b929360206001819287860151815501950193016124ce565b90915060035f52601f830160051c5f516020614b475f395f51905f5201906020841061257f575b90601f8493920160051c5f516020614b475f395f51905f5201905b818110612571575061239f565b5f8155849350600101612564565b5f516020614b475f395f51905f529150612549565b634e487b7160e01b5f52604160045260245ffd5b015190508880612363565b60025f9081525f516020614b275f395f51905f529350601f198516905b81811061260c57509084600195949392106125f4575b505050811b01600255612378565b01515f1960f88460031b161c191690558880806125e6565b929360206001819287860151815501950193016125d0565b90915060025f52601f830160051c5f516020614b275f395f51905f52019060208410612681575b90601f8493920160051c5f516020614b275f395f51905f5201905b818110612673575061234d565b5f8155849350600101612666565b5f516020614b275f395f51905f52915061264b565b68ffffffffffffffffff191668010000000000000001175f516020614ba75f395f51905f5255876122bc565b63f92ee8a960e01b5f5260045ffd5b90501589612293565b303b15915061228b565b899150612281565b34610e04575f366003190112610e0457600f546040516001600160a01b039091168152602090f35b34610e04575f366003190112610e0457602060ff5f516020614b875f395f51905f5254166040519015158152f35b34610e04576040366003190112610e045761275b613360565b612763613376565b6001549091906001600160a01b03163303611cd8576001600160a01b0316908115611ed6576001600160a01b0316908115611ed6576001600160601b0360a01b600d541617600d556001600160601b0360a01b600e541617600e555f80f35b34610e04576020366003190112610e0457600154600435906001600160a01b03163303611cd85760ff5f516020614b875f395f51905f525416156128a4578015611c8657600c54600f5460405163a9059cbb60e01b81526001600160a01b0391821660048201526024810184905291602091839160449183915f91165af18015611c4057612887575b50600f546040519182526001600160a01b0316907f5fafa99d0643513820be26656b45130b01e1c03062e1266bf36f88cbd3bd969590602090a2005b61289f9060203d6020116113ca576113bd81836134e3565b61284b565b60405162461bcd60e51b815260206004820152600e60248201526d135d5cdd081899481c185d5cd95960921b6044820152606490fd5b34610e04575f366003190112610e04577f00000000000000000000000000000000000000000000000000000000000000006001600160a01b031630036129315760206040515f516020614b675f395f51905f528152f35b63703e46dd60e11b5f5260045ffd5b6040366003190112610e0457612954613360565b6024356001600160401b038111610e045736602382011215610e045761298490369060248160040135910161351f565b6001600160a01b037f000000000000000000000000000000000000000000000000000000000000000016308114908115612b08575b50612931576001546001600160a01b03163303611cd8576040516352d1902d60e01b81526001600160a01b0383169290602081600481875afa5f9181612ad4575b50612a125783634c9c8ce360e01b5f5260045260245ffd5b805f516020614b675f395f51905f52859203612ac25750813b15612ab0575f516020614b675f395f51905f5280546001600160a01b031916821790557fbc7cd75a20ee27fd9adebab32041f755214dbc6bffa90cc0225b39da2e5c2d3b5f80a2815115612a98575f80836020612a9695519101845af4612a90613931565b91614ac8565b005b505034612aa157005b63b398979f60e01b5f5260045ffd5b634c9c8ce360e01b5f5260045260245ffd5b632a87526960e21b5f5260045260245ffd5b9091506020813d602011612b00575b81612af0602093836134e3565b81010312610e04575190856129fa565b3d9150612ae3565b5f516020614b675f395f51905f52546001600160a01b031614159050836129b9565b34610e04576040366003190112610e0457612b43613360565b612b4b613376565b6001546001600160a01b03163303611cd857600d54916001600160a01b0383168015159081612bd0575b50612bc1576001600160a01b0316908115611ed6576001600160a01b0316918215611ed6576001600160601b0360a01b1617600d556001600160601b0360a01b600e541617600e555f80f35b630db4cb1d60e11b5f5260045ffd5b60019150141584612b75565b34610e04575f366003190112610e04576020600654604051908152f35b34610e04575f366003190112610e04576020612c16610f9b613987565b612c236040518092613456565bf35b34610e04575f366003190112610e04576001546001600160a01b03163303611cd8575f516020614b875f395f51905f525460ff811615612c9e5760ff19165f516020614b875f395f51905f52557f5db9ee0a495bf2e6ff9c91a7834c1ba4fdd244a5e8aa4e537bd38aeae4b073aa6020604051338152a1005b638dfc202b60e01b5f5260045ffd5b34610e04575f366003190112610e0457610100612d16612ccb613803565b91929060a0604051948051865260208101516020870152604081015160408701526060810151606087015260ff60808201511660808701520151151560a085015260c0840190613456565b60e0820152f35b34610e04575f366003190112610e04576020600554604051908152f35b34610e04575f366003190112610e0457602060405160128152f35b34610e04575f366003190112610e0457601454612d718161370b565b905f5b818110612d8957604051806114fc8582613408565b612d9281613766565b90546040516370a0823160e01b8152306004820152929160031b1c6001600160a01b0316602083602481845afa8015611c40575f90612e00575b6001935060405191612ddd83613477565b82526020820152612dee82866137bf565b52612df981856137bf565b5001612d74565b506020833d8211612e2a575b81612e19602093836134e3565b81010312610e045760019251612dcc565b3d9150612e0c565b34610e04576020366003190112610e04576001600160a01b03612e53613360565b165f526017602052602060ff60405f2054166040519015158152f35b34610e04576020366003190112610e04576020612e8a613360565b6001546040516001600160a01b0392831691909216148152f35b34610e04576020366003190112610e04576001600160a01b03612ec5613360565b165f526012602052602060405f2054604051908152f35b34610e0457612eea366133ce565b6001600160a01b0383165f9081526009602090815260408083203384529091529020549290919060018401612f24575b6115879350613bb5565b828410612f4057612f3b8361158795033383613b43565b612f1a565b6313be252b60e01b5f5260045ffd5b34610e04576020366003190112610e04576001600160a01b03612f70613360565b165f526013602052602060ff60405f2054166040519015158152f35b34610e04575f366003190112610e04576020601054604051908152f35b34610e04575f366003190112610e04576020670de0b6b3a7640000611fa4600554600654906139bf565b34610e04575f366003190112610e04576008546040516001600160a01b039091168152602090f35b34610e04576040366003190112610e0457613014613360565b60015460243591906001600160a01b03163303611cd8576001600160a01b038116918215611ed6578015611c8657825f52601660205260ff60405f205416156121c957600c546040516370a0823160e01b81523060048201526001600160a01b0390911690602081602481855afa8015611c405783915f9161312f575b50106131205760405163a9059cbb60e01b81526001600160a01b0393909316600484015260248301829052602090839060449082905f905af1908115611c40577f4d68c0642ddb3d721bdec8814888b9e64c61023efedaf43bf47cf10b799ad0e292602092613105575b50604051908152a2005b61311b90833d85116113ca576113bd81836134e3565b6130fb565b631e9acf1760e31b5f5260045ffd5b9150506020813d60201161315c575b8161314b602093836134e3565b81010312610e045782905186613091565b3d915061313e565b34610e04576020366003190112610e04576020613183600435336139f0565b9050604051908152f35b34610e04576040366003190112610e04576115876131a9613360565b6024359033613b43565b34610e04575f366003190112610e04576040515f6002546131d381613695565b808452906001811690811561324657506001146131fb575b6114fc836119a9818503826134e3565b91905060025f525f516020614b275f395f51905f52915f905b80821061322c575090915081016020016119a96131eb565b919260018160209254838588010152019101909291613214565b60ff191660208086019190915291151560051b840190910191506119a990506131eb565b34610e04576020366003190112610e0457600154600435906001600160a01b03163303611cd857611387198112801561330e575b6132ff577f08e292119eb5d6f28b841651e90566220242a29a2941ab33e2fc73a859e443c490600a546132fa6132d48383613adb565b9283600a5542600b55604051938493846040919493926060820195825260208201520152565b0390a1005b63092382c960e21b5f5260045ffd5b50612710811361329e565b34610e04575f366003190112610e04576020600a54604051908152f35b602060409281835280519182918282860152018484015e5f828201840152601f01601f1916010190565b600435906001600160a01b0382168203610e0457565b602435906001600160a01b0382168203610e0457565b606435906001600160a01b0382168203610e0457565b608435906001600160a01b0382168203610e0457565b604435906001600160a01b0382168203610e0457565b6060906003190112610e04576004356001600160a01b0381168103610e0457906024356001600160a01b0381168103610e04579060443590565b60206040818301928281528451809452019201905f5b81811061342b5750505090565b825180516001600160a01b03168552602090810151818601526040909401939092019160010161341e565b9060038210156134635752565b634e487b7160e01b5f52602160045260245ffd5b604081019081106001600160401b0382111761259457604052565b60c081019081106001600160401b0382111761259457604052565b60a081019081106001600160401b0382111761259457604052565b608081019081106001600160401b0382111761259457604052565b90601f801991011681019081106001600160401b0382111761259457604052565b6001600160401b03811161259457601f01601f191660200190565b92919261352b82613504565b9161353960405193846134e3565b829481845281830111610e04578281602093845f960137010152565b9080601f83011215610e04578160206135709335910161351f565b90565b34610e04576020366003190112610e045760246020613590613360565b6040516370a0823160e01b815230600482015292839182906001600160a01b03165afa8015611c40575f906135cb575b604051908152602090f35b506020813d6020116135f6575b816135e5602093836134e3565b81010312610e0457602090516135c0565b3d91506135d8565b9181601f84011215610e04578235916001600160401b038311610e045760208381860195010111610e0457565b60206040818301928281528451809452019201905f5b81811061364e5750505090565b82516001600160a01b0316845260209384019390920191600101613641565b34610e04575f366003190112610e0457600c546040516001600160a01b039091168152602090f35b90600182811c921680156136c3575b60208310146136af57565b634e487b7160e01b5f52602260045260245ffd5b91607f16916136a4565b90816020910312610e04575190565b90816020910312610e0457518015158103610e045790565b6001600160401b0381116125945760051b60200190565b90613715826136f4565b61372260405191826134e3565b8281528092613733601f19916136f4565b01905f5b82811061374357505050565b60209060405161375281613477565b5f81525f8382015282828501015201613737565b60145481101561377e5760145f5260205f2001905f90565b634e487b7160e01b5f52603260045260245ffd5b60155481101561377e5760155f5260205f2001905f90565b805482101561377e575f5260205f2001905f90565b805182101561377e5760209160051b010190565b604051906137e082613492565b5f60a0838281528260208201528260408201528260608201528260808201520152565b61380b6137d3565b90670de0b6b3a7640000613824600554600654906139bf565b04918215613860575061385261384661383e600a54613c44565b508094613c78565b92602084015190613ed3565b9061385c82613f13565b9190565b9150600190670de0b6b3a764000090565b908060209392818452848401375f828201840152601f01601f1916010190565b9290936138bf9261357098969795855260018060a01b0316602085015260a0604085015260a0840191613871565b6001600160a01b039094166060820152808403608090910152613871565b919082039182116138ea57565b634e487b7160e01b5f52601160045260245ffd5b670de0b6b3a7640000613916600554600654906139bf565b0461391f613a29565b111590565b919082018092116138ea57565b3d1561395b573d9061394282613504565b9161395060405193846134e3565b82523d5f602084013e565b606090565b60145490600160401b821015612594576104b2826001613985940160145560146137aa565b565b670de0b6b3a764000061399f600554600654906139bf565b0480156139b25761357090600a54613ed3565b50670de0b6b3a764000090565b818102929181159184041417156138ea57565b81156139dc570490565b634e487b7160e01b5f52601260045260245ffd5b6001600160a01b03165f90815260126020526040902054908115613a1d57613a19914291614332565b9091565b613a19915042906142de565b600e54604051638c21c9e160e01b815290602090829060049082906001600160a01b03165afa908115611c40575f91613a74575b50600a810290808204600a14901517156138ea5790565b90506020813d602011613a9e575b81613a8f602093836134e3565b81010312610e0457515f613a5d565b3d9150613a82565b6001600160a01b03165f908152601260205260409020548015613ad657613ad162093a8091426138dd565b101590565b505f90565b905f8112613b0257612710019081612710116138ea5761271091613afe916139bf565b0490565b600160ff1b81146138ea57612710815f031015613b3457612710019061271082116138ea5761271091613afe916139bf565b631a93c68960e11b5f5260045ffd5b6001600160a01b0316908115613ba6576001600160a01b0316918215613ba65760207f8c5be1e5ebec7d5bd14f71427d1e84f3dd0314c0f7b2291e5b200ac8c7c3b92591835f526009825260405f20855f5282528060405f2055604051908152a3565b634e46966960e11b5f5260045ffd5b6001600160a01b0316908115613ba6576001600160a01b0316918215613ba657613be160065482613ed3565b825f5260046020528060405f205410611c86577fddf252ad1be2c89b69c2b068fc378daa952ba7f163c4a11628f55a4df523b3ef91602091845f526004835260405f20818154039055855f526004835260405f20908154019055604051908152a3565b90662386f26fc100008202828104662386f26fc1000014831517156138ea5767a688906bd8b0000061385c910480936138dd565b90613c816137d3565b508115613ec4578015613eb55766267c8e5cda10008083028381048214841517156138ea57670de0b6b3a7640000900466470de4df820000810281810466470de4df82000014821517156138ea57670de0b6b3a7640000900490613cee82613ce98388613924565b613924565b670de0b6b3a7640000613d018287613ed3565b1015613e825750505050662386f26fc100008083028381048214841517156138ea57670de0b6b3a7640000900466470de4df820000810281810466470de4df82000014821517156138ea57670de0b6b3a7640000900490613d6682613ce98388613924565b670de0b6b3a7640000613d798287613ed3565b1015613e4f57505050506620915682a7f000918281028181048414821517156138ea57670de0b6b3a764000090049166470de4df820000830283810466470de4df82000014841517156138ea57613dec613de58594613ce9670de0b6b3a7640000809504978892613924565b8093613ed3565b1015613e215760405193613dff85613492565b845260208401526040830152606082015260016080820152600160a082015290565b60405193613e2e85613492565b8452602084015260408301526060820152600160808201525f60a082015290565b604051955091935091613e6185613492565b8452602084015260408301526060820152600260808201525f60a082015290565b604051955091935091613e9485613492565b8452602084015260408301526060820152600360808201525f60a082015290565b6316764bbd60e31b5f5260045ffd5b6315ae672760e01b5f5260045ffd5b908015613f0457670de0b6b3a7640000820291808304670de0b6b3a764000014901517156138ea57613570916139d2565b6323d359a360e01b5f5260045ffd5b670f43fc2c04ee0000811115613f295750600290565b670de0b6b3a764000011613f3c57600190565b5f90565b5f5b601454908181101561400157613f5781613766565b905460039190911b1c6001600160a01b0390811690841614613f7d576001915001613f42565b5f1982019182116138ea576104b2613f97613faf93613766565b905460039190911b1c6001600160a01b031691613766565b6014548015613fed575f1901613fc96116668260146137aa565b6014555b6001600160a01b03165f908152601660205260409020805460ff19169055565b634e487b7160e01b5f52603160045260245ffd5b5050613fcd565b60ff5f516020614b875f395f51905f52541661402057565b63d93c066560e01b5f5260045ffd5b6001600160a01b0316908115613ba6577fddf252ad1be2c89b69c2b068fc378daa952ba7f163c4a11628f55a4df523b3ef60205f9261407060065482613ed3565b61407c81600554613924565b6005558585526004835261409560408620918254613924565b9055604051908152a3565b60405163a9059cbb60e01b60208201526001600160a01b0392909216602483015260448083019390935291815261398591610ba06064836134e3565b600e54604051638c21c9e160e01b81529290602090849060049082906001600160a01b03165afa908115611c40575f91614224575b600d54604051638c21c9e160e01b81529450602090859060049082906001600160a01b03165afa928315611c40575f936141ee575b61415094506143e8565b908151156141ea578160809160207f6f9e0f41c93dc731cabd6846db6c34c50debf4b22a32ed88de69934029607373940191825182816141da575b50506040810191825190816141ca575b50506060810151600a5583815193519251910151151591604051938452602084015260408301526060820152a1565b6141d39161457f565b5f8061419b565b6141e391614510565b5f8261418b565b5050565b92506020843d60201161421c575b81614209602093836134e3565b81010312610e0457614150935192614146565b3d91506141fc565b90506020833d602011614251575b8161423f602093836134e3565b81010312610e04576004925190614111565b3d9150614232565b90614263916145c3565b908151156141ea578160607fee2f0f0bd6267869f3c3e0a51826dfe9b7e169663403540e3fca5d9d51a0e4db930151600a556142d960208201916142a88484516146d8565b6142b7604082019485516148ea565b5191519251604051938493846040919493926060820195825260208201520152565b0390a1565b919082156143235762093a80116142f4575f9190565b66b1a2bc2ec50000820282810466b1a2bc2ec50000036138ea57670de0b6b3a7640000613570910480936138dd565b639abc749160e01b5f5260045ffd5b929183156143235762093a8091614348916138dd565b106142f4575f9190565b60ff5f516020614ba75f395f51905f525460401c161561436e57565b631afcd79f60e31b5f5260045ffd5b5f806143a59260018060a01b03169360208151910182865af161439e613931565b9083614ac8565b80519081151591826143cd575b50506143bb5750565b635274afe760e01b5f5260045260245ffd5b6143e092506020809183010191016136dc565b155f806143b2565b9192906040516143f7816134ad565b5f81525f60208201525f60408201525f60608201525f608082015250670e00b027725e8000810290808204670e00b027725e800014901517156138ea57670de0b6b3a76400009004808310156144e25782614451916138dd565b92838110156144da57905b61446682856138dd565b905f82156144c65750818110156144bc5761449390915b613ce98461448c8586946138dd565b1596613924565b91604051946144a1866134ad565b85526020850152604084015260608301521515608082015290565b506144938161447d565b8092506144939150613ce984600196613924565b50829061445c565b505060405191506144f2826134ad565b5f82525f60208301525f604083015260608201526001608082015290565b9081156141ea57602090604460018060a01b03600e5416935f60405195869485936332f92acd60e01b8552600485015260248401525af18015611c40576145545750565b6145759060203d602011614578575b61456d81836134e3565b8101906136cd565b50565b503d614563565b9081156141ea57602090604460018060a01b03600d5416935f60405195869485936332f92acd60e01b8552600485015260248401525af18015611c40576145545750565b906040516145d0816134c8565b5f81525f60208201525f60408201525f606082015250670f43fc2c04ee0000810290808204670f43fc2c04ee000014901517156138ea57670de0b6b3a7640000900490818111156146945781614625916138dd565b90670b1a2bc2ec50000082028215838204670b1a2bc2ec500000148117156138ea576702c68af0bb1400008402908482046702c68af0bb1400001417156138ea57670de0b6b3a764000080926040519561467e876134c8565b8652046020850152046040830152606082015290565b60405191506146a2826134c8565b5f82525f60208301525f6040830152606082015290565b90816020910312610e0457516001600160a01b0381168103610e045790565b905f9180156148e55781156148e5576008546001600160a01b03169081156148a357670de0b6b3a76400008102908104670de0b6b3a7640000036138ea5782614720916139d2565b604051635a57d31b60e01b815290602082600481865afa918215611c40575f926148b1575b50818111156148a95750905b81156148a357600d5460405163092cd6d160e11b815290602090829060049082906001600160a01b03165afa908115611c40575f91614874575b506001600160a01b031690811561486d57803b15610e0457604051639bd70f5d60e01b81526001600160a01b03929092166004830152602482018390525f908290604490829084905af18015611c4057614849575b50670de0b6b3a7640000916147f4916139bf565b600d546001600160a01b0316919004813b15610e305782916024839260405194859384926345c0547760e01b845260048401525af18015610e3457614837575050565b6148428280926134e3565b6103965750565b6147f4919350916148635f670de0b6b3a7640000946134e3565b5f939150916147e0565b5050505050565b614896915060203d60201161489c575b61488e81836134e3565b8101906146b9565b5f61478b565b503d614884565b50505050565b905090614751565b9091506020813d6020116148dd575b816148cd602093836134e3565b81010312610e045751905f614745565b3d91506148c0565b505050565b905f9180156148e55781156148e5576008546001600160a01b03169081156148a357670de0b6b3a76400008102908104670de0b6b3a7640000036138ea5782614932916139d2565b604051635a57d31b60e01b815290602082600481865afa918215611c40575f92614a94575b5081811115614a8c5750905b81156148a357600e5460405163092cd6d160e11b815290602090829060049082906001600160a01b03165afa908115611c40575f91614a6d575b506001600160a01b031690811561486d57803b15610e0457604051639bd70f5d60e01b81526001600160a01b03929092166004830152602482018390525f908290604490829084905af18015611c4057614a49575b50670de0b6b3a764000091614a06916139bf565b600e546001600160a01b0316919004813b15610e305782916024839260405194859384926345c0547760e01b845260048401525af18015610e3457614837575050565b614a0691935091614a635f670de0b6b3a7640000946134e3565b5f939150916149f2565b614a86915060203d60201161489c5761488e81836134e3565b5f61499d565b905090614963565b9091506020813d602011614ac0575b81614ab0602093836134e3565b81010312610e045751905f614957565b3d9150614aa3565b90614aec5750805115614add57805190602001fd5b630a12f52160e11b5f5260045ffd5b81511580614b1d575b614afd575090565b639996b31560e01b5f9081526001600160a01b0391909116600452602490fd5b50803b15614af556fe405787fa12a823e0f2b7631cc41b3ba8828b3321ca811111fa75cd3aa3bb5acec2575a0e9e593c00f959f8c92f12db2869c3395a3b0502d05e2516446f71f85b360894a13ba1a3210667c828492db98dca3e2076cc3735a920a3ca505d382bbccd5ed15c6e187e77e9aee88184c21f4f2182ab5827cb3b7e07fbedcd63f03300f0c57e16840df040f15088dc2f81fe391c3923bec73e23a9662efc9c229c6a00a2646970667358221220812455c0370c351370112c98617349a2fcc1bf2a60ac5b2e693a556459ded1e364736f6c634300081e0033f0c57e16840df040f15088dc2f81fe391c3923bec73e23a9662efc9c229c6a00","linkReferences":{}},"methodIdentifiers":{"UPGRADE_INTERFACE_VERSION()":"ad3cb1cc","addWhitelistedDepositor(address)":"c7aa7201","addWhitelistedLP(address)":"cfe8b3e3","addWhitelistedLPToken(address)":"dd95a14d","admin()":"f851a440","allowance(address,address)":"dd62ed3e","approve(address,uint256)":"095ea7b3","backingRatio()":"c7c463fc","balanceOf(address)":"70a08231","calculateWithdrawalPenalty(address,uint256)":"ce0374e1","canWithdrawWithoutPenalty(address)":"fc7270d4","cooldownStart(address)":"2440d81c","currentZone()":"41c52553","decimals()":"313ce567","deployToKodiak(uint256,uint256,address,bytes,address,bytes)":"beec98c0","deployer()":"d5f39488","deposit(uint256,address)":"6e553f65","depositCap()":"dbd5edc7","depositToken()":"c89039c5","emergencyWithdraw(uint256)":"5312ea8e","epoch()":"900cf0cf","getLPBalance(address)":"d2258beb","getLPHoldings()":"2fe2388a","getLPTokenBalance(address)":"8873edb8","getLPTokenHoldings()":"84db75ad","getWhitelistedLPTokens()":"ae90fa57","getWhitelistedLPs()":"9d33919b","initialize(address,string,string,address,address,address,uint256)":"6635466e","initiateCooldown()":"cd48098e","investInLP(address,uint256)":"113ba777","isAdmin(address)":"24d7806c","isDepositCapReached()":"99194b66","isWhitelistedDepositor(address)":"226ac791","isWhitelistedLP(address)":"c2d4f8c0","isWhitelistedLPToken(address)":"2727c94d","juniorVault()":"b926f74d","kodiakHook()":"1259ada2","lastRebaseTime()":"1924063e","lastUpdateTime()":"c8f33c91","minRebaseInterval()":"e33a2c51","name()":"06fdde03","pause()":"8456cb59","paused()":"5c975abb","previewDeposit(uint256)":"ef8b30f7","previewWithdraw(uint256)":"0a28a477","proxiableUUID()":"52d1902d","rebase(uint256)":"bc4f2d6d","rebaseIndex()":"47e1b372","removeWhitelistedDepositor(address)":"c7d1e7ef","removeWhitelistedLP(address)":"6cfa3bd4","removeWhitelistedLPToken(address)":"a58e3389","reserveVault()":"cef062fc","seniorVault()":"73884aee","setAdmin(address)":"704b6c02","setJuniorReserve(address,address)":"480e6f2d","setKodiakHook(address)":"c07056bc","setMinRebaseInterval(uint256)":"744384f2","setVaultValue(uint256)":"cba04a68","sharesOf(address)":"f5eb42dc","simulateRebase()":"3f13ee82","stablecoin()":"e9cbd822","sweepToKodiak(uint256,address,bytes,address,bytes)":"92f2ed1f","symbol()":"95d89b41","totalAssets()":"01e1d114","totalShares()":"3a98ef39","totalSupply()":"18160ddd","transfer(address,uint256)":"a9059cbb","transferAdmin(address)":"75829def","transferFrom(address,address,uint256)":"23b872dd","treasury()":"61d027b3","unpause()":"3f4ba83a","updateJuniorReserve(address,address)":"5a4d1891","updateVaultValue(int256)":"049a4240","upgradeToAndCall(address,bytes)":"4f1ef286","vaultValue()":"8c21c9e1","withdraw(uint256,address,address)":"b460af94","withdrawLPTokens(address,address,uint256)":"98c1b700"},"id":67}